:020000040001F9
:1040000040360020214201003342010035420100C8
:1040100000000000000000000000000000000000A0
:104020000000000000000000000000003742010016
:104030000000000000000000394201003B42010086
:104040003D4201003D4201003D4201003D42010070
:104050003D420100000000003D4201003D420100E0
:104060003D4201003D4201003D4201003D42010050
:104070003D4201003D4201003D4201003D42010040
:104080003D4201001F6C01003D4201003D42010024
:10409000416C01003D4201000B7301003D420100F3
:1040A0003D4201003D420100000000000000000010
:1040B0000000000000000000000000000000000000
:1040C00000F002F800F040F80CA030C808382418BE
:1040D0002D18A246671EAB4654465D46AC4201D140
:1040E00000F032F87E460F3E0FCCB6460126334232
:1040F00000D0FB1AA246AB46334318478C3E000063
:10410000AC3E0000103A02D378C878C1FAD8520702
:1041100001D330C830C101D504680C60704700007D
:104120000023002400250026103A01D378C1FBD8D3
:10413000520700D330C100D50B6070471FB5C04691
:10414000C0461FBD10B510BD03F05DFE1146FFF760
:10415000F5FF00F02AFB03F075FE03B4FFF7F2FF52
:1041600003BC03F079FE0000401E00BF00BF00BF8B
:1041700000BF00BF00BF00BF00BF00BF00BF00BF47
:1041800000BFF1D170470000401E00BF00BF00BF5C
:1041900000BF00BF00BF00BF00BF00BF00BF00BF27
:1041A00000BFF1D170470000401E00BF00BF00BF3C
:1041B00000BF00BF00BF00BF00BF00BF00BF00BF07
:1041C00000BFF1D170470000401E00BF00BF00BF1C
:1041D00000BF00BF00BF00BF00BF00BF00BF00BFE7
:1041E00000BFF1D17047000070B505460C46164679
:1041F00002E00FCC0FC5103E102EFAD2082E02D3CB
:1042000003CC03C5083E042E07D301CC01C5361FDD
:1042100003E021782970641C6D1C761EF9D270BDF4
:104220000A4802680F210A4302600948804709488A
:104230000047FEE7FEE7FEE7FEE7FEE7FEE70000D9
:1042400005480649064A074B704700002405004010
:104250000D430100C14001004026002040360020EF
:10426000402E0020402E002032483349086070471D
:104270003248008CC0B2012812D13048808C00072F
:10428000000F00280CD12D48806AF02108404028FA
:1042900006D12A48C06A0840002801D10120704791
:1042A0000020FCE72548008CC0B201282CD123480F
:1042B000808C0007000F002826D12048806AF0215A
:1042C0000840002806D11D48C06A0840002801D1D6
:1042D000012070471948806AF0210840102806D153
:1042E0001648C06A0840002801D10120F1E71348B0
:1042F000806AF0210840302806D11048C06A084082
:10430000002801D10120E4E70020E2E710B5FFF723
:10431000C9FF002805D00A480A494860C8130A495D
:104320008861FFF7A5FF002802D0012007498860B7
:1043300010BD00000024F40000200020C00F00F099
:10434000DFFF07C000050040006C00400006004091
:1043500070B504460D4616460F2001218140F74AEC
:10436000916000BF32462946204603F009F870BD2F
:1043700070B504460D462A462146F148FFF7E8FF8E
:1043800070BD00BF00BF03200521090707221202EC
:104390008918086200BF00BF00BF00BF05210907E0
:1043A0008918486200BF00BF00BF00BF0521090790
:1043B0008918C86300BF00BF704700BF00BF03205B
:1043C000000405210907072212028918C86200BFEC
:1043D00000BF704738B5044604200090D9480068F3
:1043E000401CD8490860D849C88CD64B6A46002181
:1043F000A4DF38BD10B504460020D449087001215F
:10440000D1482830C173D049C8883B2166DF10BD30
:10441000F8B500BF0020CE4B05220321009002F02A
:1044200013FC054600BF2E46002E06D000BFC9A2D1
:104430006A213046FFF78CFF00BF00BF00BFC84AAB
:104440000121C84802F07BFC044600BF2546002D30
:1044500006D000BFBFA26E212846FFF779FF00BF3C
:1044600000BFC14A0021C14802F069FC044600BFF8
:104470002546002D06D000BFB6A273212846FFF7BF
:1044800067FF00BF00BFF8BD70B50022B849B5484E
:10449000006802F09BFC044600BF2546002D06D0B4
:1044A00000BFACA27E212846FFF752FF00BF00BF2D
:1044B00070BD10B508200F2108E0012205231B075D
:1044C000072424021B1984001A51401C8842F4D985
:1044D00000BF00220221104603F002F810BD70B5A3
:1044E000054629469848403001F095FA0446002CCC
:1044F0000ED0082C0CD09F48844209D09E4884429C
:1045000006D000BF93A293212046FFF721FF00BFF2
:1045100070BD70B50546002498480079002806D083
:10452000291906223B2000F08AFCA01D84B2934882
:104530004079002806D029190622432000F07FFC8C
:10454000A01D84B28D488079002806D02919062242
:10455000032000F074FCA01D84B28848C0790028B4
:1045600006D029190222412000F069FCA01C84B267
:10457000204670BD70B505468148007800280BD0F4
:1045800000207F4908707D487E49097804684C43C3
:10459000204603F0E1F91AE07B480078002816DD98
:1045A00076487A49097804684C43204603F0D4F9E8
:1045B0002846FFF7AEFF06463246294662480830D5
:1045C00001F0BEF870480078401E6F49087070BD59
:1045D000F8B50C4615462846E90F09184910490058
:1045E000691A00D0F8BD58482830C07B01280FD187
:1045F000002707E07A00521CA15C7A00A05C00F062
:1046000050FC7F1CE90F49194910B942F2DC4EE019
:104610004D482830C07B032848D12078212812D16A
:10462000A07822280FD1207923280CD101205449C9
:104630000870607854490870E078544908706079CF
:104640005049087005E02078212802D160784E4951
:1046500008703E480078002810D04448006802F0F6
:10466000E6FB064600BF3746002F06D000BF39A242
:10467000F0213846FFF76CFE00BF00BF0022012189
:1046800049043A48006802F0A1FB064600BF3746DD
:10469000002F06D000BF2FA2F3213846FFF758FEA7
:1046A00000BF00BF01202949087000E000BF00BF23
:1046B00098E770B505460C4616462078002804D0C9
:1046C000012806D002280FD106E000201D4908600D
:1046D0000AE0FFF7D9FE07E02248006802F0A7FBD6
:1046E00000201849086000BF00BF70BD70B53DDFF5
:1046F000044600BF2546002D07D000BF15A2FF21AC
:1047000017312846FFF724FE00BF00BF70BD08B573
:1047100000201023122211210090132002F098FE95
:1047200004201B4948600321022000F093F8022076
:1047300001218140174A116000BF08BD00050050EB
:10474000EFBEADDE102000208820002018200020C1
:10475000F42000202E2E5C6D61696E2E6300000037
:10476000D543010004200020F5430100082000206B
:10477000CD0C00000330000001340000E8200020D0
:1047800014200020172000201520002016200020D3
:104790000023004000E100E070B5044604250A2033
:1047A0006055204602F044FE70BD86B0FFF7AFFFB3
:1047B00000204449086044490870444908700120B9
:1047C0004349087043490870FFF7DBFDFFF720FEFF
:1047D000FFF7F3FDFFF76DFE3F4800F0CCFB3F48CD
:1047E0003F4988653F48C865084600F0EBFAFFF787
:1047F0004BFE00F0EEF902F09AFE3B4908700846C5
:104800000078FFF76CFE00BF35482830C07B0300FE
:1048100003F029FB0504070A191D1E00FFF766FFB8
:1048200017E0FFF763FF14E0142101A803F023F958
:1048300001A8FFF76EFE00902949C88901AB6A46BE
:104840000021A4DF05E001A8FFF794FE01E000E0ED
:1048500000BFD9E710B5002819DA244A03071B0F57
:10486000083B9B089B00D2588307DC0EFF23A34024
:104870009A438B071B0E8407E40EA3401A431B4B7D
:104880000407240F083CA408A4001A5118E0184A91
:1048900003231B02D21883089B00D2588307DC0E27
:1048A000FF23A3409A438B071B0E8407E40EA3400B
:1048B0001A430F4B032424021B198408A4001A5125
:1048C00010BD00001020002018200020152000201E
:1048D0001620002017200020E8200020D1450100EC
:1048E00088200020B34601000C2000201CED00E0D1
:1048F00000E100E03EB500BF68460078010909010B
:10490000491C009168460078F021884310300090DF
:1049100000BF0A22F8A168466CDF044600BF2546A6
:10492000002D06D000BFF7A21E212846FFF710FD7C
:1049300000BF00BF002001900290102168468180D6
:104940002821C18000210181FF219131418101A8ED
:104950006ADF044600BF2546002D06D000BFE9A24D
:1049600028212846FFF7F4FC00BF00BF3EBD30B54C
:10497000A1B005210291E74800680190E64800686F
:10498000017A684681713C2112A803F074F8022074
:104990001290002110A841730121018202A91591F2
:1049A0003C2103A803F067F801216846018501A9AD
:1049B0000B9103A912A801F014FD044600BF25467F
:1049C000002D06D000BFCFA245212846FFF7C0FC2E
:1049D00000BF00BF21B030BD30B585B0CE48006803
:1049E000816DCD4800688163CB480068C16DCA48BD
:1049F0000068C163C8480068083000F04AFE0446F9
:104A000000BF2546002D06D000BFBEA25421284677
:104A1000FFF79EFC00BF00BF1421684603F02BF88F
:104A200000BF6846407B01090901491C6846417383
:104A3000407BF021884310306946487300BF00BFB7
:104A40006846807B00090001401C88736846807BB3
:104A5000F021884310306946887300BF00BF684664
:104A6000C07B00090001C8736846C07BF021884301
:104A70006946C87300BF00BF6846007C0109090190
:104A8000491C68460174007CF02188431030694657
:104A9000087400BF002000900121684601710020C9
:104AA000029064216846017369469B480068403063
:104AB00000F090FF044600BF2546002D06D000BF41
:104AC00090A266212846FFF743FC00BF00BF05B057
:104AD00030BD1E209049096808808F4800688078A2
:104AE00040084000401C8C49096888708A4800686A
:104AF0008078022188438849096888708648006860
:104B000080781C2188430C3083490968887082486A
:104B100000688078202188437F49096888700720D1
:104B20007D490968C87010207B4909680871704781
:104B300070B505462868002817D1774800682830E6
:104B4000C07B032811D074490968C8883B2166DFFF
:104B5000044600BF2646002E06D000BF69A282216F
:104B60003046FFF7F5FB00BF00BF70BD10B504462F
:104B700000BF64A28C212046FFF7EAFB00BF10BDF6
:104B800030B587B01C21684602F075FF0020009008
:104B900005204004019080100290032168460173B3
:104BA0000021C18101745D4805905D48069068460A
:104BB00002F029FA044600BF2546002D06D000BFAA
:104BC00050A2A3212846FFF7C3FB00BF00BF07B0D8
:104BD00030BD30B585B01421684602F04CFF00218D
:104BE00068460170002001906846017240210182F0
:104BF000B421418263DF044600BF2546002D06D064
:104C000000BF40A2B7212846FFF7A2FB00BF00BFAC
:104C1000082000F0F0F805B030BDF8B504460025D6
:104C20002088142840D006DC10280BD0112817D07B
:104C300013287BD121E0172830D019284AD05228D8
:104C4000F7D123E0092000F0D6F8082000F0D8F8CA
:104C5000A08831490968C88000203249086079E09D
:104C6000092000F0CDF80020C0432B490968C88016
:104C7000002D01D1FFF7ADFF6CE027490968C88816
:104C800025490A6800216FDF054663E0224909686B
:104C9000C88800221146A9DF05465BE03222A11D2B
:104CA000214802F089FE55E01F4EB61D3188E0898B
:104CB000814207D118490968C8880022314671DF4E
:104CC000054606E014490968C8880022114671DFCC
:104CD00005463FE0A07900283AD1082000F090F87E
:104CE00010480068052822DAFFF773FF0D480068B6
:104CF000401C0C4908602BE04D50555F53656E73A6
:104D00006F7200002E2E5C626C655F696E69742E96
:104D100063000000347F01001C200020314B0100A3
:104D20006D4B0100202000203423002011E000BF43
:104D300000BF032000040521090707221202891879
:104D4000C86200BF00BF31DF054600202F49086060
:104D500000E000BF00BF00BF2F46002F07D000BFFC
:104D60002B4AFF2109313846FFF7F2FA00BF00BF96
:104D7000F8BD10B50446204602F019FA2146254830
:104D80000068083000F0F8F92046FFF746FF10BD34
:104D900038B500BF0020204B5022204900900D2044
:104DA00002F06BFA044600BF2546002D07D000BF75
:104DB000174AFF2119312846FFF7CAFA00BF00BF82
:104DC00000BF38BD10B50446124804600020C0433F
:104DD00010490968C88000200C490860FFF7D8FF17
:104DE000FFF788FDFFF7F8FDFFF7C1FDFFF7C8FEED
:104DF000FFF76FFE10BD01218140094A91607047A5
:104E000001218140064AD160704700002020002027
:104E1000044D01001C200020734D01006823002078
:104E20000005005038B504460D46684604704570CC
:104E3000012302226946D02002F04AFD38BDF8B5B0
:104E400004460D461646032C1CD10A216846017003
:104E500001214170012302226946182002F038FD29
:104E60000A2002F079FD6846047001231A4669465B
:104E7000182002F02DFD012306222946192002F0F8
:104E800027FD0DE06846047001231A466946D020CC
:104E900002F01EFD012332462946D12002F018FD02
:104EA000F8BD70B505460C46112D06D0122D37D031
:104EB000132D43D0142D5BD14EE0230002F0D3FF1D
:104EC00008050A0F14191E23282D012045490968D9
:104ED000087123E000204349096808711EE00120A1
:104EE00040490968487119E000203E490968487145
:104EF00014E001203B49096888710FE0002039491E
:104F0000096888710AE0012036490968C87105E01E
:104F1000002034490968C87100E000BF00BF28E0E4
:104F2000002C03D0082C01D0102C06D12D4800688D
:104F3000047221461C20FFF775FF1AE0082C03D0ED
:104F4000102C01D0182C06D1264800684472214646
:104F50001B20FFF767FF0CE0042C03D0022C01D0CC
:104F6000012C04D1322060431E490968086000E02A
:104F700000BF00BF70BD10B5044602F090FB194899
:104F80000460642020600120207160710020A07105
:104F9000E07120720820607218211920FFF742FF8B
:104FA00001211A20FFF73EFF00212320FFF73AFFDF
:104FB00002213720FFF736FF00213820FFF732FFAC
:104FC00000216A20FFF72EFF00216B20FFF72AFF48
:104FD000217A1B20FFF726FF617A1C20FFF722FFB2
:104FE00010BD000024200020F8B505460E46002420
:104FF00032782146641C6A5472782146641C6A54D3
:1050000000BF022C01D1012000E000200746002F44
:1050100005D100BF16A21B21FFF79AF900BF00BF00
:105020002046F8BD70B504460D46284602F0A2FCA5
:105030002080656070BD0246114609110907090FFD
:10504000092903DD08463730C0B2704708463030C2
:10505000C0B2FAE7024611460907090F092903DD24
:1050600008463730C0B2704708463030C0B2FAE761
:105070002E2E5C2E2E5C2E2E5C2E2E5C2E2E5C5345
:105080006F757263655C626C655C626C655F7365AD
:105090007276696365735C626C655F7372765F6379
:1050A0006F6D6D6F6E2E630038B504460D46A8888F
:1050B000A08001212F20015501200090E089234686
:1050C0002F336A460021A4DF38BD0022D2438280FC
:1050D00000232F2213547047F8B504460F46BD1D18
:1050E0002988608981420AD1688B012803D1012275
:1050F0002E210A5502E000222E210A5500BF2888E1
:10510000E189884223D12E461A363078012803D10E
:1051100001212F20015519E02F20005D01280CD11D
:105120003078022805D03078032802D0307804285F
:1051300003D131782F20015508E001200090E0894B
:1051400023462F336A460021A4DF00BF00BF288812
:10515000E18A884205D12A8B29461A312046236BE1
:1051600098472888E18B884205D12A8B29461A3135
:105170002046636B9847F8BD70B505460C462088FD
:10518000102804D0112807D050280FD109E021465B
:105190002846FFF789FF0AE021462846FFF795FFDA
:1051A00005E021462846FFF797FF00E000BF00BF5B
:1051B00070BD10B590B004460020089000BF08A84C
:1051C000007801090901491C08A801700078F02144
:1051D0008843103008A9087000BF00BF08A84078B5
:1051E00001090901491C08A841704078F021884351
:1051F000103008A9487000BF08A8807806218843AD
:10520000811C08A881701C2109A802F034FC08A8A0
:10521000007910218843411808A801710079022102
:105220008843811C08A8017100200A900C900D9001
:1052300008A80E9000200F90217868468172FF2107
:10524000023101810020019000BF68460079010908
:105250000901491C684601710079F021884310302A
:105260006946087100BF00BF68464079010909011D
:10527000491C684641714079F021884310306946E5
:10528000487100BF6846807906218843811C6846C2
:10529000817180790821884301466846817180794F
:1052A0001021884301466846817180794108490090
:1052B000491C68468171142103A802F0DCFB02A896
:1052C000039001A804900121684681820021C182D7
:1052D000142101836088A31D03AA09A9A2DF10B0CD
:1052E00010BD10B58EB004461C2107A802F0C3FB08
:1052F0006846007F08218843411868460177007F8F
:1053000002218843811C68460177002008900A909A
:105310000B900C900D90217868468171F84981803E
:105320000020009000BF6846007801090901491C6F
:10533000684601700078F021884310306946087093
:1053400000BF00BF6846407801090901491C684652
:1053500041704078F021884310306946487000BFA2
:105360006846807806218843811C68468170807871
:10537000082188430146684681708078102188435F
:10538000014668468170807841084900491C68469A
:105390008170142102A802F06EFB01A802906846F9
:1053A00003900121018200214182012181826088D4
:1053B00023460E3302AA07A9A2DF0EB010BD10B516
:1053C0008EB004461C2107A802F055FB6846007FFA
:1053D00008218843411868460177002008900A9008
:1053E0000B900C900D90217868468171C449491C3E
:1053F00081800020009000BF684600780109090103
:10540000491C684601700078F021884310306946D5
:10541000087000BF00BF6846407801090901491CB7
:10542000684641704078F0218843103069464870E2
:1054300000BF6846807806218843811C68468170D9
:105440008078082188430146684681708078102161
:105450008843014668468170807841084900491CAC
:1054600068468170142102A802F005FB01A8029091
:10547000684603900121018200214182142181822A
:1054800060882346163302AA07A9A2DF0EB010BD1A
:1054900010B58EB004461C2107A802F0ECFA68464D
:1054A000007F08218843411868460177007F022168
:1054B0008843811C68460177002008900A900B9071
:1054C0000C900D902178684681718E498180002072
:1054D000009000BF6846007801090901491C684630
:1054E00001700078F021884310306946087000BFD1
:1054F00000BF6846407801090901491C68464170AF
:105500004078F021884310306946487000BF6846F3
:10551000807806218843811C684681708078082144
:10552000884301466846817080781021884301468F
:1055300068468170807841084900491C684681703E
:10554000142102A802F097FA01A80290684603907D
:105550000121018200214182062181826088234647
:105560001E3302AA07A9A2DF0EB010BD10B590B07D
:1055700004460020089000BF08A80078010909012E
:10558000491C08A801700078F0218843103008A950
:10559000087000BF00BF08A8407801090901491C34
:1055A00008A841704078F0218843103008A948705D
:1055B00000BF08A8807806218843811C08A8817054
:1055C0001C2109A802F057FA08A800790221884393
:1055D000811C08A8017100200A900C900D9008A869
:1055E0000E9000200F902178684681724549491C31
:1055F00001810020019000BF68460079010909017E
:10560000491C684601710079F021884310306946D1
:10561000087100BF00BF6846407901090901491CB3
:10562000684641714079F0218843103069464871DD
:1056300000BF6846807906218843811C68468171D5
:10564000807908218843014668468171807910215C
:105650008843014668468171807941084900491CA8
:1056600068468171142103A802F005FA02A803908C
:1056700001A804901421684681820021C18264211E
:10568000018360882346263303AA09A9A2DF10B04C
:1056900010BD30B585B005461B4B0FCB6C460FC413
:1056A0000020C043A88000212E2041552F204155C5
:1056B0002946684652DF0446002C02D0204605B039
:1056C00030BD29786846817401210182AA1C04A991
:1056D0000120A0DF0446002C01D02046EFE7284639
:1056E000FFF767FD0446002C01D02046E7E7284677
:1056F000FFF7F7FD0446002C08D02046DFE7000046
:105700000102000001030000387F01002846FFF776
:1057100056FE0446002C01D02046D0E72846FFF76D
:10572000B7FE0446002C01D02046C8E72846FFF704
:105730001DFF0446002C01D02046C0E70020BEE734
:1057400037B584B004460D462E20005D002802D1F6
:10575000082007B030BD0020009001900290039017
:10576000E18868460180039506A8029001216846F9
:105770008170A0886946A6DFEBE700008A88428234
:1057800070470022D24342827047F8B504460E4665
:10579000207D002820D0B51D2988608981421AD13A
:1057A000288B022817D12068002814D000BF00BF22
:1057B000A97EEA7E120211430846C107C90F0029DB
:1057C00002D00020009001E00120009069462046B0
:1057D0002268904700BF00BFF8BD70B505460C4673
:1057E0002088102804D0112807D050280FD109E0B4
:1057F00021462846FFF7C2FF0AE021462846FFF768
:10580000C0FF05E021462846FFF7BFFF00E000BFCC
:1058100000BF70BDF0B591B004460D46207D002854
:1058200019D00020099000BF08A8007901090901DA
:10583000491C08A801710079F0218843103008A99B
:10584000087100BF697B08A84171807906218843EF
:10585000801C08A988711C210AA802F00CF908A86C
:10586000007A02218843811C08A80172007A102165
:105870008843217D002901D0012100E00021090198
:1058800010221140084308A9087200200B900D90C7
:105890000E90207D002801D009A800E000200F9084
:1058A0000020109000BF01216846817377498181F3
:1058B00000BF00200290A97B68460172E97B41721B
:1058C000807A06218843811C68468172807A08218B
:1058D0008843014668468172807A102188430146D8
:1058E00068468172807A4108490068468172297B46
:1058F0000191142104A802F0BEF803A8049002A8A4
:1059000005900121684601830021418301218183A3
:1059100001A80890A088A31D04AA0AA9A2DF064630
:10592000002E02D0304611B0F0BDA86800284DD03E
:1059300000BF0121684681735549818100BF002065
:105940000290287C6946087200BF6846407A0109C7
:10595000090168464172407AF021884369464872DD
:1059600000BF6846807A06218843811C68468172A0
:10597000807A08218843014668468172807A102126
:105980008843014668468172807A4108490068462A
:105990008172A968FFF728FB0746142104A802F0CA
:1059A0006AF803A8049002A80590684607830021BE
:1059B0004183018B81830890E08822460E3204A93E
:1059C000A3DF0646002E03D03046ACE70020E0817E
:1059D0000020A8E7F8B504460D462868206000209E
:1059E000C043608228792075FF20207400BF012108
:1059F000684681702749018000BF221D6946012049
:105A0000A0DF0646002E01D03046F8BD29462046CC
:105A1000FFF700FFF9E733B585B004460025207C89
:105A20006946097E88422FD0012104916846007E94
:105A30002074E08806AB04AA0021A4DF0546002DEF
:105A400002D0284607B030BD608A1349884219D079
:105A5000207D002816D00020009001900290039035
:105A600001210491E18868460180012181700021B3
:105A7000818004A8029006A80390608A6946A6DF88
:105A8000054600E0082500BF2846DBE7192A00008C
:105A9000082900000F180000FFFF0000F8B50446B9
:105AA0005D4806686D46771BFF200130874200D9AC
:105AB00000E038460246294620468830FEF794FB2F
:105AC000F8BDF8B504460F46154662200090012047
:105AD000524908800846446045807F223946083094
:105AE00001F0CCFF00214D486830C1776838FFF7DE
:105AF000D5FF4B484069401C002808D001221207FE
:105B0000126991B2464A506901F0EEFF02E00120AD
:105B100000074069801EC6B240493046009A00F036
:105B200032F9F8BDF8B504466220009000253C48E3
:105B30004069401C002808D001221207126991B266
:105B4000374A506901F0D0FF02E0012000074069A8
:105B5000801EC6B26A462146304600F050F905461E
:105B6000052D01D10020F8BD002D01D02846FAE70F
:105B70002088002800D1F6E70E2001218140294A23
:105B8000916000BF00BF2088002803D0264800781D
:105B90000028F8D00E2001218140224AD16000BFA8
:105BA0001F484069401C002808D0012212071269D2
:105BB00091B21B4A506901F097FF02E001200007F3
:105BC0004069801EC6B2304600F0D0F8054628462F
:105BD000C9E7012014490870704738B500210091C9
:105BE00068460078002815D00C48FFF79BFF044654
:105BF00000BF002C01D0052C01D1012000E00020C5
:105C00000546002D05D100BF08A27C21FEF7A0FBB0
:105C100000BF00BF38BD000000400100B8230020D5
:105C20000010001000050050282000202E2E5C2EB1
:105C30002E5C2E2E5C2E2E5C2E2E5C536F757263A6
:105C4000655C626C655C626C655F6572726F725FE9
:105C50006C6F672E6300000070B503460C46002A87
:105C600001D1894D00E015882846002111E0051278
:105C700006023543A8B25D5C684005062D0F6840FA
:105C800005034540A8B205062D0D6D0068404D1C6A
:105C9000A9B2A142EBDB70BD02217C4A516000BF7A
:105CA0007B4909680029FBD07849886000BF7849A2
:105CB00009680029FBD00021744A516000BF744973
:105CC00009680029FBD070470122704B5A6000BF61
:105CD0006F4A1268002AFBD0016000BF6C4A12684C
:105CE000002AFBD00022694B5A6000BF684A126844
:105CF000002AFBD0704770B504460D4600E03DDF3A
:105D0000644800780028FAD101206049486000BF4B
:105D10005F4800680028FBD0256000BF5C48006831
:105D20000028FBD000205949486000BF584800684F
:105D30000028FBD070BD70B504460D4629462046AC
:105D4000FFF7D9FF002070BDF8B505460E4617468F
:105D5000002407E0A00031582846FFF7CCFF2D1D96
:105D6000601C84B2BC42F5DB0020F8BD70B504466F
:105D700001200007006980B2604305462846FFF70E
:105D80008BFF002070BDF7B584B0154601200007D9
:105D9000006980B20499484307463C46A9000022A6
:105DA0000598FFF759FF039020680190019880B291
:105DB000029003990298884202D1002007B0F0BDFA
:105DC0003846FFF769FF241D241D002607E0B200B6
:105DD000059881582046FFF777FF241D761CAE42B8
:105DE000F5DB2946381DFFF786FF2B49039808434A
:105DF000019038460199FFF77EFF0020DEE7F7B5F6
:105E000086B00746144601200007006980B2784337
:105E10000490049D286803900398000C00040190EE
:105E20001D490198884204D000202070052009B047
:105E3000F0BD2D1D287820702D1D20788000059044
:105E40002946059A0798FEF7CFF9207881000022AD
:105E50000798FFF701FF06460F4830430290039969
:105E60000298884201D00520E1E70020DFE70246E2
:105E700001200007006980B250430860002070478D
:105E80000449087070470000FFFF000000E5014072
:105E900000E40140292000200000DE45FEB5054653
:105EA0000E4614462078801C1F21081A80B20090EC
:105EB0002178891C881969466DDF019001980028B6
:105EC00001D00198FEBD2879002808D028796946BC
:105ED0000988884203DA28790090082700E009271A
:105EE00068460088401CC1B22278501C2070B15412
:105EF0002178481C2070775421786846008808185B
:105F000020700020DEE7F8B505460C462078001D1D
:105F10001F2801DD0C20F8BD684669DF0646002E0B
:105F200001D03046F7E703212278501C2070A95495
:105F300019212278501C2070A954207841196846F4
:105F4000008800F08BFA2178401820700020E2E7EA
:105F5000F8B505460F4616461C466868002801D16C
:105F60000720F8BD2078801C298840181F2801DDF3
:105F70000C20F6E72878401CC1B22278501C207013
:105F8000B1542178481C207077542A8823789819B6
:105F9000696801F011FD20782978401820700020F0
:105FA000DFE730B503461078C01C1F2801DD0C2048
:105FB00030BD02241578681C10704C550A241578E1
:105FC000681C10704C551578681C10704B550020DB
:105FD000EEE7FFB587B006461D46109C00200690F0
:105FE00020780590002747E0B900706841180A88BA
:105FF0006846028149884181002203A902A854DF32
:1060000004900498002802D004980BB0F0BD6846B4
:10601000017B099881422ED10698002801D00020EA
:1060200000E00220019020786946097B4118019820
:1060300008181F2801DD0C20E7E70698002809D181
:106040002078401C20702278511C08982170A85498
:10605000012006902078421903A902A854DF049079
:106060000498002801D00498CFE720786946097B7E
:106070004018207000BF7F1C3088B842B4DC0698FE
:10608000002806D021780598401C081AC1B205984E
:1060900029540020B9E7FFB581B0074615460A9E8E
:1060A000009602223846049B0299FFF792FF0446AD
:1060B000002C02D0204605B0F0BD009610222946E3
:1060C0003846049BFFF785FF0446002C01D020468C
:1060D000F1E70020EFE701460888062808DB08887A
:1060E0001922D201904205DD0888E14A904201D090
:1060F000072070474888062808DB48881922D20103
:10610000904205DD4888DA4A904201D00720F0E746
:106110000888D74A904208D04888904205D008881D
:106120004A88904201DD0720E3E70020E1E7F8B567
:1061300006460D4614462078801D1F2801D90C20E4
:10614000F8BD3046FFF7C7FF0746002F01D038469D
:10615000F6E705212278501C2070A95412212278DC
:10616000501C2070A95422785119308800F076F91B
:1061700021784018207022785119708800F06EF94B
:106180002178401820700020DAE7F8B505460E4661
:1061900014462879801CC7B22078801CC0191F289B
:1061A00001DD0C20F8BD781CC1B22278501C207093
:1061B000B154FF212278501C2070B15422789119DB
:1061C000288800F04BF9217840182070A888002812
:1061D0000EDDA868002801D10720E3E7AA8823780C
:1061E0009819A96801F0E8FB2078297940182070F7
:1061F0000020D7E7FEB507460E461446786B002808
:1062000001D10720FEBD0020019032E0796B0C2205
:10621000019850430D182879801CC0B20090009856
:10622000401CC1B22278501C2070B1541621227833
:10623000501C2070B15422789119288800F00EF972
:10624000217840182070A88800280EDDA868002852
:1062500001D10720D6E7AA8823789819A96801F008
:10626000ABFB20782979401820700198401CC0B2FF
:1062700001903820C15D01988142C7DC0020C1E750
:10628000F8B504460F4616460025002030702068F9
:10629000002809D0324639462046FFF7FFFD054663
:1062A000002D01D02846F8BD6079002808D031467D
:1062B0003846FFF728FE0546002D01D02846F2E7B4
:1062C000208900280BDD33463A460121204608305C
:1062D000FFF73EFE0546002D01D02846E3E7206982
:1062E00000280BD000202169085632463946FFF7B6
:1062F00058FE0546002D01D02846D4E7A08A002884
:106300000CDD3B4606220221204614300096FFF7A2
:10631000C2FE0546002D01D02846C4E7A08B002808
:106320000CDD3B460722032120461C300096FFF778
:10633000B2FE0546002D01D02846B4E7A08C002807
:106340000CDD3B4615221421204624300096FFF731
:10635000A2FE0546002D01D02846A4E7E06A0028E9
:1063600009D032463946E06AFFF7E1FE0546002DC6
:1063700001D0284697E7206B002809D032463946DD
:10638000206BFFF702FF0546002D01D028468AE763
:106390003820005D002809DD324639462046FFF7E7
:1063A00029FF0546002D01D028467CE728467AE7DC
:1063B00001460889002808D0C868002805D0C868A8
:1063C000007804221040002801D1072070470020E7
:1063D000FCE701460889002801DD072070470020FE
:1063E000FCE7F3B593B00D4600211291119113987B
:1063F000002814D01398FFF7DBFF0446002C02D0CE
:10640000204615B0F0BD12AA09A91398FFF738FF6E
:106410000446002C01D02046F3E709AE00E0002638
:10642000002D13D02846FFF7D4FF0446002C01D0DE
:106430002046E6E711AA01A92846FFF721FF0446F6
:10644000002C01D02046DCE701AF00E0002710A8B7
:1064500003793A46017A304662DFD2E702460A7093
:10646000FF20000210400012487002207047000018
:10647000FFFF000010B5002819DAFA4A03071B0FC6
:10648000083B9B089B00D2588307DC0EFF23A340E8
:106490009A438B071B0E8407E40EA3401A43F14B6B
:1064A0000407240F083CA408A4001A5118E0EE4A7F
:1064B00003231B02D21883089B00D2588307DC0EEB
:1064C000FF23A3409A438B071B0E8407E40EA340CF
:1064D0001A43E54B032424021B198408A4001A5113
:1064E00010BD10B50446E148846003211120FFF778
:1064F000C1FF10BD10B501200004DD494860DC4932
:1065000040394860112000F0DDFC112000F0CCFC87
:106510000120D84908602F20FDF726FE10BD10B5D8
:10652000112001218140D04A8032116000BF01203A
:106530000004CF498860CE49403988600120CD49A8
:1065400048602F20FDF710FE10BDF0B50246282050
:106550005043C94B1B68C118C8480068401C00283C
:1065600002D1C648026059E0C4488B6800682824FC
:106570006043C14C246800198068834217D8BF4823
:10658000006828235843BC4B1B68C01880688B6880
:10659000C31ABA48006828246043B74C246800191D
:1065A0008360B64800684862B448026036E08B6891
:1065B000B24D2C6828680DE028254543AE4E36685C
:1065C000AD19AD685B1B044628254543AA4E3668C5
:1065D000AD19686A451C002D07D028254543A64EF5
:1065E0003668AD19AD689D42E6D3451C002D0CD030
:1065F00028254543A04E3668AD19AD68EE1A28250A
:1066000045439D4F3F68ED19AE608B604862282579
:106610006543994E3668AD196A6200BFF0BD70B52A
:106620000246964C2168084609E0904200D109E0F4
:10663000014628244443904D2D686419606A441C27
:10664000002CF2D100BF441C002C00D170BD81424F
:1066500009D18A4C246828256C43874D2D6864191C
:10666000646A864D2C6028244443834D2D68641948
:10667000A36828244443804D2D686419656A282442
:106680004C437D4E3668A419656228244C437A4DEC
:106690002D686419606A441C002C0CD028244443E3
:1066A000754D2D686419A468E51828244443724E7A
:1066B0003668A419A56000BFC8E710B5112000F026
:1066C000FAFB10BD10B5142000F0F5FB10BD70B53D
:1066D00004466B480068002813D0694A216AE069C3
:1066E00012689047054600BF2E46002E07D000BF17
:1066F00064A2FF2155313046FDF72AFE00BF00BFDE
:1067000002E0E169206A884770BDF8B55B4800681F
:10671000401C00283AD0002700F006FC04466548DB
:106720000168204600F003FC06465448056811E065
:1067300028206843504909684418A068B04200D92D
:106740000BE0A068361AA068C719656A2046FFF7F3
:10675000BEFF00BF681C0028EAD100BF5648007881
:1067600056490978884209D154480078401CC0B283
:1067700052490870022801D1002008704F48007863
:1067800080004F490F50FFF79DFF00BFF8BD014645
:1067900049480078494A127890421DD0464800780E
:1067A000401C454A107010460078022801D1002094
:1067B0001070414800788000414A105808603D4AF6
:1067C0000868126880183B4A106010460068000292
:1067D000000A1060012070470020086000BFFAE73F
:1067E000FEB526480068019036480078009074E0B5
:1067F0000098C000344909684418257869E01820D9
:10680000684361680F18681CC5B2A078A84200D11F
:1068100000253868022802D0032857D10EE028212D
:1068200078684843144909684618307E002804D027
:106830007868FFF7F4FE0020307648E00CE00F495E
:106840000968282251430C4A1268881800210176F1
:106850000A4A416A116000BF08480068401C0028CD
:10686000EDD134E01CED00E000E100E00015014056
:106870004013014000100140302000203C20002047
:10688000502000202E2E5C2E2E5C2E2E5C2E2E5C98
:106890002E2E5C536F757263655C6170705F636F01
:1068A0006D6D6F6E5C6170705F74696D65722E6383
:1068B00000000000402000204C2000204D2000203F
:1068C00044200020342000203820002000BF00BFDA
:1068D00000BF6078A84292D100BF0098411EC9B2A3
:1068E0000091002884D1FE4801680198814201D0BE
:1068F0000120FEBD0020FCE7F0B50346002426E0A1
:10690000F74E366828277E43F64F3F68F0198668B1
:106910009E4203D98668F61A86601DE086689B1B36
:1069200086683419002686600676ED4E3568EC4F91
:10693000466A3E604669002E08D00E193602360AB5
:10694000C6604669066116684662156000BFE44885
:106950000068401C0028D3D100BFF0BDFEB507463B
:10696000DF4800680290E048007801906BE00198F1
:10697000C000DE49096845185DE0781C002807D092
:106980003E4628207043D74909684418676A23E0C7
:106990002978182359436A6850182978491C2970A6
:1069A0002978AA78914201D10021297046682821CE
:1069B0007143CC4A12688C180168012902D1217EEA
:1069C000002900D037E08168E160C1682161016978
:1069D00061614169216200BFC549E0680968401AE8
:1069E0000002000AC349884208D2C149E068096828
:1069F00000F09DFA21694018A06011E0BC48E168F0
:106A0000006800F094FA009021690098814204D94E
:106A100021690098081AA06001E00020A06000BF72
:106A20000020E060206101202076801E60623046F8
:106A3000FFF78BFD00BF781C00289ED1287869786D
:106A400088429AD100BF0198411EC9B20191002825
:106A50008DD1A34801680298814201D00120FEBD7A
:106A60000020FCE7FEB505469D480068401C002854
:106A700035D09B480068282148439A490968401846
:106A8000866800F051FA02909948046821460298FD
:106A900000F04DFAC01C0190681C002801D1FFF7DE
:106AA00029FD0198B04201D2304600E00198041956
:106AB0002402240A20469049086000BF00F034FAFE
:106AC00000900299009800F032FAC71C2046029903
:106AD00000F02DFA874201D9FFF7EFFD01E0FFF743
:106AE0001EFDFEBDFEB50020C04301908048046835
:106AF0007B4807686846FFF74AFE0546FFF770FEC9
:106B00000646002D05D001AA21460098FFF7F4FEA5
:106B100001260198FFF722FF002800D00126002E51
:106B200002D03846FFF79EFFFEBD4170704770B53A
:106B300002460B465078411C9078884200D10021D3
:106B40001078884201D1002070BD19605078182655
:106B5000704355682C182046F6E7FFB581B005460E
:106B60000E461746E900614A126888186946FFF721
:106B7000DEFF0446002C02D1042005B0F0BD012048
:106B80002060666000F0D0F9A060E76004982061A2
:106B90000A986061E900554A126888180099FFF761
:106BA000C4FFFFF78FFD0020E7E7F8B504460E4667
:106BB000E1004E4A126888186946FFF7B8FF05469B
:106BC000002D01D10420F8BD022028606E60E10094
:106BD000464A126888180099FFF7A7FFFFF772FD71
:106BE0000020F0E738B50446E100404A12688818F2
:106BF0006946FFF79CFF0546002D01D1042038BDF2
:106C000003202860001F6860E100384A1268881875
:106C10000099FFF78AFFFFF755FD0020EFE710B559
:106C20000020364908600021344841608160C1601D
:106C300000203249403908604860FFF766FD10BD0A
:106C400010B5FFF74FFF10BDFFB581B00E461746D8
:106C50001C4620468107890F002901D1012100E04F
:106C60000021002902D1072005B0F0BD002C01D180
:106C70000720F9E7FFF753FC21490A9808602148EB
:106C800006701848046000250CE0002128206843A5
:106C9000144A1268115028206843124A126880185A
:106CA00001766D1CB542F0DB2820704304190320E7
:106CB0000D4908700D480460183400250CE0E90007
:106CC0000A4A126888180021017041708770446078
:106CD000182179430C196D1C032DF0DB002013E003
:106CE0003C200020302000203420002038200020CC
:106CF00040200020FFFF7F0040150140401101406F
:106D0000502000202C200020C0438B490860002028
:106D10008A4908708A490870142000F0D3F80321CA
:106D20001420FFF7A7FB142000F0BEF80198FFF72E
:106D3000D8FB00F0F9F883490860002094E770B5AB
:106D400003460C4680480068002801D1082070BD29
:106D5000002A01D10720FAE7002B01D10720F6E72E
:106D600000211CE028204843774D2D682858002832
:106D700014D1012528204843734E36683550282009
:106D80004843714D2D6840194460282048436E4D9A
:106D90002D684019C26119600020D8E7491C6B4872
:106DA00000788142DEDB0420D1E710B500F092F8D4
:106DB000012802D0032804D101E0002403E00124CB
:106DC00001E0022400BF00BF204610BDFEB504460E
:106DD0000D4616465C480068002801D10820FEBD1B
:106DE0005A480078844201D2052D01D20720F6E7E7
:106DF00028206043544909680858012801D0082018
:106E0000EDE7282060435049096840184068012890
:106E100001D1284600E000200746FFF7C6FF3B46A9
:106E20002A46214600960190FFF797FED7E770B5F6
:106E3000044645480068002801D1082070BD434839
:106E40000078844201D30720F8E7282060433E49B8
:106E500009680858012801D00820EFE7FFF7A5FFCF
:106E600005462146FFF7A1FEE8E710B53648006861
:106E7000002801D1082010BDFFF797FF0446FFF757
:106E8000B1FEF8E710B5044600F04EF8206000208F
:106E900010BD70B505460E4614463146284600F032
:106EA00046F82060002070BDC206D20E012191403C
:106EB000274A11607047C206D20E01219140254A2F
:106EC00011607047C206D20E01219140214A8032E2
:106ED0001160704710B520484068C105C90D0029F0
:106EE00020D00A46103A104600280DDA1A4B1C33FF
:106EF0000407240F083CA408A4001B598407E40ECF
:106F0000E3401B069B0F0BE0114B032424021B19CB
:106F10008408A4001B598407E40EE3401B069B0F62
:106F2000D8B210BD0420FCE70C4840687047024608
:106F3000501A0002000A70473C2000204C2000201C
:106F40004D20002040200020302000202C20002058
:106F500000E100E000E200E000ED00E0001501408B
:106F600001464888B74A1288904206DB4888B54AED
:106F70005288904201DC012070470020FCE738B5C0
:106F80000546B1480088B14988423BD0B0480078F6
:106F9000401CAF490870AF48007B097888420FDB7E
:106FA000A849A948008865DF0446002C07D0A948F5
:106FB0008069002803D0A74881692046884721E0DE
:106FC0000020A3490870A348007C00280FD03B2173
:106FD0009D48008866DF0446002C07D09D488069E4
:106FE000002803D09B4881692046884700BF994804
:106FF0004069002806D00020009096484169684604
:10700000884700BF38BD70B505461C222946914807
:10701000FDF7EAF8002090490870286800280BD096
:1070200008228848296800F0C7FC86486ADF0446C1
:10703000002C08D0204670BD82486BDF0446002C2F
:1070400001D02046F7E70020C0437F490880002098
:107050007F490870814A00218148FFF770FEEAE706
:1070600010B57F480068FFF7E2FE10BD38B57D48D7
:10707000FFF776FF002829D17748007800280AD04A
:1070800074484069002820D0002000907148416970
:107090006846884719E06E480078002802D16D489C
:1070A000456801E06B488568002229466C48006805
:1070B000FFF78CFE0446002C07D066488069002844
:1070C00003D064488169204688470AE061484069E6
:1070D000002806D0012000905E4841696846884734
:1070E00000BF00205C49087038BD10B50446A08878
:1070F00055490880082221460E315A4800F05CFCB0
:107100000020534908705348C089002801D1FFF777
:10711000ADFF10BD70B505460020C0434A49088048
:1071200000204B4908704E480068FFF780FE044677
:10713000002C07D047488069002803D04548816962
:107140002046884770BD70B50546AC1D2088414972
:10715000C989884220D1208B02281DD100BF00BFE1
:10716000A17EE27E120211430846C107C90F002921
:1071700002D0FFF77BFF0FE039480068FFF757FEAA
:107180000646002E07D033488069002803D03148D6
:1071900081693046884700BF70BD10B5044608229B
:1071A000A11D304800F008FCFFF760FF10BD10B5CE
:1071B00004462088102806D0112808D012280ED0A6
:1071C000502810D107E02046FFF78FFF0CE0204643
:1071D000FFF7A0FF08E02046FFF7B5FF04E02046D8
:1071E000FFF7DBFF00E000BF00BF10BD38B504466D
:1071F00008222146134800F0DFFB12486ADF0546EB
:10720000002D1CD11748FFF7ABFE00280BD1012041
:10721000114908700B490C48008865DF05460120BC
:107220000B4908700BE00B484069002806D001208C
:107230000090084841696846884700BF00252846F5
:1072400038BD0000542000205E200020FFFF000019
:107250005C200020402500206C2000207F6F010072
:10726000682000206020002070B506460C461546B8
:1072700029462046FDF77CF870BDFFB581B00C466D
:1072800016461F4620468107890F002901D101219A
:1072900000E00021002902D1072005B0F0BD002C3C
:1072A00001D10720F9E725480460254806802548D4
:1072B000076025490A9808602449019810DF0546AF
:1072C000002D01D02846E8E7162023DFE5E738B592
:1072D00000BF1B480088009069461848006850DFCE
:1072E0000446052C00D10EE0002C06D000BF18A2E9
:1072F0005F212046FDF72CF800BF104800681149B7
:1073000009688847E5E700BF38BD70B50E480068DA
:10731000002810D00C4800688047044600BF25466E
:10732000002D06D000BF0AA271212846FDF710F8F3
:1073300000BF00BF01E0FFF7CAFF70BD782000204A
:107340007C20002070200020742000206972010041
:107350002E2E5C2E2E5C2E2E5C2E2E5C2E2E5C5342
:107360006F757263655C626C655C626C655F73749B
:1073700061636B5F68616E646C65722E6300000010
:1073800005460C4616467F2231460B4800F076FB38
:10739000002109486030C17708490C800848056021
:1073A000084600880648006872B6A2B231462846F0
:1073B000FEF787FB00BFFEE75C2500208020002051
:1073C0008420002000BF424880680128FBD10020B3
:1073D0003F4988603F488069C0B2704770B5044635
:1073E0000D4601260AE02046641E002804DB7D20AD
:1073F000C000FCF7C9FE01E0002603E034488068C5
:107400000128F0D100BF002C05DB00203049886046
:10741000304880692870304670BD2E49C86100BF71
:107420002B49C9690129FBD10021294AD161704743
:1074300030B50346002528466D1C1C5C05E020463F
:10744000FFF7EBFF28466D1C1C5C002CF7D130BD0C
:10745000F8B507460C4615461E46204600F025F8AE
:107460000021304600F02AF81A48C46046610698A8
:1074700000280DD0384600F018F80021284600F00A
:107480001DF8144805618760012012494031C86227
:107490001148104948620420086001200F498860A3
:1074A000086000200A498860F8BD01210522120702
:1074B00007231B02D2188300D150704710B58A00F1
:1074C00005231B07072424021B1984001A5110BD31
:1074D000002100400025004000509D000020004099
:1074E00070B505460C461646072C19D82846682163
:1074F00008430121A140090208433D494860012099
:107500000860002E0CD03B4948600121072000F0A4
:1075100038F8072001218140374A116000BF00BFC1
:1075200070BD1A203249486001200860704701216F
:10753000324A116000BF324909680029FBD000219E
:107540002F4A11602A4988687047F8B5FFF7EFFFA6
:10755000074600F055FC06462A4900F093FC054614
:10756000294900F08FFC04468921C90500F06CFB15
:10757000F8BD00B5FFF7DBFFE12109014843800AB0
:1075800000BD10B5002819DA204A03071B0F083B7D
:107590009B089B00D2588307DC0EFF23A3409A432D
:1075A0008B071B0E8407E40EA3401A43174B0407F6
:1075B000240F083CA408A4001A5118E00E4A032323
:1075C0001B02D21883089B00D2588307DC0EFF23CE
:1075D000A3409A438B071B0E8407E40EA3401A4373
:1075E000054B032424021B198408A4001A5110BD62
:1075F000007500400073004000E100E000700040B2
:1076000000710040000040409A99993F1CED00E055
:1076100070B500BF01204006CD49886000BF00BFA3
:107620004010886000BF0420FCF7BEFDC848006918
:107630008001C00F002807D0C5480069C001C00FF5
:10764000002801D0012428E0C1480069C001C00F12
:10765000002821D00024122519E000BF01200006D7
:10766000BB49C86000BF0420FCF79EFD00BF01209D
:107670000006B749886000BF0420FCF795FDB448B8
:1076800000698001C00F002801D0012403E02846D2
:107690006D1E0028E1D100E00024204670BD10B529
:1076A00000BFAC4805210907072212028918486665
:1076B00000BF00BF052109078918086600BF00BF89
:1076C00001200006A249886000BF00BF886100BF9A
:1076D00000BF4000886000BF00BF886100BFFFF7A7
:1076E00097FF10BD10B500BF0120000698498860C3
:1076F00000BF0420FCF758FD00BF95480069C00199
:10770000C00F0028F9D0012010BD10B500BF012026
:1077100040068F49C86000BF0420FCF745FDFFF715
:10772000E1FF002800D110BD00BF012040068849BC
:10773000886000BF0420FCF737FD0120F3E770B537
:107740000646012400BF60068149886100BF80258C
:107750001FE000BF012000067D49C86000BF042073
:10776000FCF722FD30462840002805D000BF01204C
:1077700040067749886005E000BF01204006744953
:10778000C86000BFFFF7AEFF002801D1002402E06F
:107790006D08002DDDD100BF00BF012000066C493F
:1077A000C86000BF0420FCF7FFFC00BF01204006BA
:1077B0006749C86100BF0420FCF7F6FCFFF792FFA1
:1077C000044063480069400E01214840044000BF66
:1077D00008065F49C86000BF0420FCF7E5FC00BF55
:1077E000012040065A49886100BF204670BDF8B5A7
:1077F00005460E4600270120009000BF4006544970
:10780000C86100BF802418E0FFF76CFF002801D199
:10781000009014E04E4800698001C00F002802D09B
:1078200038462043074600BF012000064849C8608B
:1078300000BF0420FCF7B8FC6408002CE4D100BFB2
:1078400000BF012040064249886100BF2F70002E12
:1078500002D000BFC86005E000BF012040063C49DF
:10786000886000BF0420FCF79FFCFFF73BFF002867
:1078700000D1009000BF012000063549C86000BF5C
:107880000420FCF791FC0098F8BD10B500BF012062
:1078900040062F49886000BF0420FCF785FCFFF7F5
:1078A00021FF002800D110BD00BF0120400628495B
:1078B000C86000BF0420FCF777FC00BF0120000671
:1078C0002349C86000BF0420FCF76EFC0120EAE7F2
:1078D000FFB581B007460D4616460124FFF7D5FFD8
:1078E00004403846FFF72BFF0440F807C00F00287C
:1078F00016D00DE0002E05D100212846FFF777FFB6
:10790000044004E001212846FFF771FF04406D1C8C
:107910003046711ECEB200280FD0002CEAD10CE008
:1079200004E02878FFF70BFF04406D1C3046711E01
:10793000CEB2002801D0002CF3D10498002801D148
:10794000002C02D1FFF7E1FE0440204605B0F0BD57
:10795000000500500C06000001B505E00098401E2F
:1079600000900348FCF730FC00980028F6D108BDD1
:10797000E703000030B5441C03E00178401C0029F7
:107980000DD08107F9D10B4BDD0104C8D11A914309
:107990002940FAD0001B0A0603D0C01E30BD001BD0
:1079A00030BD0A0401D0801E30BD0902FCD0401E4B
:1079B00030BD000001010101F8B5042A2CD3830772
:1079C00012D00B78491C0370401C521E83070BD049
:1079D0000B78491C0370401C521E830704D00B789F
:1079E000491C0370401C521E8B079B0F05D0C91AFF
:1079F000DF002023DE1B08C90AE0FCF7F5FBF8BD19
:107A00001D4608C9FD401C46B4402C4310C0121F3F
:107A1000042AF5D2F308C91A521EF0D40B78491C77
:107A20000370401C521EEAD40B78491C0370401CA2
:107A3000012AE4D409780170F8BD01E004C0091FEF
:107A40000429FBD28B0701D50280801CC90700D016
:107A50000270704700290BD0C30702D00270401C8F
:107A6000491E022904D3830702D50280801C891E87
:107A7000E3E70022EEE70022DFE70000F8B5074663
:107A80000B4639461943890713D1164CE601042ADF
:107A90000FD302CB0D1B8D43354202D102C0121F02
:107AA000F5E7CBB20370401C521E002B13D0090A1D
:107AB000F7E7002A14D01978521E5B1C0170401C95
:107AC000002908D0002A0BD01978521E5B1C0170C7
:107AD000401C0029EDD1002A02D01146FFF7C9FF52
:107AE0003846F8BD01010101002203098B422CD365
:107AF000030A8B4211D300239C464EE003460B43FE
:107B00003CD4002243088B4231D303098B421CD35F
:107B1000030A8B4201D394463FE0C3098B4201D351
:107B2000CB01C01A524183098B4201D38B01C01A89
:107B3000524143098B4201D34B01C01A5241030900
:107B40008B4201D30B01C01A5241C3088B4201D3AF
:107B5000CB00C01A524183088B4201D38B00C01A5C
:107B6000524143088B4201D34B00C01A5241411A83
:107B700000D201465241104670475DE0CA0F00D066
:107B80004942031000D34042534000229C4603095F
:107B90008B422DD3030A8B4212D3FC22890112BAE5
:107BA000030A8B420CD3890192118B4208D38901BD
:107BB00092118B4204D389013AD0921100E08909D5
:107BC000C3098B4201D3CB01C01A524183098B42B6
:107BD00001D38B01C01A524143098B4201D34B019F
:107BE000C01A524103098B4201D30B01C01A524102
:107BF000C3088B4201D3CB00C01A524183088B4289
:107C000001D38B00C01A5241D9D243088B4201D311
:107C10004B00C01A5241411A00D2014663465241FC
:107C20005B10104601D34042002B00D549427047FB
:107C300063465B1000D3404201B50020C046C046F9
:107C400002BD70477047704770B5FF242404C60911
:107C5000FF25264001352E43C209CB0905462240A7
:107C600023404D40002A6BD0002B69D0A24267D040
:107C7000A34265D0002D00DA32460124E4052143F9
:107C8000204309020002090AD21A000A4B0C7F2481
:107C9000E31A434C7C44E35C7D242404121914143D
:107CA0005B00A218884201D3521C00E04000494208
:107CB0000C465C4324115C43DB016415E318040AA1
:107CC0005C43C502200D0C4644436419250A5D43FC
:107CD0002303EC0C0D46654300030019EB184C42DE
:107CE000A34201D35B18401CD4052018002B07D0F9
:107CF0005B00C91804D3401C002901D14008400092
:107D00003F2189048A4209D3002A08DC1106090FA1
:107D100004D0032149074018C00FC00770BD0122DD
:107D20004100120689187F2252069142F6D205219F
:107D30004907C84201D5901070BDFF20C00570BD35
:107D4000002D00DA3246174EA24207D2A34205D2D6
:107D50001802000E17D0E80FC00770BDFF244300C3
:107D60002406A34216D84900A14213D8A34201D148
:107D7000A1420FD0A14201D1002101E041004908F8
:107D8000D005084370BD1002000E03D0FF2002434F
:107D9000D00570BD304670BD48404140484053E773
:107DA000B00200000000C07F1F22030C02D10F228E
:107DB00000041CD0030E01D10002083A030F01D1C8
:107DC0000001121F830F01D18000921E002801DBE9
:107DD0004000521ED205511802125118192290402B
:107DE00004D3491C002801D14908490008467047BE
:107DF000C10FC90700D04042012292071143D3E7C7
:107E000001218907D0E7754600F022F8AE4605004B
:107E100069465346C008C000854618B020B5FCF737
:107E20000FFA60BC00274908B6460026C0C5C0C589
:107E3000C0C5C0C5C0C5C0C5C0C5C0C5403D49005E
:107E40008D4670470446C046C0462046FCF785F97B
:107E500000487047DC25002001491820ABBEFEE732
:107E600026000200704730B47446641E2578641CF6
:107E7000AB4204D3635D5B00E31830BC18471D467A
:107E8000F8E7000070B5420064414B005C41120EFF
:107E900039D01B0E38D0FF2A3CD0FF2B3AD04002FD
:107EA0004902400A490A060045184E43000A090AD9
:107EB000D2184843ED017F3A0104731A4019190C96
:107EC0004318990F04D001215B0849075B1A521C23
:107ED000D80904D3401CF50301D19D0607D0FF2A21
:107EE00008D2D50506D0E4072043401970BD01250E
:107EF000A843F4E7002A01DCE00770BD2402FF205C
:107F00002043C00570BD1B0EFF2A03D0FF2B01D0FC
:107F1000E00770BDFF2645003606B54206D84D0085
:107F2000B54203D8D218FF2A00D0E7E7004870BD59
:107F30000000C07F010000009ECADC240EE5A9E01D
:107F400093F3A3B50000406E818283848586878881
:107F5000898B8C8D8E8F919293959697999A9C9DF3
:107F60009FA0A2A3A5A7A8AAACAEB0B2B3B5B7B95B
:107F7000BCBEC0C2C5C7C9CCCED1D4D7D9DCDFE224
:107F8000E6E9ECF0F3F7FAFEA87F010000200020FC
:107F9000880000000441010030800100882000209A
:107FA000B8150000204101000024F400000000008A
:107FB00000000000000000000000000000000000C1
:107FC00000000000000000000000000000000000B1
:107FD00000000000000000000000000000000000A1
:107FE0000000000000000000000000000000000091
:107FF0000000000000000000000000000000000081
:108000000000000000000000000000000000000070
:108010000000000000000000000000000000000060
:108020000000000000000000000000000000000050
:04000005000140C1F5
:00000001FF
