:020000040001F9
:104000000836002021420100334201003542010000
:1040100000000000000000000000000000000000A0
:104020000000000000000000000000003742010016
:104030000000000000000000394201003B42010086
:104040003D4201003D420100234801003D42010084
:104050003D420100000000003D4201003D420100E0
:104060003D4201003D4201003D4201003D42010050
:104070003D4201003D4201003D4201003D42010040
:104080003D420100F36201003D4201003D4201005A
:10409000156301003D420100DF6901003D4201005E
:1040A0003D4201003D420100000000000000000010
:1040B0000000000000000000000000000000000000
:1040C00000F002F800F040F80CA030C808382418BE
:1040D0002D18A246671EAB4654465D46AC4201D140
:1040E00000F032F87E460F3E0FCCB6460126334232
:1040F00000D0FB1AA246AB4633431847286600009F
:1041000048660000103A02D378C878C1FAD852073E
:1041100001D330C830C101D504680C60704700007D
:104120000023002400250026103A01D378C1FBD8D3
:10413000520700D330C100D50B6070471FB5C04691
:10414000C0461FBD10B510BD06F009FA1146FFF7B5
:10415000F5FF00F068FC06F021FA03B4FFF7F2FF68
:1041600003BC06F025FA0000401E00BF00BF00BFE0
:1041700000BF00BF00BF00BF00BF00BF00BF00BF47
:1041800000BFF1D170470000401E00BF00BF00BF5C
:1041900000BF00BF00BF00BF00BF00BF00BF00BF27
:1041A00000BFF1D170470000401E00BF00BF00BF3C
:1041B00000BF00BF00BF00BF00BF00BF00BF00BF07
:1041C00000BFF1D170470000401E00BF00BF00BF1C
:1041D00000BF00BF00BF00BF00BF00BF00BF00BFE7
:1041E00000BFF1D17047000070B505460C46164679
:1041F00002E00FCC0FC5103E102EFAD2082E02D3CB
:1042000003CC03C5083E042E07D301CC01C5361FDD
:1042100003E021782970641C6D1C761EF9D270BDF4
:104220000A4802680F210A4302600948804709488A
:104230000047FEE7FEE7FEE7FEE7FEE7FEE70000D9
:1042400005480649064A074B704700002405004010
:104250000D430100C140010008260020083600205F
:10426000082E0020082E002032483349086070478D
:104270003248008CC0B2012812D13048808C00072F
:10428000000F00280CD12D48806AF02108404028FA
:1042900006D12A48C06A0840002801D10120704791
:1042A0000020FCE72548008CC0B201282CD123480F
:1042B000808C0007000F002826D12048806AF0215A
:1042C0000840002806D11D48C06A0840002801D1D6
:1042D000012070471948806AF0210840102806D153
:1042E0001648C06A0840002801D10120F1E71348B0
:1042F000806AF0210840302806D11048C06A084082
:10430000002801D10120E4E70020E2E710B5FFF723
:10431000C9FF002805D00A480A494860C8130A495D
:104320008861FFF7A5FF002802D0012007498860B7
:1043300010BD00000024F40000200020C00F00F099
:10434000DFFF07C000050040006C00400006004091
:1043500004460D4616460F2000F059FC3246294609
:10436000204602F077FB00BFBFF34F8FF648F749B6
:10437000C860BFF34F8F00BF00BFFEE704460D4685
:104380002A462146F248FFF7E3FF00BF00BF0320A3
:1043900005210907072212028918086200BF00BF21
:1043A00000BF00BF052109078918486200BF00BF90
:1043B00000BF00BF052109078918C86300BF00BFFF
:1043C00000BF00BF052109078918886200BF00BF30
:1043D000704738B500BF0020DE4B05220221009057
:1043E00001F09CFF044600BF2546002D05D000BF0C
:1043F000D9A2BF212846FFF7ABFF00BF00BF38BDE1
:104400003EB500BF6846007801090901491C0091CA
:1044100068460078F02188431030009000BF0822E1
:10442000D0A168466CDF044600BF2546002D05D0AC
:1044300000BFC9A2D6212846FFF78AFF00BF00208F
:10444000019002901021684681802821C1800021BE
:104450000181FF219131418101A86ADF044600BF3B
:104460002546002D05D000BFBBA2E0212846FFF75E
:104470006FFF00BF3EBD30B5A1B005210291002005
:10448000BB490870BB4800680190BB48017868468A
:1044900081713C2112A805F09AFE022012900021A1
:1044A00010A841730121018202A915913C2103A8A2
:1044B00005F08DFE01216846018501A90B9103A934
:1044C00012A801F0F8FA044600BF2546002D05D0D9
:1044D00000BFA1A2FF212846FFF73AFF00BF21B08D
:1044E00030BD10B50B78A54C23704B78637010BDB0
:1044F00070B5A34800210160A248A14908609E4808
:1045000000F0D4FD044600BF2546002D06D000BFB4
:1045100091A2FF2116312846FFF71AFF00BF70BD98
:104520001E20994908800846807840084000401CB9
:10453000887008468078022188439349887008462D
:1045400080781C2188430C308F4988700846807819
:10455000202188438C4988700720C870102008717A
:10456000704770B505462868002810D13B21874860
:10457000008866DF044600BF2646002E06D000BF36
:1045800075A2FF2139313046FFF7E2FE00BF70BD52
:10459000044600BF70A2FF2144312046FFF7D8FE39
:1045A00030B587B01C21684605F011FE0020009050
:1045B0000520400401908010029003216846017399
:1045C0000021C181017472480590724806906846C6
:1045D00002F083F8044600BF2546002D06D000BF38
:1045E0005DA2FF215B312846FFF7B2FE00BF07B096
:1045F00030BD704730B585B01421684605F0E7FD41
:104600000021684601700020019068460172402137
:104610000182B421418263DF044600BF2546002D9C
:1046200006D000BF4CA2FF217C312846FFF790FE48
:1046300000BF082000F0EBFA05B030BDF8B5044625
:1046400000252088142838D006DC10280BD011282B
:1046500013D0132869D11CE0172828D0192840D07E
:10466000522862D11CE0092000F0D1FA082000F0A5
:10467000D3FAA0884549088058E0092000F0CCFA18
:104680000020C04341490880002D01D1FFF7B2FF4F
:104690004CE03D4A00213D4800886FDF054645E07B
:1046A0000022114639480088A9DF05463EE0322243
:1046B000A11D394805F02CFD38E0374EB61D318874
:1046C000E089814206D1002231463048008871DFFE
:1046D000054605E0002211462C48008871DF05469A
:1046E00024E0A07900281FD1082000F095FA00BF2F
:1046F00000BF0320000405210907072212028918C0
:10470000C86200BF00BF1A480078142807DAFFF714
:1047100071FF17480078401C1549087004E000201C
:104720001349087031DF054600E000BF00BF00BF3D
:104730002F46002F06D000BF07A2FF21DF313846E9
:10474000FFF706FE00BFF8BD0400FA0500ED00E02B
:10475000EFBEADDED42000202E2E5C6D61696E2E82
:1047600063000000547269617869616C00000000A8
:10477000142000208CA601009C2000200C2000208A
:104780001C200020E3440100042000200A20002017
:104790006345010091450100EC22002010B504465C
:1047A000204602F06EF82146FE4800F066FB2046E7
:1047B000FFF744FF10BD38B500BF0020FA4B502270
:1047C000FA4900900D2002F0C2F8044600BF2546C9
:1047D000002D06D000BFF64AFF21FA312846FFF728
:1047E000B7FD00BF00BF38BD00BF00BF03200004FD
:1047F00005210907072212028918C86200BF00BFFD
:10480000704770B53DDF044600BF2546002D06D039
:1048100000BFE74A832189002846FFF799FD00BFC2
:1048200070BD70B502F038F9E249E34A1278885455
:104830000846E1490978405C0A2803D0DE48007840
:10484000142818DBDC480278DA49D64800F069FC05
:104850000446082C0BD000BF2546002D06D000BF13
:10486000D34A4521C9002846FFF772FD00BF00204A
:10487000D149087004E0D0480078401CCE49087047
:1048800070BD10B508200F2108E0012205231B0789
:10489000072424021B1984001A51401C8842F4D9B1
:1048A00000BF00220221104600F0C6F910BD10B56D
:1048B0001920C24908701820487001230222D02014
:1048C00002F0E6FA1A20BD49087001204870012361
:1048D0000222D02002F0DCFA1B20B8490870022026
:1048E000487001230222D02002F0D2FA1C20B349E2
:1048F00008700820487001230222D02002F0C8FA74
:104900002320AE4908700020487001230222D020E5
:1049100002F0BEFA3720A94908700220487001232E
:104920000222D02002F0B4FA3820A44908700020F6
:10493000487001230222D02002F0AAFA6A209F497F
:1049400008700020487001230222D02002F0A0FA53
:104950006B209A4908700020487001230222D02061
:1049600002F096FA10BD10B5044694480470012375
:104970001A460146D02002F08BFA012306228F4905
:10498000D12002F085FA8D49087800F014FA8C499C
:1049900008708A49087800F01DFA894948708749EB
:1049A000487800F008FA864988708449487800F011
:1049B00011FA8349C8708149887800F0FCF9804970
:1049C00048717E49887800F005FA7D4988717B49F5
:1049D000C87800F0F0F97A49C8717849C87800F0D1
:1049E000F9F9774908727549087900F0E4F97449D2
:1049F00088727249087900F0EDF97149C8726F49FF
:104A0000487900F0D8F96E4908736C49487900F08C
:104A1000E1F96B4948733B20087148720E226148E6
:104A200000F07FFB10BDFFB0FFB09AB0FFF7ADFC08
:104A3000FFF7CFFCFFF7D8FEFFF7BDFEFFF7E0FC66
:104A4000FFF756FDFFF717FDFFF7AAFDFFF768FD1B
:104A500000220321012005F02DFA02F000F9FFF7F2
:104A600026FFFFF7C6FDFFF7C5FDFFF70AFFFF2092
:104A7000F53002F09FF88BA9002003F081FDFFAA1A
:104A8000603201A94FA004F077FA05464EA004F069
:104A9000BFFB002D02D00F2000F0B9F811224DA16C
:104AA00002A803F083FD0546002D02D00F2000F080
:104AB000AEF802A804F0D6F800BFFFF7A2FE4848FF
:104AC0000078022806D0032818D0052822D006280E
:104AD00013D12BE03B20FFF746FF41484478642187
:104AE0004C4300E0641E002CFCDC0E2234492D48AF
:104AF00000F017FB00203A49087087E04320FFF7D9
:104B000032FF0E222E49274800F00BFB00203449CB
:104B100008707BE04120FFF726FF04222849214846
:104B200000F0FFFA00202E4908706FE000F0ABF8AB
:104B30002C4908600968080E00F03DF9204908700A
:104B400028490968080E00F045F91D4948702549B3
:104B50000968FF2212041140080C00F02CF91849D2
:104B6000887020490968FF2212041140080C00F0E7
:104B700031F91349C8701B490968FF22120211401C
:104B8000080A00F018F90E49087116490968FF2251
:104B900012021140080A00F01DF909494871114933
:104BA000087821E09C2000209D4701002023002060
:104BB0005847010070230020202000200E200020F4
:104BC000B8200020303A0000436F7261546573745E
:104BD00000000000696E666F2E747874000000009B
:104BE0000C2000201820002000F0E5F80D49887105
:104BF0000D49087800F0EEF80A49C87108220B4800
:104C000000F08FFA00200A49087000BF55E7012123
:104C10008140084A9160704701218140054AD16076
:104C200070470000B8200020182000209C200020A1
:104C30000C2000200005005070B505460C461646B5
:104C4000072C19D82846682108430121A1400902F0
:104C500008433D49486001200860002E0CD03B49C4
:104C600048600121072000F038F807200121814029
:104C7000374A116000BF00BF70BD1A20324948603A
:104C80000120086070470121324A116000BF32499B
:104C900009680029FBD000212F4A11602A49886841
:104CA0007047F8B5FFF7EFFF074605F055FC0646DD
:104CB0002A4905F093FC0546294905F08FFC044676
:104CC0008921C90505F06CFBF8BD00B5FFF7DBFFD6
:104CD000E12109014843800A00BD10B5002819DA16
:104CE000204A03071B0F083B9B089B00D2588307F1
:104CF000DC0EFF23A3409A438B071B0E8407E40EB0
:104D0000A3401A43174B0407240F083CA408A4002F
:104D10001A5118E00E4A03231B02D21883089B0085
:104D2000D2588307DC0EFF23A3409A438B071B0E48
:104D30008407E40EA3401A43054B032424021B19E5
:104D40008408A4001A5110BD007500400073004093
:104D500000E100E0007000400071004000004040B1
:104D60009A99993F1CED00E0F8B505460E460024DF
:104D700032782146641C6A5472782146641C6A5455
:104D800000BF022C01D1012000E000200746002FC7
:104D900005D100BF16A21B21FFF7DAFA00BF00BF42
:104DA0002046F8BD70B504460D46284605F08EF93C
:104DB0002080656070BD0246114609110907090F80
:104DC000092903DD08463730C0B270470846303045
:104DD000C0B2FAE7024611460907090F092903DDA7
:104DE00008463730C0B2704708463030C0B2FAE7E4
:104DF0002E2E5C2E2E5C2E2E5C2E2E5C2E2E5C53C8
:104E00006F757263655C626C655C626C655F73652F
:104E10007276696365735C626C655F7372765F63FB
:104E20006F6D6D6F6E2E63008A88828270470022DC
:104E3000D2438282704770B504460E46B51D29885C
:104E4000208A81420BD1288B022808D1688B012847
:104E500002D10121A17501E00021A1750CE0288893
:104E6000A188884208D1A069002805D02A8B29464C
:104E70001A312046A369984770BD70B505460C46A7
:104E80002088102804D0112807D050280FD109E01D
:104E900021462846FFF7C8FF0AE021462846FFF7CB
:104EA000C6FF05E021462846FFF7C5FF00E000BF2A
:104EB00000BF70BD30B58FB004460D46002007908E
:104EC00000BF6846007F01090901491C6846017757
:104ED000007FF021884310306946087700BF00BF8B
:104EE0006846407F01090901491C68464177407FB7
:104EF000F021884310306946487700BF6846807FBC
:104F000006218843811C684681771C2108A805F08A
:104F10005EF908A8007810218843411808A801709C
:104F2000002009900B900C9007A80D9000200E9087
:104F30002178684681718C4981800020009000BFF3
:104F40006846007801090901491C6846017000782B
:104F5000F021884310306946087000BF00BF6846E2
:104F6000407801090901491C684641704078F021E8
:104F7000884310306946487000BF68468078062133
:104F80008843811C684681708078082188430146E7
:104F90006846817080781021884301466846817098
:104FA000807841084900491C68468170142102A894
:104FB00005F00DF901A802906846039001210182D5
:104FC0000021418214218182608823460C3302AA89
:104FD00008A9A2DF0FB030BD30B58FB004460D4632
:104FE0001C2108A805F0F3F808A8007808218843D8
:104FF000411808A80170002009900B900C900D90AA
:105000000E902178684681725749491E018100201F
:10501000019000BF6846007901090901491C6846F2
:1050200001710079F021884310306946087100BF92
:1050300000BF6846407901090901491C6846417171
:105040004079F021884310306946487100BF6846B6
:10505000807906218843811C684681718079082106
:105060008843014668468171807910218843014652
:1050700068468171807941084900491C6846817100
:10508000142103A805F0A3F802A8039001A8049036
:105090000121684681820021C18214210183608838
:1050A000231D03AA08A9A2DF0FB030BD70B586B0DA
:1050B00004460E462D4B0FCB01AD0FC50020C0435B
:1050C000A0823068A0610020A075214601A852DFAF
:1050D0000546002D02D0284606B070BD21786846EE
:1050E00081752149891E8182A21C05A90120A0DFAA
:1050F0000546002D01D02846EEE731462046FFF751
:10510000D9FE0546002D01D02846E5E73146204668
:10511000FFF762FF0546002D01D02846DCE700209E
:10512000DAE737B584B004460D46A07D002802D1E9
:10513000082007B030BD6846008B142801DD072029
:10514000F7E700200090019002900390A189684643
:105150000180039506A80290012168468170A08A0B
:105160006946A6DFE5E700000302000090A6010003
:10517000F8B504465D4806686D46771BFF20013090
:10518000874200D900E0384602462946204688304A
:10519000FFF72AF8F8BDF8B504460F461546622019
:1051A00000900120524908800846446045807F22D3
:1051B0003946083005F00EF800214D486830C177B7
:1051C0006838FFF7D5FF4B484069401C002808D0DD
:1051D00001221207126991B2464A506905F030F86F
:1051E00002E0012000074069801EC6B240493046F7
:1051F000009A00F032F9F8BDF8B50446622000903C
:1052000000253C484069401C002808D001221207B4
:10521000126991B2374A506905F012F802E0012094
:1052200000074069801EC6B26A462146304600F03B
:1052300050F90546052D01D10020F8BD002D01D003
:105240002846FAE72088002800D1F6E70E20012141
:105250008140294A916000BF00BF2088002803D008
:10526000264800780028F8D00E2001218140224AEB
:10527000D16000BF1F484069401C002808D00122AF
:105280001207126991B21B4A506904F0D9FF02E07B
:10529000012000074069801EC6B2304600F0D0F8F9
:1052A00005462846C9E7012014490870704738B5FB
:1052B0000021009168460078002815D00C48FFF7BF
:1052C0009BFF044600BF002C01D0052C01D101201A
:1052D00000E000200546002D05D100BF08A27C217A
:1052E000FFF736F800BF00BF38BD000000400100E6
:1052F0008423002000100010000500502120002011
:105300002E2E5C2E2E5C2E2E5C2E2E5C2E2E5C53B2
:105310006F757263655C626C655C626C655F65721B
:10532000726F725F6C6F672E6300000070B503468A
:105330000C46002A01D1894D00E01588284600213D
:1053400011E0051206023543A8B25D5C684005060F
:105350002D0F684005034540A8B205062D0D6D00D0
:1053600068404D1CA9B2A142EBDB70BD02217C4A12
:10537000516000BF7B4909680029FBD078498860EB
:1053800000BF784909680029FBD00021744A5160A8
:1053900000BF744909680029FBD070470122704B97
:1053A0005A6000BF6F4A1268002AFBD0016000BF3C
:1053B0006C4A1268002AFBD00022694B5A6000BF79
:1053C000684A1268002AFBD0704770B504460D4643
:1053D00000E03DDF644800780028FAD101206049F0
:1053E000486000BF5F4800680028FBD0256000BF10
:1053F0005C4800680028FBD000205949486000BF85
:10540000584800680028FBD070BD70B504460D46B2
:1054100029462046FFF7D9FF002070BDF8B50546A4
:105420000E461746002407E0A00031582846FFF733
:10543000CCFF2D1D601C84B2BC42F5DB0020F8BD02
:1054400070B5044601200007006980B2604305463C
:105450002846FFF78BFF002070BDF7B584B01546D6
:1054600001200007006980B20499484307463C4682
:10547000A90000220598FFF759FF039020680190CA
:10548000019880B2029003990298884202D10020CC
:1054900007B0F0BD3846FFF769FF241D241D002624
:1054A00007E0B200059881582046FFF777FF241DDA
:1054B000761CAE42F5DB2946381DFFF786FF2B49E7
:1054C00003980843019038460199FFF77EFF0020BA
:1054D000DEE7F7B586B007461446012000070069ED
:1054E00080B278430490049D286803900398000CD0
:1054F000000401901D490198884204D000202070CA
:10550000052009B0F0BD2D1D287820702D1D2078B4
:10551000800005902946059A0798FEF765FE2078D9
:10552000810000220798FFF701FF06460F4830432D
:10553000029003990298884201D00520E1E70020FB
:10554000DFE7024601200007006980B2504308608F
:10555000002070470449087070470000FFFF0000FA
:1055600000E5014000E40140222000200000DE456B
:10557000FEB505460E4614462078801C1F21081AE9
:1055800080B200902178891C881969466DDF0190EE
:105590000198002801D00198FEBD2879002808D084
:1055A000287969460988884203DA28790090082713
:1055B00000E0092768460088401CC1B22278501CD0
:1055C0002070B1542178481C2070775421786846A7
:1055D0000088081820700020DEE7F8B505460C4664
:1055E0002078001D1F2801DD0C20F8BD684669DF0A
:1055F0000646002E01D03046F7E703212278501CE2
:105600002070A95419212278501C2070A9542078A8
:1056100041196846008800F08BFA21784018207004
:105620000020E2E7F8B505460F4616461C466868B6
:10563000002801D10720F8BD2078801C2988401857
:105640001F2801DD0C20F6E72878401CC1B2227823
:10565000501C2070B1542178481C207077542A883F
:1056600023789819696804F053FD20782978401848
:1056700020700020DFE730B503461078C01C1F28DB
:1056800001DD0C2030BD02241578681C10704C55CB
:105690000A241578681C10704C551578681C107019
:1056A0004B550020EEE7FFB587B006461D46109C1F
:1056B0000020069020780590002747E0B900706828
:1056C00041180A886846028149884181002203A95D
:1056D00002A854DF04900498002802D004980BB06C
:1056E000F0BD6846017B099881422ED106980028BA
:1056F00001D0002000E00220019020786946097B5B
:105700004118019808181F2801DD0C20E7E70698CA
:10571000002809D12078401C20702278511C08985C
:105720002170A854012006902078421903A902A8EC
:1057300054DF04900498002801D00498CFE7207823
:105740006946097B4018207000BF7F1C3088B84232
:10575000B4DC0698002806D021780598401C081A69
:10576000C1B2059829540020B9E7FFB581B00746BA
:1057700015460A9E009602223846049B0299FFF7BE
:1057800092FF0446002C02D0204605B0F0BD0096E2
:10579000102229463846049BFFF785FF0446002C5B
:1057A00001D02046F1E70020EFE7014608880628EF
:1057B00008DB08881922D201904205DD0888E14AF9
:1057C000904201D0072070474888062808DB4888A7
:1057D0001922D201904205DD4888DA4A904201D070
:1057E0000720F0E70888D74A904208D048889042BE
:1057F00005D008884A88904201DD0720E3E70020B1
:10580000E1E7F8B506460D4614462078801D1F28AE
:1058100001D90C20F8BD3046FFF7C7FF0746002F1F
:1058200001D03846F6E705212278501C2070A95493
:1058300012212278501C2070A954227851193088E6
:1058400000F076F92178401820702278511970887C
:1058500000F06EF92178401820700020DAE7F8B5E2
:1058600005460E4614462879801CC7B22078801C55
:10587000C0191F2801DD0C20F8BD781CC1B22278A8
:10588000501C2070B154FF212278501C2070B1545C
:1058900022789119288800F04BF92178401820705F
:1058A000A88800280EDDA868002801D10720E3E7BA
:1058B000AA8823789819A96804F02AFC2078297905
:1058C000401820700020D7E7FEB507460E46144664
:1058D000786B002801D10720FEBD0020019032E046
:1058E000796B0C22019850430D182879801CC0B2A6
:1058F00000900098401CC1B22278501C2070B15416
:1059000016212278501C2070B154227891192888D1
:1059100000F00EF9217840182070A88800280EDDCC
:10592000A868002801D10720D6E7AA88237898190B
:10593000A96804F0EDFB20782979401820700198BF
:10594000401CC0B201903820C15D01988142C7DC83
:105950000020C1E7F8B504460F4616460025002092
:1059600030702068002809D0324639462046FFF7BB
:10597000FFFD0546002D01D02846F8BD60790028BE
:1059800008D031463846FFF728FE0546002D01D0E5
:105990002846F2E7208900280BDD33463A460121EC
:1059A00020460830FFF73EFE0546002D01D0284670
:1059B000E3E7206900280BD0002021690856324611
:1059C0003946FFF758FE0546002D01D02846D4E79A
:1059D000A08A00280CDD3B46062202212046143016
:1059E0000096FFF7C2FE0546002D01D02846C4E709
:1059F000A08B00280CDD3B460722032120461C30EB
:105A00000096FFF7B2FE0546002D01D02846B4E708
:105A1000A08C00280CDD3B461522142120462430A2
:105A20000096FFF7A2FE0546002D01D02846A4E708
:105A3000E06A002809D032463946E06AFFF7E1FE05
:105A40000546002D01D0284697E7206B002809D095
:105A500032463946206BFFF702FF0546002D01D084
:105A600028468AE73820005D002809DD324639469D
:105A70002046FFF729FF0546002D01D028467CE788
:105A800028467AE701460889002808D0C868002817
:105A900005D0C868007804221040002801D10720F2
:105AA00070470020FCE701460889002801DD072037
:105AB00070470020FCE7F3B593B00D46002112912A
:105AC00011911398002814D01398FFF7DBFF0446B8
:105AD000002C02D0204615B0F0BD12AA09A91398D7
:105AE000FFF738FF0446002C01D02046F3E709AE4B
:105AF00000E00026002D13D02846FFF7D4FF04460F
:105B0000002C01D02046E6E711AA01A92846FFF79C
:105B100021FF0446002C01D02046DCE701AF00E065
:105B2000002710A803793A46017A304662DFD2E7AF
:105B300002460A70FF200002104000124870022046
:105B400070470000FFFF000010B5002819DAFA4A7C
:105B500003071B0F083B9B089B00D2588307DC0EF2
:105B6000FF23A3409A438B071B0E8407E40EA34038
:105B70001A43F14B0407240F083CA408A4001A514F
:105B800018E0EE4A03231B02D21883089B00D25868
:105B90008307DC0EFF23A3409A438B071B0E840769
:105BA000E40EA3401A43E54B032424021B19840886
:105BB000A4001A5110BD10B50446E14884600321C9
:105BC0001120FFF7C1FF10BD10B501200004DD4911
:105BD0004860DC4940394860112000F0DDFC1120AC
:105BE00000F0CCFC0120D84908602F20FEF7BCFA59
:105BF00010BD10B5112001218140D04A80321160C2
:105C000000BF01200004CF498860CE494039886038
:105C10000120CD4948602F20FEF7A6FA10BDF0B54F
:105C2000024628205043C94B1B68C118C848006869
:105C3000401C002802D1C648026059E0C4488B6865
:105C4000006828246043C14C24680019806883429E
:105C500017D8BF48006828235843BC4B1B68C0189E
:105C600080688B68C31ABA48006828246043B74C20
:105C7000246800198360B64800684862B44802602E
:105C800036E08B68B24D2C6828680DE02825454326
:105C9000AE4E3668AD19AD685B1B044628254543FA
:105CA000AA4E3668AD19686A451C002D07D0282514
:105CB0004543A64E3668AD19AD689D42E6D3451CF6
:105CC000002D0CD028254543A04E3668AD19AD688F
:105CD000EE1A282545439D4F3F68ED19AE608B6055
:105CE000486228256543994E3668AD196A6200BF3F
:105CF000F0BD70B50246964C2168084609E0904216
:105D000000D109E0014628244443904D2D686419D0
:105D1000606A441C002CF2D100BF441C002C00D14E
:105D200070BD814209D18A4C246828256C43874D77
:105D30002D686419646A864D2C6028244443834D81
:105D40002D686419A36828244443804D2D68641984
:105D5000656A28244C437D4E3668A4196562282460
:105D60004C437A4D2D686419606A441C002C0CD099
:105D700028244443754D2D686419A468E518282427
:105D80004443724E3668A419A56000BFC8E710B539
:105D9000112000F0FAFB10BD10B5142000F0F5FB47
:105DA00010BD70B504466B480068002813D0694ADE
:105DB000216AE06912689047054600BF2E46002E12
:105DC00007D000BF64A2FF2155313046FEF7C0FA6C
:105DD00000BF00BF02E0E169206A884770BDF8B5E6
:105DE0005B480068401C00283AD0002700F006FC01
:105DF000044665480168204600F003FC0646544806
:105E0000056811E028206843504909684418A068D3
:105E1000B04200D90BE0A068361AA068C719656ABD
:105E20002046FFF7BEFF00BF681C0028EAD100BF74
:105E30005648007856490978884209D15448007874
:105E4000401CC0B252490870022801D100200870DD
:105E50004F48007880004F490F50FFF79DFF00BF6B
:105E6000F8BD014649480078494A127890421DD051
:105E700046480078401C454A1070104600780228B9
:105E800001D100201070414800788000414A10582C
:105E900008603D4A0868126880183B4A1060104646
:105EA00000680002000A10600120704700200860AE
:105EB00000BFFAE7FEB52648006801903648007832
:105EC000009074E00098C0003449096844182578AF
:105ED00069E01820684361680F18681CC5B2A07893
:105EE000A84200D100253868022802D0032857D1E3
:105EF0000EE0282178684843144909684618307E26
:105F0000002804D07868FFF7F4FE0020307648E0DF
:105F10000CE00F490968282251430C4A126888187E
:105F2000002101760A4A416A116000BF08480068F2
:105F3000401C0028EDD134E01CED00E000E100E061
:105F400000150140401301400010014028200020AE
:105F500034200020482000202E2E5C2E2E5C2E2E79
:105F60005C2E2E5C2E2E5C536F757263655C6170C7
:105F7000705F636F6D6D6F6E5C6170705F74696D83
:105F800065722E63000000003820002044200020AD
:105F9000452000203C2000202C2000203020002024
:105FA00000BF00BF00BF6078A84292D100BF009838
:105FB000411EC9B20091002884D1FE4801680198B1
:105FC000814201D00120FEBD0020FCE7F0B5034670
:105FD000002426E0F74E366828277E43F64F3F68B8
:105FE000F01986689E4203D98668F61A86601DE01D
:105FF00086689B1B86683419002686600676ED4EFF
:106000003568EC4F466A3E604669002E08D00E198E
:106010003602360AC6604669066116684662156031
:1060200000BFE4480068401C0028D3D100BFF0BD89
:10603000FEB50746DF4800680290E048007801900E
:106040006BE00198C000DE49096845185DE0781CE6
:10605000002807D03E4628207043D74909684418D5
:10606000676A23E02978182359436A685018297809
:10607000491C29702978AA78914201D10021297000
:10608000466828217143CC4A12688C18016801299E
:1060900002D1217E002900D037E08168E160C1682B
:1060A0002161016961614169216200BFC549E06800
:1060B0000968401A0002000AC349884208D2C1494F
:1060C000E068096800F09DFA21694018A06011E0BD
:1060D000BC48E168006800F094FA009021690098DB
:1060E000814204D921690098081AA06001E00020CB
:1060F000A06000BF0020E060206101202076801EAB
:1061000060623046FFF78BFD00BF781C00289ED1EF
:106110002878697888429AD100BF0198411EC9B297
:10612000019100288DD1A34801680298814201D0D5
:106130000120FEBD0020FCE7FEB505469D48006835
:10614000401C002835D09B480068282148439A49C4
:1061500009684018866800F051FA0290994804686E
:106160002146029800F04DFAC01C0190681C0028DE
:1061700001D1FFF729FD0198B04201D2304600E07D
:10618000019804192402240A20469049086000BF9F
:1061900000F034FA00900299009800F032FAC71C1F
:1061A0002046029900F02DFA874201D9FFF7EFFD52
:1061B00001E0FFF71EFDFEBDFEB50020C0430190CB
:1061C000804804687B4807686846FFF74AFE054632
:1061D000FFF770FE0646002D05D001AA2146009863
:1061E000FFF7F4FE01260198FFF722FF002800D0F8
:1061F0000126002E02D03846FFF79EFFFEBD4170FB
:10620000704770B502460B465078411C9078884222
:1062100000D100211078884201D1002070BD1960A2
:1062200050781826704355682C182046F6E7FFB5BD
:1062300081B005460E461746E900614A1268881883
:106240006946FFF7DEFF0446002C02D1042005B0AA
:10625000F0BD01202060666000F0D0F9A060E7602A
:10626000049820610A986061E900554A126888180C
:106270000099FFF7C4FFFFF78FFD0020E7E7F8B5AF
:1062800004460E46E1004E4A126888186946FFF738
:10629000B8FF0546002D01D10420F8BD022028607A
:1062A0006E60E100464A126888180099FFF7A7FF60
:1062B000FFF772FD0020F0E738B50446E100404AE0
:1062C000126888186946FFF79CFF0546002D01D12A
:1062D000042038BD03202860001F6860E100384AB0
:1062E000126888180099FFF78AFFFFF755FD002014
:1062F000EFE710B5002036490860002134484160BE
:106300008160C16000203249403908604860FFF771
:1063100066FD10BD10B5FFF74FFF10BDFFB581B092
:106320000E4617461C4620468107890F002901D1D9
:10633000012100E00021002902D1072005B0F0BDB5
:10634000002C01D10720F9E7FFF753FC21490A98F7
:106350000860214806701848046000250CE0002100
:1063600028206843144A1268115028206843124AB2
:106370001268801801766D1CB542F0DB282070434E
:10638000041903200D4908700D48046018340025D5
:106390000CE0E9000A4A1268881800210170417077
:1063A00087704460182179430C196D1C032DF0DBB4
:1063B000002013E034200020282000202C20002082
:1063C0003020002038200020FFFF7F0040150140D2
:1063D000401101404820002024200020C0438B4968
:1063E000086000208A4908708A490870142000F06B
:1063F000D3F803211420FFF7A7FB142000F0BEF808
:106400000198FFF7D8FB00F0F9F8834908600020F5
:1064100094E770B503460C4680480068002801D117
:10642000082070BD002A01D10720FAE7002B01D116
:106430000720F6E700211CE028204843774D2D680F
:106440002858002814D1012528204843734E366867
:10645000355028204843714D2D684019446028204C
:1064600048436E4D2D684019C26119600020D8E77D
:10647000491C6B4800788142DEDB0420D1E710B56F
:1064800000F092F8012802D0032804D101E0002492
:1064900003E0012401E0022400BF00BF204610BD3C
:1064A000FEB504460D4616465C480068002801D13A
:1064B0000820FEBD5A480078844201D2052D01D241
:1064C0000720F6E728206043544909680858012846
:1064D00001D00820EDE728206043504909684018A2
:1064E0004068012801D1284600E000200746FFF758
:1064F000C6FF3B462A46214600960190FFF797FECD
:10650000D7E770B5044645480068002801D1082047
:1065100070BD43480078844201D30720F8E7282063
:1065200060433E4909680858012801D00820EFE778
:10653000FFF7A5FF05462146FFF7A1FEE8E710B5E6
:1065400036480068002801D1082010BDFFF797FFEA
:106550000446FFF7B1FEF8E710B5044600F04EF828
:106560002060002010BD70B505460E461446314629
:10657000284600F046F82060002070BDC206D20E0A
:1065800001219140274A11607047C206D20E0121B5
:106590009140254A11607047C206D20E01219140F8
:1065A000214A80321160704710B520484068C1050B
:1065B000C90D002920D00A46103A104600280DDAED
:1065C0001A4B1C330407240F083CA408A4001B59D1
:1065D0008407E40EE3401B069B0F0BE0114B0324E2
:1065E00024021B198408A4001B598407E40EE3400D
:1065F0001B069B0FD8B210BD0420FCE70C48406876
:1066000070470246501A0002000A704734200020EA
:106610004420002045200020382000202820002091
:106620002420002000E100E000E200E000ED00E0B6
:106630000015014001464888B74A1288904206DB9F
:106640004888B54A5288904201DC012070470020FA
:10665000FCE738B50546B1480088B14988423BD0CF
:10666000B0480078401CAF490870AF48007B0978FB
:1066700088420FDBA849A948008865DF0446002C42
:1066800007D0A9488069002803D0A748816920461F
:10669000884721E00020A3490870A348007C002817
:1066A0000FD03B219D48008866DF0446002C07D0B0
:1066B0009D488069002803D09B488169204688470F
:1066C00000BF99484069002806D0002000909648F5
:1066D00041696846884700BF38BD70B505461C2231
:1066E00029469148FDF780FD0020904908702868F0
:1066F00000280BD008228848296803F009FD864845
:106700006ADF0446002C08D0204670BD82486BDF4B
:106710000446002C01D02046F7E70020C0437F4903
:10672000088000207F490870814A00218148FFF7D6
:1067300070FEEAE710B57F480068FFF7E2FE10BD83
:1067400038B57D48FFF776FF002829D177480078D3
:1067500000280AD074484069002820D0002000900A
:10676000714841696846884719E06E4800780028FA
:1067700002D16D48456801E06B48856800222946D2
:106780006C480068FFF78CFE0446002C07D0664872
:106790008069002803D064488169204688470AE060
:1067A00061484069002806D0012000905E48416998
:1067B0006846884700BF00205C49087038BD10B5A6
:1067C0000446A08855490880082221460E315A48BF
:1067D00003F09EFC0020534908705348C0890028EC
:1067E00001D1FFF7ADFF10BD70B505460020C043D5
:1067F0004A49088000204B4908704E480068FFF75E
:1068000080FE0446002C07D047488069002803D04A
:10681000454881692046884770BD70B50546AC1D66
:1068200020884149C989884220D1208B02281DD166
:1068300000BF00BFA17EE27E120211430846C107DD
:10684000C90F002902D0FFF77BFF0FE0394800682D
:10685000FFF757FE0646002E07D033488069002810
:1068600003D0314881693046884700BF70BD10B5FC
:1068700004460822A11D304803F04AFCFFF760FFE0
:1068800010BD10B504462088102806D0112808D065
:1068900012280ED0502810D107E02046FFF78FFFB6
:1068A0000CE02046FFF7A0FF08E02046FFF7B5FF09
:1068B00004E02046FFF7DBFF00E000BF00BF10BD93
:1068C00038B5044608222146134803F021FC12483B
:1068D0006ADF0546002D1CD11748FFF7ABFE0028E4
:1068E0000BD10120114908700B490C48008865DF65
:1068F000054601200B4908700BE00B484069002851
:1069000006D001200090084841696846884700BFCA
:106910000025284638BD00004C20002056200020CD
:10692000FFFF0000542000200C25002064200020E0
:1069300053660100602000205820002070B50646F4
:106940000C46154629462046FDF718FD70BDFFB5DB
:1069500081B00C4616461F4620468107890F002944
:1069600001D1012100E00021002902D1072005B05A
:10697000F0BD002C01D10720F9E725480460254827
:1069800006802548076025490A980860244901982F
:1069900010DF0546002D01D02846E8E7162023DF4A
:1069A000E5E738B500BF1B480088009069461848E5
:1069B000006850DF0446052C00D10EE0002C06D004
:1069C00000BF18A25F212046FDF7C2FC00BF10489F
:1069D0000068114909688847E5E700BF38BD70B510
:1069E0000E480068002810D00C4800688047044614
:1069F00000BF2546002D06D000BF0AA271212846FF
:106A0000FDF7A6FC00BF00BF01E0FFF7CAFF70BDA5
:106A10007020002074200020682000206C200020BE
:106A20003D6901002E2E5C2E2E5C2E2E5C2E2E5CDF
:106A30002E2E5C536F757263655C626C655C626C74
:106A4000655F737461636B5F68616E646C65722E01
:106A50006300000005460C4616467F2231460B486F
:106A600003F0B8FB002109486030C17708490C8069
:106A700008480560084600880648006872B6A2B259
:106A800031462846FEF787FB00BFFEE72825002099
:106A9000782000207C20002000BF42488068012828
:106AA000FBD100203F4988603F488069C0B27047F1
:106AB00070B504460D4601260AE02046641E0028F3
:106AC00004DB7D20C000FDF75FFB01E0002603E052
:106AD000344880680128F0D100BF002C05DB00207D
:106AE00030498860304880692870304670BD2E4932
:106AF000C86100BF2B49C9690129FBD10021294A7E
:106B0000D161704730B50346002528466D1C1C5CDA
:106B100005E02046FFF7EBFF28466D1C1C5C002CAF
:106B2000F7D130BDF8B507460C4615461E4620463F
:106B300000F025F80021304600F02AF81A48C46019
:106B40004661069800280DD0384600F018F800215C
:106B5000284600F01DF8144805618760012012499D
:106B60004031C86211481049486204200860012081
:106B70000F498860086000200A498860F8BD01213B
:106B80000522120707231B02D2188300D150704739
:106B900010B58A0005231B07072424021B19840053
:106BA0001A5110BD002100400025004000509D00FA
:106BB0000020004001B505E00098401E0090034809
:106BC000FDF7F2FA00980028F6D108BDE7030000AF
:106BD00070B500BF01204006CD49886000BF00BFEE
:106BE0004010886000BF0420FDF7EEFAC848006935
:106BF0008001C00F002807D0C5480069C001C00F40
:106C0000002801D0012428E0C1480069C001C00F5C
:106C1000002821D00024122519E000BF0120000621
:106C2000BB49C86000BF0420FDF7CEFA00BF0120B9
:106C30000006B749886000BF0420FDF7C5FAB448D4
:106C400000698001C00F002801D0012403E028461C
:106C50006D1E0028E1D100E00024204670BD10B573
:106C600000BFAC48052109070722120289184866AF
:106C700000BF00BF052109078918086600BF00BFD3
:106C800001200006A249886000BF00BF886100BFE4
:106C900000BF4000886000BF00BF886100BFFFF7F1
:106CA00097FF10BD10B500BF01200006984988600D
:106CB00000BF0420FDF788FA00BF95480069C001B5
:106CC000C00F0028F9D0012010BD10B500BF012071
:106CD00040068F49C86000BF0420FDF775FAFFF732
:106CE000E1FF002800D110BD00BF01204006884907
:106CF000886000BF0420FDF767FA0120F3E770B554
:106D00000646012400BF60068149886100BF8025D6
:106D10001FE000BF012000067D49C86000BF0420BD
:106D2000FDF752FA30462840002805D000BF012068
:106D300040067749886005E000BF0120400674499D
:106D4000C86000BFFFF7AEFF002801D1002402E0B9
:106D50006D08002DDDD100BF00BF012000066C4989
:106D6000C86000BF0420FDF72FFA00BF01204006D5
:106D70006749C86100BF0420FDF726FAFFF792FFBC
:106D8000044063480069400E01214840044000BFB0
:106D900008065F49C86000BF0420FDF715FA00BF70
:106DA000012040065A49886100BF204670BDF8B5F1
:106DB00005460E4600270120009000BF40065449BA
:106DC000C86100BF802418E0FFF76CFF002801D1E4
:106DD000009014E04E4800698001C00F002802D0E6
:106DE00038462043074600BF012000064849C860D6
:106DF00000BF0420FDF7E8F96408002CE4D100BFCF
:106E000000BF012040064249886100BF2F70002E5C
:106E100002D000BFC86005E000BF012040063C4929
:106E2000886000BF0420FDF7CFF9FFF73BFF002883
:106E300000D1009000BF012000063549C86000BFA6
:106E40000420FDF7C1F90098F8BD10B500BF01207E
:106E500040062F49886000BF0420FDF7B5F9FFF711
:106E600021FF002800D110BD00BF012040062849A5
:106E7000C86000BF0420FDF7A7F900BF012000068D
:106E80002349C86000BF0420FDF79EF90120EAE70E
:106E9000FFB581B007460D4616460124FFF7D5FF22
:106EA00004403846FFF72BFF0440F807C00F0028C6
:106EB00016D00DE0002E05D100212846FFF777FF00
:106EC000044004E001212846FFF771FF04406D1CD7
:106ED0003046711ECEB200280FD0002CEAD10CE053
:106EE00004E02878FFF70BFF04406D1C3046711E4C
:106EF000CEB2002801D0002CF3D10498002801D193
:106F0000002C02D1FFF7E1FE0440204605B0F0BDA1
:106F1000000500500C06000010B50446012C04D1F9
:106F20000022032102F0C6FF04E000220321012019
:106F300002F0C0FF10BD10B5FF2003F08AF810BDAD
:106F400010B53220FE490860FFF7F5FF00BFFFF7DC
:106F5000F2FF0446FF2C03D0F94800680028F6D160
:106F6000204610BD10B503F081F810BD7047704782
:106F700070B504460E460A20F249086000BFFFF7CC
:106F8000DAFF0546FF2D03D1EE4800680028F6D150
:106F9000FE2D01D0002070BD00BFFF2003F059F886
:106FA0002070641CFF2003F054F82070641CFF2044
:106FB00003F04FF82070641CFF2003F04AF82070A3
:106FC000641C301F0600E8D1FFF7B5FFFFF7B3FFE1
:106FD0000120E0E7F8B504460D46FFF7B1FFFF28B2
:106FE00001D00020F8BD284603F033F8FD2D1CD059
:106FF000002700BF2078641C03F02BF82078641C65
:1070000003F027F8781EC0B20700F3D1FF2003F089
:1070100020F8FF2003F01DF8FFF78DFF0646F0066D
:10702000C00E052801D00020DCE70120DAE7F8B522
:1070300004460D468020204000280AD06406640ED5
:1070400000217720FFF7F3FF0646012E01DD3046D1
:10705000F8BD03F00BF803F00EF8FFF771FFFF28FF
:1070600001D0FF20F4E7204602F0F3FF280E02F0E3
:10707000F0FF2902080E02F0ECFF2904080E02F0CE
:10708000E8FFE8B202F0E5FF0127402C00D1952788
:10709000482C00D18727384602F0DBFF4C2C01D169
:1070A000FFF749FF0A2700BFFFF745FF064680208C
:1070B0003040002803D0781EC0B20700F4D130461B
:1070C000C6E7F8B50746002F01D00120F8BD9E485D
:1070D000007802210840002802D09B480078F5E79C
:1070E000FFF744FF0020FFF717FF0A2403E0FFF734
:1070F00022FF601EC4B2002CF9D1002600214020DE
:10710000FFF795FF012868D164208E490860FF21B0
:10711000AB314820FFF78BFF01283CD100BF05E0D1
:10712000FFF709FF69460855601CC4B2042CF7DB61
:1071300068468078012850D16846C078AA284CD18A
:1071400000BF80480068002806D001218907E92097
:10715000FFF76DFF0028F4D17A48006800283CD082
:1071600000217A20FFF763FF002836D1002405E0D4
:10717000FFF7E1FE69460855601CC4B2042CF7DB3A
:107180006846007840210840002801D00C2000E02B
:107190000420064621E00021E920FFF748FF0128EE
:1071A00002DC0226E92501E00126412500BF6548F1
:1071B0000068002805D000212846FFF738FF002886
:1071C000F5D160480068002806D00121490250200E
:1071D000FFF72DFF002800D000265C480670FFF75F
:1071E000C1FE002E09D0584800784008400056499A
:1071F00008700120FFF790FE01E0FFF7B8FE52484B
:10720000007863E70146002901D0012070474E480D
:107210000078FBE7F8B507460D4616461C46002FDA
:1072200001D1002C01D10420F8BD47480078C007E7
:10723000C00F002801D00320F6E744480078082159
:107240000840002800D17602012C0DD13146512092
:10725000FFF7EDFE002822D161022846FFF788FEE5
:1072600000281CD000241AE031465220FFF7DFFE30
:10727000002814D100BF012149022846FFF778FEFB
:10728000002800D106E0FF35FF350235601EC0B290
:107290000400F0D100BF00214C20FFF7C8FEFFF72B
:1072A00061FE002C01D00120BEE70020BCE7F8B54C
:1072B00007460D4616461C46002F01D1002C01D171
:1072C0000420F8BD20480078C007C00F002801D076
:1072D0000320F6E71C48007804210840002801D06C
:1072E0000220EEE71948007808210840002800D164
:1072F0007602012C0DD131465820FFF798FE002868
:1073000037D1FE212846FFF765FE002831D0002442
:107310002FE00E48007806210840002803D02146BF
:10732000D720FFF784FE31465920FFF780FE002862
:107330001FD100BFFC212846FFF74CFE002807E0C4
:107340008820002084200020802000208C20002025
:1073500000D106E0FF35FF350235601EC0B20400E3
:10736000E8D100BFFD210020FFF734FE002800D146
:107370000124FFF7F7FD002C01D00120A1E7002038
:107380009FE7F7B586B0144627460698002802D036
:10739000042009B0F0BD012005900798042816D1FB
:1073A0003878002804D0012805D002280BD107E046
:1073B000002005900AE0FFF7D9FD0020059005E0C8
:1073C0000020059002E00420059000BF12E19548DE
:1073D0000078C007C00F002801D00320D9E7079824
:1073E000030003F0ECF80F09125258EFEFEFEFEF44
:1073F000EFB7BDCCDBF0EF0002F03DFEFFF7A0FDE4
:10740000FF2801D100200590F1E000214920FFF77D
:107410000EFE002838D1102101A8FFF7A9FD002891
:1074200032D0684600798011012809D16846417B35
:10743000007B00020818401C86B2B002206021E0E8
:107440006846407A0107090F6846807B8022104019
:10745000C01109186846407B8007400F0818851C3A
:107460006846007B81116846C07A8000091868462A
:10747000807A8007000D0818461C284609383146D6
:107480008140216000200590B1E001204002208071
:1074900000200590ABE064480078042108400028F3
:1074A0001ED00021CD20FFF7C2FD002851D1FFF7EB
:1074B00042FD102101A8FFF75BFD002849D03025CF
:1074C00003E0FFF738FD681EC5B2002DF9D168460C
:1074D000807B01111020884020600020059038E05A
:1074E00000214920FFF7A3FD002832D1102101A877
:1074F000FFF73EFD00282CD04B48007802210840C1
:10750000002811D06846807B8006410E6846C07B0B
:1075100080221040C0110818401C6946497C89111E
:10752000491E8840206012E06846C07B8007C10E7B
:107530006846C07BE022104040110818401C694694
:10754000897B7C2211408910491C4843206000201F
:1075500005904CE03448007838700020059046E0F3
:1075600000214920FFF763FD002807D1102138468C
:10757000FFF7FEFC002801D00020059037E0002135
:107580004A20FFF754FD002807D110213846FFF7A5
:10759000EFFC002801D00020059028E000217A208F
:1075A000FFF745FD00280BD1042505E0FFF7C3FCDC
:1075B00038707F1C681EC5B2002DF7D100200590E1
:1075C00015E000E010E00021CD20FFF730FD00289D
:1075D00009D1FFF7B0FC40213846FFF7C9FC00286D
:1075E00001D00020059002E00420059000BF00BFFC
:1075F000FFF7B8FC0598CCE60C490968C8B200282A
:1076000004D0411EC9B20846084A116008490968F9
:10761000C8B2002804D0411EC9B20846044A11600D
:1076200070470000802000208C2000208420002053
:10763000882000200020704770B503460C4603E008
:1076400025781D70641C5B1C1546521E002DF7D159
:1076500070BD30B5034601E019705B1C1446521E24
:10766000002CF9D130BDF8B503461C460D4600206C
:10767000009000BF1046521E002807D02078641CDE
:107680002E786D1C801B00900028F3D00098F8BD68
:10769000024600E0521C1078002802D01078884280
:1076A000F8D110787047F8B504460D46E66AAE4248
:1076B00032D02079002821D060780123324621463B
:1076C0003031FFF7F4FD002801D00120F8BD002083
:1076D0002071A169206A4018B0420FD9E7780AE00A
:1076E000A069861960780123324621463031FFF7C0
:1076F000DEFD781EC7B2012FF2DC00BF002D0BD0DB
:10770000607801232A4621463031FFF783FD0028A7
:1077100001D00120DAE7E5620020D7E770B5044622
:1077200000212046FFF7BFFF0546002D7ED12078BF
:1077300003287FD1607900287CD00020E0620122FC
:107740005202002120463030FFF783FF55212046AA
:107750003030FF30E1308177AA2120463030FF30D1
:10776000FF304170522130200155312001556121F7
:1077700032200155412133200155722120463030FD
:10778000FF30E130017120463030FF30E53041708C
:10779000412120463030FF30E530817061212046A4
:1077A0003030FF30E530C170217C20463030FF3072
:1077B000E1300172208A0004010E20463030FF3093
:1077C000E930417020690002010E20463030FF3060
:1077D000E93081702069010E20463030FF30E930F9
:1077E000C170217B20463030FF30E1300173A08929
:1077F0000004010E20463030FF30ED304170E0686B
:107800000002010E20463030FF30ED308170E0681C
:10781000010E20463030FF30ED30C170607801231A
:10782000214630316269FFF742FD01E00AE001E0E4
:1078300000206071607800221146FFF7A2FD002849
:1078400000D00125284670BDF8B505460C46022C2F
:1078500002D3E869A04201D80120F8BD2F6A287838
:10786000012804D0022830D003286CD143E02646FA
:1078700070088619700AC1192846FFF714FF0028FE
:1078800000D060E0F105C90D28463030405C009022
:10789000761C700AC1192846FFF705FF002800D0A2
:1078A00051E0F105C90D28463030405C00020099D6
:1078B00008430090E007C00F002802D0009800099C
:1078C000CBE700980005000DC7E7200AC11928463C
:1078D000FFF7E9FE002800D035E02006C10D28465C
:1078E00030300818407800022106CA0D2946303190
:1078F000895C0843B1E7E009C1192846FFF7D3FEC8
:10790000002800D01FE06006C10D2846303008185E
:10791000C07800066106CA0D2946303151188978B1
:10792000090408436106CA0D2946303151184978C7
:10793000090208436106CA0D29463031895C0843B3
:107940000001000989E700BF0020C04385E7FEB5BC
:1079500005460C461646022C02D3E869A04201D81F
:1079600002279CE0286A00902878012804D0022889
:1079700050D0032870D165E00294029C6008001981
:1079800002900298420A009811182846FFF78BFED1
:107990000746002F00D07FE00298C105C90D284698
:1079A000303008180190E007C00F002806D0019879
:1079B00000780007000F3101084300E03046C1B2F3
:1079C000019801700298401C0290012028710298D1
:1079D000420A009811182846FFF765FE0746002F57
:1079E00000D059E00298C105C90D2846303008186A
:1079F0000190E007C00F002802D03005000E06E01D
:107A000001980078F02108403105090F08430199D9
:107A1000087041E0220A009811182846FFF743FE3B
:107A20000746002F00D037E02006C20D2846303030
:107A300086543004010E2006C20D2846303010183E
:107A4000417029E0E209009811182846FFF72BFE43
:107A50000746002F01D01FE01CE06006C20D28463B
:107A6000303086543004010E6006C20D2846303096
:107A7000101841703002010E6006C20D28463030E9
:107A800010188170310E6006C20D28463030101873
:107A9000C17001E0022700BF00BF012028713846F5
:107AA000FEBDF8B504460E46022E02D3E069B04290
:107AB00001D8022729E0002723E031462046FFF7BE
:107AC000C3FE0546002D00D11EE0012D01D1022785
:107AD0001AE0681C002801D1012715E00022314678
:107AE0002046FFF734FF0746002F00D00CE0206946
:107AF000401C002804D02069401C206101206071D6
:107B00002E46E069B042D8D800BF3846F8BDF3B57C
:107B100081B00546E86900900298002807D1EF6817
:107B2000002F02D00098874210D301270EE028468C
:107B30000299FFF789FE0646022E01D20120FEBD02
:107B40000098864201D23046F9E7029F3C4600BFCA
:107B5000641C0098844204D30224BC4201D9002052
:107B6000EDE721462846FFF76FFE0646002E00D1BE
:107B70000AE0701C002801D0012E01D13046DEE75A
:107B8000BC42E5D10020DAE700BFF84A214628468A
:107B9000FFF7DDFE002802D00020C043CFE70298A7
:107BA000002809D0224628460299FFF7D0FE002877
:107BB00002D00020C043C2E7EC602869401C0028C6
:107BC00004D02869401E2861012068712046B6E76C
:107BD0000246891ED069801E884201D80020704765
:107BE00090784843936AC018F9E7F8B504460E4602
:107BF000E680A568012D03D02068C069A84201D89D
:107C00000220F8BD002D05D120680078032801D19D
:107C10002068456A002D0CD1E56020680089B042DB
:107C200001DC0220EDE72068406A3109401820613C
:107C300021E020688078070113E029462068FFF7DB
:107C400003FE0546681C002801D10120D9E7022D5A
:107C500003D32068C069A84201D80220D1E7F01BF5
:107C600086B2BE42E9DAE56029462068FFF7B0FF38
:107C7000310940182061206830303107C90D4018A3
:107C800060610020BDE7F3B581B00446E088401C88
:107C900086B2002E02D02069002801D10420FEBD4A
:107CA0003007000F002875D12069401C2061E06872
:107CB000002805D120680089B0426BDC0420EEE783
:107CC000300921688978491E0840002862D1E1689E
:107CD0002068FFF7B9FD0546012D01D80220DEE737
:107CE000681C002801D10120D9E72068C069A8429A
:107CF0004AD80298002801D10420D0E7E168206822
:107D0000FFF705FF0546002D01D10720C7E7012D2C
:107D100001D10220C3E7681C002801D10120BEE781
:107D200000212068FFF7BFFC002801D00120B6E742
:107D3000216808463030012252020021FFF789FCF9
:107D400029462068FFF744FF2168C862002711E038
:107D500001202168087100212068FFF7A4FC002899
:107D600001D001209BE72068C06A401C2168C862DE
:107D7000781CC7B220688078B842E9DC2068C06A05
:107D8000C01B2168C86200BFE56029462068FFF774
:107D90001FFF2061E680206830303107C90D401890
:107DA000606100207BE7F8B5044600212046FFF71C
:107DB0001CFF0546002D01D02846F8BD00BF2169F3
:107DC0002068FFF770FC0546002D00D019E06669B9
:107DD0003778002F01D1042513E0F07A08210840FC
:107DE000002807D10B223046A169FFF73CFC002890
:107DF00000D106E000212046FFF745FF0546002D93
:107E0000DDD000BF2846D8E7F8B5044604251FE0BA
:107E100021692068FFF747FC0546002D00D01AE0D5
:107E200067693E78002E01D1042514E0E52E07D0C5
:107E30002E2E05D0F87A08210840002800D10AE04B
:107E400000212046FFF71FFF0546002D00D002E06D
:107E500020690028DCD100BF002D01D00020206166
:107E60002846F8BDF8B5044600212046FFF7BDFEC0
:107E70000546002D17D100BF21692068FFF713FCCC
:107E80000546002D00D00DE060690678E52E01D092
:107E9000002E00D106E001212046FFF7F4FE054642
:107EA000002DE9D000BF002D19D121692068FFF70E
:107EB000FAFB0546002D12D16769202200213846C1
:107EC000FFF7C7FB0B223846A169FFF7B5FBA06996
:107ED000C07A1821084038730120216808712846AB
:107EE000F8BD70B50446E1882046FFF77EFE0546E2
:107EF000002D0CD121692068FFF7D5FB0546002D28
:107F000005D1E520616908700120216808712846C3
:107F100070BDF3B583B0039886690B2220213046EB
:107F2000FFF797FB002005460746019008200290C6
:107F300004980068009000BF0198411C01910099CD
:107F40000C5C202C03DD2F2C01D05C2C00D137E001
:107F50002E2C02D00298874210DB0298082801D10B
:107F60002E2C05D0062005B0F0BD0000FFFFFF0F4E
:107F700008270B200290A806050EDDE7802C03DB06
:107F8000032005430620EEE72146FEA0FFF780FB15
:107F9000002801D00620E6E7412C04DB5A2C02DC45
:107FA0000220054308E0612C06DB7A2C04DC01206A
:107FB000054320462038C4B238467F1C3454BBE702
:107FC00000BF01990098411804980160202C01DC41
:107FD000042000E000200446002F01D10620C2E763
:107FE0003078E52801D1052030700298082801D1A9
:107FF000A806050EA807800F012801D11020044310
:108000000C202840042801D108200443F4720020E9
:10801000A9E7F8B505460B461A4609322E69002E27
:108020003CD06869067B009600210AE0445C202C65
:1080300000D108E0052C00D1E52400BF1470521CCB
:10804000491C0829F2DB00BF067A202E0FD02E260D
:108050001670521C082107E0445C202C00D105E07A
:1080600000BF1470521C491C0B29F5DB00BFC67AF7
:108070001E72C67F3606877F3F043E43477F3F021E
:108080003E43077F3E431E60467E3602077E3E43E8
:108090009E80C67D3602877D3E43DE8000261670B8
:1080A000F8BDF3B581B0044602E00298401C02908E
:1080B000029800782028F8D0029800782F2803D062
:1080C000029800785C2802D10298401C029000209F
:1080D000A06002980078202807D200212046FFF7F0
:1080E00084FD06460020606130E000BF02A9204602
:1080F000FFF70FFF0646002E00D026E02046FFF7D0
:1081000052FE0646A069C77A04210F40002E05D012
:10811000042E02D1002F00D1052616E0002F00D03A
:1081200013E06569E87A10210840002801D105268E
:108130000BE0687D0002297D08430004E97E090206
:10814000AA7E11430843A060D0E700BF3046FEBDC1
:1081500070B504460D46607801232A462146303129
:10816000FFF758F8002801D0032070BD20463030BA
:10817000FF30FF304078010220463030FF30E130E0
:10818000807F01438248814201D00220EDE76920CF
:10819000005D01066820005D000408436721095D59
:1081A000090208436621095D08430002000A794973
:1081B000884201D10020D8E78520005D0106842097
:1081C000005D000408438321095D09020843822100
:1081D000095D08430002000A6E49884201D100206F
:1081E000C3E70120C1E7F7B588B00898006802909E
:1081F0000298007830380790079809280AD8029822
:1082000040783A2806D10298801C0290089902987A
:10821000086001E0002007900798002802D00B209A
:108220000BB0F0BD079880005B490C5809980460BA
:10823000002C01D10C20F3E72078002814D06078BE
:10824000FEF7E0FF06900698C007C00F00280BD18C
:108250000A98002806D0042106980840002801D07A
:108260000A20DDE70020DBE700202070079860701F
:108270006078FEF726FF06900698C007C00F00281A
:1082800001D00320CCE70A98002806D004210698E4
:108290000840002801D00A20C2E7002001460590CE
:1082A0002046FFF755FF0546012D15D12746FF371C
:1082B000EF37387900280FD0F87A0006B97A090428
:1082C0000843797A09020843397A08430590204621
:1082D0000599FFF73DFF0546032D01D101209FE7DA
:1082E000002D09D13C20005D00023B21095D0843BF
:1082F00001214902884201D00D2091E74720005D0D
:1083000006024621095D0E43002E0ED15720005D66
:1083100001065620005D000408435521095D09024D
:1083200008435421095D08430646A6614020005DCC
:10833000E070E07846433F20005D00023E21095D89
:1083400008430599401820623D20005DA07042203E
:10835000005D00024121095D084320814420005D49
:1083600000024321095D08430490049800281BD1B2
:108370005320005D01065220005D00040843512196
:10838000095D0BE020222A2B2C5B3D5D7C7F0000E9
:1083900055AA0000464154009020002009020843DD
:1083A0005021095D084304903F22125D12023E23D2
:1083B0001B5D1A43049B9A1A921B23891B09D01A2E
:1083C000A17801F03DFF801C0390E0610125F84990
:1083D0000398884200D30225F6490398884200D3C7
:1083E0000325032D0FD15F20005D01065E20005D97
:1083F000000408435D21095D090208435C21095D11
:108400000843606202E0206A80196062206A801975
:10841000218909094018A0620020C0432061002082
:108420002071032D7ED160716120005D010260200A
:10843000005D014305980818606160786269012356
:10844000214630310190FEF7E5FE002874D1204628
:108450003030FF30FF304078010220463030FF30AE
:10846000E130807F0143D448814265D13320005DF3
:1084700000063221095D090408433121095D090222
:1084800008433021095D0843CC49884254D1204635
:108490003030FF30E530C078010620463030FF3004
:1084A000E53080780004084321463031FF31E53162
:1084B00049780902084321463031FF31E131097919
:1084C0000843BF49884237D120463030FF30ED3075
:1084D000C078010620463030FF30ED30807800044F
:1084E000084321463031FF31ED3149780902084314
:1084F00021463031FF31E131097B0843E0602046FD
:108500003030FF30E930C078010620463030FF308F
:10851000E93080780004084321463031FF31E931E9
:10852000497800E008E00902084321463031FF3174
:10853000E131097A0843206125700020E062A148FA
:108540000088401C80B29F490880E080002067E6D8
:1085500070B504460D46002C05D02078002802D0C6
:10856000E088A84201D0092070BD6078FEF74AFE7D
:10857000C007C00F002801D00320F5E70020F3E773
:1085800010B50246012A01DB0B2010BD90008E4C75
:108590002358002B01D000201870002901D00020A2
:1085A00008709000884C21500020EEE7F7B58CB0A1
:1085B0000546164600202860F606F60E1E203040BE
:1085C000024605A90DA8FFF70EFE0746002F02D0B0
:1085D00038460FB0F0BD02A80B9005A80D99FFF723
:1085E00060FD07461C203040002874D0002F0DD0BD
:1085F000042F03D105A8FFF735FC0746002F01D053
:108600003846E6E7082006430A9C47E0042030404D
:10861000002801D00820DCE70A9C002C04D0E07A76
:1086200011210840002801D00720D2E7082030405F
:10863000002833D0607D0002217D08430004E17EE4
:108640000902A27E114308430090002020750021FA
:108650006175A076E17620776177A177E1770120D7
:10866000059908710598C06A0190009800280CD0FF
:1086700000990598FFF715FA0746002F01D03846F4
:10868000A7E70098401E0599C86001990598FFF773
:108690000AF80746002F01D038469AE708203040F4
:1086A000002816D00020E072FEF7C4FF0190019868
:1086B000A07301980004010EE17301980002010EFD
:1086C00021740198010E6174012005990871202020
:1086D000064319E0FFE7002F01D0384679E70A9CEE
:1086E000002C04D0E07A10210840002801D004209A
:1086F0006FE702203040002806D0E07AC007C00FA4
:10870000002801D0072064E70598C06AE8610A984C
:108710002862AE71607D0002217D08430004E17E85
:108720000902A27E114308432861E07F0006A17F71
:1087300009040843617F09020843217F0843E86078
:108740000020A860FF20E8710020A861059828603B
:108750000598C088A88000203BE7FFB587B0044695
:1087600015460898029000210A980160A1882068A7
:10877000FFF7EEFE06900698002802D006980BB090
:10878000F0BDA07980210840002801D00220F6E742
:10879000A079C007C00F002801D10720EFE7A1682A
:1087A000E068401A04900498854200D9049DD8E0FE
:1087B000F70F0000F7FF000055AA00005252614178
:1087C0007272416194200020902000202089C00511
:1087D000C00D002872D1E07921688978884220DBB9
:1087E000A068002801D1206903E061692068FFF7D3
:1087F0002BF805900598012805D8A0798021084319
:10880000A0710220BBE70598401C002805D1A07983
:1088100080210843A0710120B1E705986061002024
:10882000E07161692068FFF7D3F90646002E05D193
:10883000A07980210843A0710220A0E7E079861981
:10884000680A03900398002839D0E1790398081842
:1088500021688978884204D920688078E179401AB3
:1088600003900398C3B22068407832460190029981
:10887000FEF7D0FC002805D0A07980210843A07124
:1088800001207CE7A0794021084000280FD0A06992
:10889000811B039881420AD2A169891B4A0202996D
:1088A00050180122520221462431FEF7C5FEE1791B
:1088B00003980818E0710398470246E031E0A07978
:1088C00040210840002814D020684078A269012384
:1088D000214624310190FEF7EAFC002805D0A0795A
:1088E00080210843A071012049E7A07940218843F5
:1088F000A071A069B04210D02068407801233246B0
:10890000214624310190FEF785FC002805D0A0798E
:1089100080210843A071012031E7A661E079401C65
:10892000E0712089C005C00D012149020F1AAF4234
:1089300000D92F462089C205D20D204624301118B7
:108940003A460298FEF778FE00BF0298C0190290DE
:10895000A068C019A0600A980068C1190A9801604F
:10896000ED1B002D00D031E7002008E7FFB585B0F2
:108970000446154606980190002108980160A188D8
:108980002068FFF7E5FD04900498002802D00498C1
:1089900009B0F0BDA07980210840002801D0022054
:1089A000F6E7A07902210840002801D10720EFE76F
:1089B000E0684019E168884200D20025E0E02089A3
:1089C000C005C00D00287DD1E079216889788842F2
:1089D0002EDBA06800280BD12069039003980028A3
:1089E0000BD100212068FFF792F80390206104E08A
:1089F00061692068FFF78BF803900398002800D185
:108A0000C1E00398012805D1A07980210843A07115
:108A10000220BDE70398401C002805D1A0798021E1
:108A20000843A0710120B3E7039860610020E07162
:108A3000A07940210840002814D020684078A2691D
:108A40000123214624310090FEF731FC002805D097
:108A5000A07980210843A071012099E7A0794021E5
:108A60008843A07161692068FFF7B2F80646002EBE
:108A700005D1A07980210843A071022088E7E07920
:108A80008619680A02900298002839D0E179029884
:108A9000081821688978884204D920688078E179AB
:108AA000401A02900298C3B2206840783246009083
:108AB0000199FEF7FCFB002807D0A079802108432C
:108AC000A07100E038E0012062E7A069811B0298F4
:108AD00081420ED2A069801B420201981118012226
:108AE000520220462430FEF7A7FDA079402188439A
:108AF000A071E17902980818E0710298470233E00A
:108B0000A069B04214D0E168A068884210D2206801
:108B1000407801233246214624310090FEF77AFB4B
:108B2000002805D0A07980210843A07101202FE7FB
:108B3000A661E079401CE0712089C005C00D0121CB
:108B400049020F1AAF4200D92F462189CA05D20D1A
:108B50002146243150183A460199FEF76DFDA0795F
:108B600040210843A07100BF0198C0190190A0687E
:108B7000C019A06008980068C11908980160ED1B31
:108B8000002D00D01BE700BFE168A068884201D932
:108B9000A068E060A07920210843A0710020F7E6DA
:108BA000F8B50446A1882068FFF7D2FC0746002FDD
:108BB00056D1A07920210840002851D0A079402129
:108BC000084000280FD0216848780123214624312D
:108BD000A269FEF76CFB002801D00120F8BDA07946
:108BE00040218843A071E1692068FEF75CFD0746DB
:108BF000002F35D1256AE87A20210843E872207BCE
:108C00002877A0890004010E6977E0680002010E50
:108C1000A977E068010EE977207CA876208A000415
:108C2000010EE97620690002000E28752069010E08
:108C30006975FEF7FFFC0646AE753004010EE97556
:108C40003002010E2976310E6976A0792021884301
:108C5000A0710120216808712068FEF75FFD0746BA
:108C60003846BBE770B504462046FFF799FF054636
:108C7000002D00D12060284670BDF0B585B00446B7
:108C80000E46A1882068FFF763FC03900398002834
:108C900002D0039805B0F0BDA079802108400028DB
:108CA00001D00220F6E7E068B04205D2A0790221A7
:108CB0000840002800D1E668A068009000200190DC
:108CC000A060FF20E071002E7ED0206880784002F6
:108CD00002900098002815D0701E029901F0B0FA99
:108CE00007460099481E029901F0AAFA874209D363
:108CF0000098401E0299491E8843A060A068361A59
:108D000065691AE02569002D16D100212068FEF75B
:108D1000FEFE0546012D05D1A07980210843A071F2
:108D20000220B7E7681C002805D1A07980210843FC
:108D3000A0710120AEE725616561002D54D02EE0C1
:108D4000A07902210840002808D029462068FEF7B3
:108D5000DEFE0546002D06D1029E23E0294620684E
:108D6000FEF772FD0546681C002805D1A079802118
:108D70000843A07101208DE7012D03D92068C06947
:108D8000A84205D8A07980210843A071022081E77C
:108D90006561A16802980818A0600298361A0298C6
:108DA0008642CDD800BFA0688019A060F003000EF5
:108DB000E071F005C00D002816D029462068FEF7A6
:108DC00007FF0190019800E00EE0002805D1A0798E
:108DD00080210843A07102205CE7E179019808181E
:108DE0000190E079401CE0712089C005C00D002889
:108DF0002ED0A169019881422AD0A0794021084053
:108E0000002813D021684878012321462431A26923
:108E1000FEF74DFA002805D0A07980210843A07103
:108E2000012037E7A07940218843A0712168487864
:108E3000012321462431019AFEF7ECF9002805D0E0
:108E4000A07980210843A071012023E70198A06147
:108E5000E168A068884205D9A068E060A079202177
:108E60000843A071039815E773B584B00446002247
:108E7000214605A8FFF7B7F90646002E2AD101A81A
:108E8000A06120460599FFF70CF90646002E1ED179
:108E90006569002D11D0E87A1021084000280BD018
:108EA000687D0002297D08430004E97E0902AA7E4C
:108EB00011430843A06000E00526002E07D120687A
:108EC000C088A08000212046FEF78FFE0646042EB3
:108ED00000D10526304606B070BDFEB504460E46EC
:108EE000A1882068FFF734FB0546002D22D1684693
:108EF000A061002E05D100212046FEF776FE054632
:108F000018E02046FEF780FF0546042D02D1002020
:108F100020610025002D0DD131462046FFF779F85C
:108F200000212046FEF7AFFE0546042D02D10020A9
:108F3000206100252846FEBD33B58BB00D460022CA
:108F400004A90BA8FFF74FF90446002C11D101A882
:108F50000A9004A80B99FFF7A4F80446002C08D146
:108F60000998002804D0294604A8FFF752F800E029
:108F7000062420460DB030BDF7B586B01446002259
:108F8000214606A8FFF72FF905900598002802D082
:108F9000059809B0F0BD20680169C069801E814252
:108FA00005D820680169079801600020F1E7206872
:108FB000007801900026019801281CD1022700BFEB
:108FC00039462068FEF740FC03900398401C0028B7
:108FD00001D10120DDE70398012801D10220D8E763
:108FE0000398002800D1761C781C07462168C969BF
:108FF0008842E5D343E02068C7692068006A04908E
:1090000000200290002500BF0298002812D1049A87
:10901000531C114604932068FEF745FB0590059804
:10902000002801D00598B4E72068054630350120B6
:1090300040020290019802280BD16878000229783A
:109040000843002800D1761CAD1C0298801E0290B7
:1090500012E0E8780006A978090408436978090253
:1090600008432978084300010009002800D1761C34
:109070002D1D0298001F0290781E0700C4D12068A1
:1090800006610198032802D10120216848710798E0
:10909000066000207DE770B50446A1882068FFF7D0
:1090A00057FA0646002E01D0304670BDA0798021C7
:1090B0000840002801D00220F7E7A07902210840EB
:1090C000002801D10720F0E7A168E068884230D984
:1090D000A068E060A07920210843A071A068002862
:1090E00007D121692068FEF7DCFC064600202061DC
:1090F0001FE061692068FEF7A7FB05460026681C93
:10910000002800D10126012D00D10226002E10D109
:109110002068C069A8420CD9FE4A61692068FEF740
:1091200016FC0646002E04D129462068FEF7B9FC3D
:109130000646002E03D0A07980210843A071304656
:10914000B3E771B591B001220AA911A8FFF74BF856
:109150000446002C02D0204612B070BD6846109024
:109160000AA81199FEF79DFF044600BF002C01D00C
:109170002046F1E70F9D002D01D10620ECE7E87AAB
:10918000C007C00F002801D00720E5E7687D000276
:10919000297D08430604E97E0902AA7E11430E4395
:1091A000E87A1021084000281DD0022E01D20220AA
:1091B000D2E71C220AA903A8FEF73EFA059602216F
:1091C00003A8FEF712FD0446002C01D02046C3E799
:1091D00003A8FEF719FE0446002C00D10724042C36
:1091E00001D02046B8E70AA8FEF77BFE0446002C13
:1091F0000CD1002E04D031460A98FEF752FC0446EA
:10920000002C03D10A98FEF789FA04462046A3E70A
:10921000F1B58EB0012207A90EA8FEF7E4FF0746BC
:10922000002F02D038460FB0F0BD04A80D9007A85B
:109230000E99FEF736FF0746002F00D1082700BF22
:10924000042F01D03846EEE700210798FEF75FFCB7
:1092500005460027002D00D10727012D00D1022748
:10926000681C002800D10127002F04D10021079895
:10927000FEF719FA0746002F01D03846D3E72946F2
:109280000798FEF7A5FC02900798044630340122A7
:10929000520200212046FEF7DCF90B222021204655
:1092A000FEF7D7F92E2020701020E072FEF7C2F9E9
:1092B0000646A6753004010EE1753002010E2176D6
:1092C000310E6176A5762804010EE1762802000EA3
:1092D0002075290E617520222146A018FEF7ACF9F1
:1092E0002E21212001550998019007980078032824
:1092F00006D10798416A0198814201D1002001906E
:109300000198C1B23A20015501980004010E3B209A
:10931000015501980002010E342001550198010EFB
:1093200035200155002003901BE007990298C86280
:109330000298401C029001200799087100210798AB
:10934000FEF7B1F90746002F01D038466BE701223E
:10935000520200212046FEF77CF90398401CC0B25F
:1093600003900798817803988142DEDC07A8FEF716
:1093700079FD0746002F04D029460798FEF791FB98
:109380001BE00C9C1020E072A6753004010EE17504
:109390003002010E2176310E6176A5762804010E89
:1093A000E1762802000E2075290E617501200799CB
:1093B00008710798FEF7B2F90746384633E7F7B564
:1093C0008AB00F461446012203A90AA8FEF70BFF34
:1093D0000646002E1DD16846099003A80A99FEF79B
:1093E00060FE064600BF002E13D1089D002D01D15E
:1093F00006260EE02720044038462040E97AA143A3
:109400000843E8720120039908710398FEF786F972
:10941000064630460DB0F0BD73B58AB00D46012248
:1094200003A90AA8FEF7DFFE0646002E1FD16846F4
:10943000099003A80A99FEF734FE064600BF002EE5
:1094400015D1089C002C01D1062610E0A879A07542
:10945000E8880112E17528792076A88801126176E2
:109460000120039908710398FEF758F90646304623
:109470000CB070BDF3B597B006A81690012210A9E4
:1094800017A8FEF7B0FE0546002D07D110980990E9
:1094900010A81799FEF705FE054600BF002D02D063
:1094A000284619B0F0BD1598002801D10420F8E72E
:1094B000159801460B3115226846FEF7BDF81C22AF
:1094C00010A909A8FEF7B8F809A81899FEF7E9FD50
:1094D0000546002D00D10825042D61D109A8FEF70D
:1094E000C1FC0546002D5BD10E9C132200A9023160
:1094F00020460D30FEF7A0F868460078202108438A
:10950000E072012010990871E07A102108400028CB
:109510003AD001E0FFFFFF0F627D1202237D1A4364
:10952000E37E1B02A77E3B431A4311460998FEF7D0
:109530004FFB0646002E01D1022525E03146099851
:10954000FEF7B1F80546099804465034002D1BD1AA
:1095500060782E2818D109980078032806D1099937
:109560000B98496A884201D1002000E00B9806461A
:10957000A6763004010EE1763002000E2075310E21
:109580006175012009990871002D09D110A8FEF715
:10959000A8FC0546002D03D11098FEF7BFF805463C
:1095A00028467EE7F7B590B01098012802DB0B2023
:1095B00013B0F0BD1198022801DB0E20F8E71098D7
:1095C0008000FE49085804900498002801D10C201E
:1095D000EEE7002104980170109810901098FDF7A4
:1095E00070FD03900398C007C00F002801D003202E
:1095F000DEE7042103980840002801D00A20D7E7BD
:109600000AAA01211098FDF7BCFE002804D17D2193
:1096100009010A98884201D20E20C9E77D21090577
:109620000A98884201D908460A901198002801D169
:109630003F2000E000200E900A990E98081A0A9028
:1096400001204002079002E00798400007900121A6
:10965000C9030798884203D8129907988842F3D122
:1096600012990798884201D0002012901298002881
:1096700022D10A98079001204002059005E0079842
:10968000400807900598401005900121490205986F
:109690008842F4D80020069002E00698401C06900C
:1096A00006988000C649095807988142F5D806985F
:1096B0004000C449085A1290012149021298884278
:1096C00001D2084612901298400A129012990A98F4
:1096D00000F0B6FD06460127BB498E4200D30227A3
:1096E000BA48864200D30327012F02D0022F19D196
:1096F0000DE070003018401C4008FF30FF3004308F
:10970000450A1198401C09902020089017E070002D
:10971000FF30FF300530450A1198401C0990202089
:1097200008900CE0B0000830FF30FF300130450AEF
:1097300021211198081A09900020089000BF00BF4D
:1097400009990E9840180D900D9828180C900899BA
:109750000C9840180B9006AA03211098FDF711FEF3
:10976000002801D00E2023E706990B984018401ED0
:10977000491E8843069006990B98081A45190A9ABB
:109780000999511A4A1B0899501A129900F058FD6C
:109790000646022F02D18C48864204D3032F04D1FF
:1097A0008A48864201D20E2002E71198002865D12E
:1097B0000A990E9840180290012252020021049842
:1097C0003030FDF746FF04980446FF34EF34802024
:1097D000207001206070A0700020E0707C49029829
:1097E000884210D23F21029800F02AFDFF2101900B
:1097F00000F026FD02900298E071029880083F2157
:109800000843A07103E0FF20A071FF21E171FE2059
:109810006071032F09D0012109040A98884201D2FE
:10982000042000E00620207101E00C2020713F2080
:10983000207200216172A172E1720A9820730A9865
:109840000004010E61730A980002010EA1730A98C8
:10985000010EE173552140200155AA2141200155F7
:1098600001230022049930311098FDF720FD0028D3
:1098700001D001209CE6F820119001E0F020119029
:109880000498044630340122520200212046FDF79C
:10989000E0FEEB202070FE2060709020A070002081
:1098A000E070E07202212173129860730998A0732E
:1098B00009980004010EE173012020740898000744
:1098C000000E607408980005010EA17401210904BE
:1098D0000A98884206D20A98E0740A980004010E99
:1098E000217511E00A98C1B2202001550A980004A0
:1098F000010E212001550A980002010E2220015577
:109900000A98010E23200155119860753F2020769A
:1099100000216176FF20A076E1760E9820770E98E0
:109920000004010E61770E980002010EA1770E98D7
:10993000010EE177FDF77EFE0690032F22D00698F8
:10994000C1B22720015506980004010E28200155B8
:1099500006980002010E292001550698010E2A20C2
:109960000155A5752804010EE175802124200155BB
:10997000292126200155132216A120462B30FDF760
:109980005BFE57E00698C1B24320015506980004DB
:10999000010E4420015506980002010E4520015594
:1099A0000698010E46200155242005552804010E75
:1099B000252001552802010E262015E090200020C8
:1099C000A0A60100CCA60100F50F0000F5FF0000E5
:1099D0000004FB004E4F204E414D452020202046E4
:1099E00041542020202020000155290E2720015518
:1099F00002212C20015500212D2001552E2001553A
:109A00002F20015501213020015500213120015521
:109A100006213220015500213320015580214020AC
:109A200001552921422001551322FEA1204647302D
:109A3000FDF702FE5521FF20FF300155AA21401CF1
:109A40000155012321460E9A1098FDF730FC00289D
:109A500001D00120ACE5032F06D101230E9A921DFF
:109A600021461098FDF723FC00200F905DE00122B5
:109A7000520200212046FDF7ECFD032F18D0012FE4
:109A800001D1ED4801E0FF20C043069011990698EE
:109A9000084306900698207006980004000E607037
:109AA00006980002000EA0700698000EE0700FE00D
:109AB000F8202070FF206070A070E0702071FF21FE
:109AC0006171A171E17120726172A1720F21E17265
:109AD0000D98411C024601230D9121461098FDF777
