:020000040001F9
:10400000003D0020194201002B4201002D42010019
:1040100000000000000000000000000000000000A0
:104020000000000000000000000000002F4201001E
:104030000000000000000000314201003342010096
:104040003542010035420100354201003542010090
:1040500035420100000000003542010035420100F8
:104060003542010035420100354201003542010070
:104070003542010035420100354201003542010060
:1040800035420100C771010035420100354201008F
:10409000E971010035420100B378010035420100A9
:1040A0003542010035420100000000000000000020
:1040B0000000000000000000000000000000000000
:1040C00000F002F800F04DF80CA030C808382418B1
:1040D0002D18A246671EAB4654465D46AC4201D140
:1040E00000F03FF87E460F3E0FCCB6460126334225
:1040F00000D0FB1AA246AB4633431847907A000023
:10410000B07A0000103A02D378C878C1FAD85207C2
:1041100001D330C830C101D504680C60704700007D
:104120000023002400250026103A01D378C1FBD8D3
:10413000520700D330C100D50B6070471FB5C04691
:10414000C0460098019907F09AFA07F0A5FB040011
:104150000020002107F060FC401C60601FBD10B50E
:1041600010BD07F079FB1146FFF7E8FF00F04DFAAC
:1041700007F0A5FB03B4FFF7F2FF03BC07F0D4FB85
:10418000401E00BF00BF00BF00BF00BF00BF00BF98
:1041900000BF00BF00BF00BF00BFF1D170470000EB
:1041A000401E00BF00BF00BF00BF00BF00BF00BF78
:1041B00000BF00BF00BF00BF00BFF1D170470000CB
:1041C000401E00BF00BF00BF00BF00BF00BF00BF58
:1041D00000BF00BF00BF00BF00BFF1D170470000AB
:1041E00070B505460C46164602E00FCC0FC5103ED2
:1041F000102EFAD2082E02D303CC03C5083E042E9B
:1042000007D301CC01C5361F03E021782970641C57
:104210006D1C761EF9D270BD0A4802680F210A4350
:1042200002600948804709480047FEE7FEE7FEE7CD
:10423000FEE7FEE7FEE7000005480649064A074B91
:10424000704700002405004005430100C140010003
:10425000002D0020003D002000350020003500200A
:1042600032483349086070473248008CC0B2012898
:1042700012D13048808C0007000F00280CD12D4847
:10428000806AF0210840402806D12A48C06A0840C8
:10429000002801D1012070470020FCE72548008C50
:1042A000C0B201282CD12348808C0007000F0028C1
:1042B00026D12048806AF0210840002806D11D48F8
:1042C000C06A0840002801D1012070471948806A5F
:1042D000F0210840102806D11648C06A084000287E
:1042E00001D10120F1E71348806AF021084030280D
:1042F00006D11048C06A0840002801D10120E4E737
:104300000020E2E710B5FFF7C9FF002805D00A48F2
:104310000A494860C8130A498861FFF7A5FF0028C9
:1043200002D001200749886010BD00000024F4007D
:1043300000200020C00F00F0DFFF07C00005004094
:10434000006C00400006004038B506210091684628
:104350000588284606F0C4FE0446DB49C88D23467E
:104360006A460021A5DFD9480078002803D00A203A
:1043700000F0A0F902E00A2000F0A1F9D34800788B
:1043800001214840D1490870204606F0DAFE38BDC8
:1043900070B504460D4616460A2000F08BF93246E9
:1043A0002946204603F0C0FA70BD70B504460D469C
:1043B0002A462146C648FFF7EBFF70BD00BF00BF8D
:1043C000032005210907072212028918086200BF8D
:1043D00000BF00BF00BF052109078918486200BF60
:1043E00000BF00BF00BF052109078918886200BF10
:1043F00000BF704700BF00BF03200004052109076C
:10440000072212028918C86200BF00BF7047F8B5C2
:1044100006460621009168460588284606F060FE9B
:10442000044668460188204606F03DFFA649C88D2F
:1044300023466A460021A5DF2078401C20702078A2
:104440000A2804D1002020706078401C60706078D9
:104450003C2804D100206070A078401CA070A07897
:104460003C2804D10020A070E078401CE070E07887
:10447000182804D10020E0702079401C2071924956
:10448000C88D23466A460021A4DF204606F059FE67
:10449000F8BDF8B500BF00208E4B05220321009027
:1044A00002F0A6FE054600BF2E46002E06D000BF35
:1044B00089A284213046FFF76BFF00BF00BF00BF19
:1044C000884A0121884802F00EFF044600BF2546B5
:1044D000002D06D000BF80A288212846FFF758FF94
:1044E00000BF00BFF8BD70B5002280497E4800685B
:1044F00002F040FF044600BF2546002D06D000BF55
:1045000075A293212846FFF743FF00BF00BF70BD8F
:1045100010B508200F2108E0012205231B070724FE
:1045200024021B1984001A51401C8842F4D900BF90
:1045300000220221104603F019FA10BD70B505469D
:1045400029466148443001F03AFD0446002C0ED063
:10455000082C0CD06648844209D06648844206D0B4
:1045600000BF5DA2A8212046FFF712FF00BF70BD6B
:10457000F8B507460E4614462046E10F09184910C3
:104580004900611A00D0F8BD4F482830C07B01288F
:104590000FD1002507E06A00521CB15C6A00B05CD4
:1045A00000F0A7FB6D1CE10F09194910A942F2DCCC
:1045B00000E000BF00BFE6E770B505460C461646B2
:1045C00020780A2808DA60783C2805DAA0783C28A8
:1045D00002DAE078182800DB70BD4348006802F07A
:1045E000FAFEFFF780FF00BFF6E770B53DDF044637
:1045F00000BF2546002D06D000BF37A2D021284697
:10460000FFF7C6FE00BF00BF70BDFF20F53003F00E
:10461000E9FBFFF7D3FEFFF73CFFFFF7EBFEFFF7E9
:1046200077FF00220321012006F04EFC32A135481D
:1046300000F0FEFB2C4800682349C8653248086634
:1046400032484866084600F0D7FA2E49304800F054
:10465000AEFC002802D10A2000F02CF8FFF743FF3F
:1046600000F0D1F903F0A9F92A490870084600784A
:10467000FFF764FF00BF14482830C07B002806D035
:10468000012807D002280BD0042811D10FE0FFF732
:10469000ACFF0EE00A2000F012F8FFF7A6FF08E0DA
:1046A00000F0A4FE002801D0FFF74EFE01E000E07C
:1046B00000BFE0E701218140174A91607047012166
:1046C0008140154AD1607047AC20002009200020AD
:1046D000EFBEADDEB82700202E2E5C6D61696E2E18
:1046E000630000000F44010004200020CD0C0000F6
:1046F00003300000013400004D50555F53656E7368
:104700006F7200001421002071450100B9450100BD
:104710002421002008200020000500503EB500BFE5
:104720006846007801090901491C00916846007833
:10473000F02188431030009000BF0A22FBA1684698
:104740006CDF044600BF2546002D06D000BFFAA24C
:104750001E212846FFF71CFE00BF00BF002001906D
:1047600002900621684681801821C18000210181C4
:10477000FF219131418101A86ADF044600BF25462F
:10478000002D06D000BFECA228212846FFF700FE2E
:1047900000BF00BF3EBD30B5A1B005210291EA487F
:1047A00000680190E9480068017A684681713C21FF
:1047B00012A806F07AFD02201290002110A8417381
:1047C0000121018202A915913C2103A806F06DFD8B
:1047D00001216846018501A90B9103A912A802F0E5
:1047E000D4F8044600BF2546002D06D000BFD2A253
:1047F00045212846FFF7CCFD00BF00BF21B030BDEA
:1048000030B585B0D1480068C16DD048006881637B
:10481000CE480068016ECD480068C163CB4800688F
:10482000416ECA4800680164C8480068083001F059
:104830001DFA044600BF2546002D06D000BFBEA2CB
:1048400055212846FFF7A4FD00BF00BF142168468C
:1048500006F02BFD00BF6846407B01090901491C99
:1048600068464173407BF0218843103069464873A5
:1048700000BF00BF6846807B00090001401C8873B0
:104880006846807BF021884310306946887300BFFA
:1048900000BF6846C07B00090001C8736846C07B42
:1048A000F02188436946C87300BF00BF6846007C9A
:1048B00001090901491C68460174007CF021884304
:1048C00010306946087400BF00200090012168463E
:1048D00001710020029064216846017369469B487B
:1048E0000068443001F04AFB044600BF2546002D15
:1048F00006D000BF90A267212846FFF749FD00BF00
:1049000000BF05B030BD1E209049096808808F485F
:104910000068807840084000401C8C490968887015
:104920008A4800688078022188438849096888702D
:104930008648006880781C2188430C3083490968C8
:104940008870824800688078202188437F49096800
:10495000887007207D490968C87010207B49096864
:104960000871704770B505462868002817D1774848
:1049700000682830C07B032811D074490968C888B2
:104980003B2166DF044600BF2646002E06D000BF4E
:1049900069A283213046FFF7FBFC00BF00BF70BD5A
:1049A00010B5044600BF64A28D212046FFF7F0FC3D
:1049B00000BF10BD30B587B01C21684606F075FCFD
:1049C00000200090052040040190801002900121F9
:1049D000684601730021C18101745D4805905D48FE
:1049E0000690684602F0E3FD044600BF2546002D10
:1049F00006D000BF50A2A4212846FFF7C9FC00BF83
:104A000000BF07B030BD30B585B01421684606F050
:104A10004CFC00216846017000200190684601723C
:104A200040210182B421418263DF044600BF254654
:104A3000002D06D000BF40A2B8212846FFF7A8FCF1
:104A400000BF00BF082000F0F7F805B030BDF8B592
:104A5000044600252088142840D006DC10280BD0FE
:104A6000112817D013287BD121E0172830D019281E
:104A70004AD05228F7D123E0092000F0DDF80820C1
:104A800000F0DFF8A08831490968C8800020324969
:104A9000086079E0092000F0D4F80020C0432B49D9
:104AA0000968C880002D01D1FFF7ADFF6CE02749F0
:104AB0000968C88825490A6800216FDF054663E058
:104AC00022490968C88800221146A9DF05465BE033
:104AD0003222A11D214806F089FB55E01F4EB61D6C
:104AE0003188E089814207D118490968C8880022C5
:104AF000314671DF054606E014490968C88800227E
:104B0000114671DF05463FE0A07900283AD1082020
:104B100000F097F810480068052822DAFFF773FFC5
:104B20000D480068401C0C4908602BE04D50555F53
:104B300053656E736F7200002E2E5C626C655F6948
:104B40006E69742E63000000F4BA01000C2000208E
:104B500065490100A149010010200020F82900202A
:104B600011E000BF00BF0320000405210907072250
:104B700012028918C86200BF00BF31DF054600205D
:104B80003249086000E000BF00BF00BF2F46002F81
:104B900007D000BF2E4AFF210A313846FFF7F8FB45
:104BA00000BF00BFF8BD10B50446204602F0D3FD9B
:104BB000214628480068083000F0BDFD2046FFF778
:104BC00046FF10BD38B500BF0020234B50222349BB
:104BD00000900D2002F025FE044600BF2546002D62
:104BE00007D000BF1A4AFF211A312846FFF7D0FB31
:104BF00000BF00BF00BF38BD38B50446154804608B
:104C00000020C04313490968C88000200F4908608C
:104C1000FFF7D8FFFFF782FDFFF7F2FDFFF7BBFDBF
:104C2000FFF7C8FEFFF76FFE10200090E08A0CA38C
:104C30006A460021A4DF38BD012181400C4A916001
:104C40007047012181400A4AD1607047102000203E
:104C5000384B01000C200020A74B01002C2A00201B
:104C600044454641554C54204D455353414745001A
:104C70000005005038B504460D466846047045707E
:104C8000012302226946D02003F068F838BDF8B548
:104C900004460D461646032C1CD10A2168460170B5
:104CA00001214170012302226946182003F056F8C1
:104CB0000A2003F097F86846047001231A466946F3
:104CC000182003F04BF8012306222946192003F08F
:104CD00045F80DE06846047001231A466946D02065
:104CE00003F03CF8012332462946D12003F036F880
:104CF000F8BD70B505460C46112D06D0122D37D0E3
:104D0000132D43D0142D5BD14EE0230006F076FE28
:104D100008050A0F14191E23282D0120634909686C
:104D2000087123E000206149096808711EE0012034
:104D30005E490968487119E000205C4909684871BA
:104D400014E001205949096888710FE00020574993
:104D5000096888710AE0012054490968C87105E0B2
:104D6000002052490968C87100E000BF00BF28E078
:104D7000002C03D0082C01D0102C06D14B48006821
:104D8000047221461C20FFF775FF1AE0082C03D09F
:104D9000102C01D0182C06D14448006844722146DA
:104DA0001B20FFF767FF0CE0042C03D0022C01D07E
:104DB000012C04D1322060433C490968086000E0BE
:104DC00000BF00BF70BD70B50546002437480068BD
:104DD0000079002806D0291906223B20FFF757FF4B
:104DE000A01D84B2314800684079002806D02919F6
:104DF00006224320FFF74BFFA01D84B22B4800681A
:104E00008079002806D0291906220320FFF73FFFEA
:104E1000A01D84B225480068C079002806D0291951
:104E200002224120FFF733FFA01C84B2204670BD50
:104E300070B504460D4602F078FE1C4804606420FC
:104E400020600120207160710020A071E07120724B
:104E500008206072E56018211920FFF70BFF01217F
:104E60001A20FFF707FF00212320FFF703FF02218D
:104E70003720FFF7FFFE00213820FFF7FBFE00215F
:104E80006A20FFF7F7FE00216B20FFF7F3FE617A3F
:104E90001B20FFF7EFFE217A1C20FFF7EBFE0A2014
:104EA00001218140024AD16000BF70BD1420002062
:104EB00000050050F0B587B004460F4605A800F085
:104EC00071FBF9480068F94A8018C168F648006823
:104ED000801804F0B3FE05466846017D427D837D5F
:104EE000C07D02930392049101906846007E009079
:104EF0006846437E2246EEA1EB480068EB4E8019DF
:104F000005F0EAFE0546002D02D0002007B0F0BDF6
:104F10000120FBE770B5044612222146E2480068F2
:104F2000E24BC01804F0E7FA0546002D1FD101201E
:104F3000DD4909680D22D20189180873042006F0A2
:104F4000CFF8D94909680D22D20189180861204695
:104F500006F02AF90646D44909680D22D2018918BB
:104F600032460869214606F041F9012070BD002053
:104F7000FCE71CB51122D7A1CB480068CB4BC01869
:104F800004F0B9FA002001906B46042201A9C6483A
:104F90000068C64C001904F085FB01A800F0EAFA8D
:104FA000C14800682146401804F002FE1CBD70B5DF
:104FB00004460D46BC480460C94805600020C94944
:104FC0000860B9480168091D002004F07EFAB6485F
:104FD00002680068D121C9004118C3A004F0ADFFE8
:104FE0000646002E01D0002070BDC0A005F0FBF8E1
:104FF000C1A004F0F1FD0422B6A1AB480068AB4BA0
:10500000C01804F078FA002815D1A7480068A7490D
:10501000401804F0CDFD1222AEA1A3480068A34BB6
:10502000C01804F068FA0022B6A19F4800689F4BA0
:10503000C01805F051FE9C4800689C49401804F0D7
:10504000B7FDFFF796FF0120CEE770B58AB00646A0
:10505000954800680D21C9014018007B002802D046
:1050600000200AB070BD00209E490860112299A15D
:105070008D4800688D4BC01804F03DFA0020049064
:1050800003AB042204A988480068884D401904F045
:1050900009FB854800682946401804F089FD8DA069
:1050A000FFF738FF04A806F072F8441C224697A1C7
:1050B0007D4800682B46C01805F00EFE304606F00D
:1050C00073F8C5B229463046FFF7F4FE764800680B
:1050D0007649401804F06CFD3046FFF71BFF8D4801
:1050E00000F060FA05A800F051FA00228AA16E488B
:1050F00000686E4BC01805F0EFFD002000900346DD
:1051000002468BA1019068480068684D401905F07F
:10511000E3FD00200090034602468BA10190624807
:105120000068401905F0D8FD6D4800688CA1C26880
:105130005D4800682B46C01805F0CEFD6848006841
:105140000079002806D08AA1574800682A468018AE
:1051500005F0C2FD624800684079002806D086A1AB
:1051600051480068514A801805F0B6FD5C48006857
:105170008079002806D082A14B4800684B4A8018ED
:1051800005F0AAFD56480068C079002806D07EA127
:1051900045480068454A801805F09EFD5AA14248DE
:1051A0000068424A801805F097FD4D480068006885
:1051B00000904B480068437A49480068027A74A11D
:1051C00039480068394D401905F086FD05AA78A1D7
:1051D000354800682B46C01805F07EFD0120324995
:1051E00009680D22D2018918087300BF39E71FB57D
:1051F0002D4800680D21C9014018007B002801D10D
:1052000004B010BD00200290039002A800F0CAF97B
:10521000254800682549401804F068FC22480068C9
:105220002249401804F0C4FC1F4909680D22D2012C
:1052300089180869FFF76EFE2A4837A102681A48E4
:1052400000681A4BC01805F047FD32480078314914
:105250004978009101902F488378C27855A112486F
:105260000068124C001905F037FD6846017A407A53
:10527000019100906846837AC27A55A10A48006875
:10528000001905F029FD084800682146401804F07F
:105290008FFC0020044909680D22D2018918087387
:1052A000FFF767FE0120ABE71C2000205C04000034
:1052B000257320253032642E253032642E2025308F
:1052C00032643A253032643A253032642E25303249
:1052D000640A00005265636F72642E747874000073
:1052E0001820002028200020303A00004D50555F43
:1052F00044415441000000002F4D50555F4441543B
:1053000041000000253034640A0000002530346478
:1053100000000000202000202530366420646174E5
:105320006120636F6C6C65637465640A0000000043
:1053300053746172743A2532643A2532643A2532E4
:10534000642E2532640A0000456E643A2532643AC0
:105350002532643A2532642E2532640A00000000AA
:1053600049443A25732054797065733A000000006F
:1053700020414343454C0000204759524F00000054
:10538000204D4147000000002054454D50000000D2
:105390005363616C653A2532582F2532582053618A
:1053A0006D706C696E6720726174653A25640A00DD
:1053B00025730A0053746172743A253032643A25B9
:1053C0003032643A253032642E253032640A0000CF
:1053D000456E643A253032643A253032643A2530DD
:1053E00032642E253032640A0000000070B586B0A9
:1053F0000026294800680D21C9014018007B0028BB
:1054000001D106B070BD01A8FFF7DDFC0446C00F56
:105410000019C005060E214821A102681E48006837
:10542000204BC01805F058FC002412E0600001A9D0
:10543000085C00026100491C01AA515C084305B2E6
:105440002A4619A114480068164BC01805F044FC00
:10545000641CB442EADB15A10F480068114A8018A9
:1054600005F03AFC7D21C9000C48006805F060FF9A
:10547000002905D1084800680A49401804F036FBA5
:1054800006480068401C0549086009490968086821
:1054900002F0A8FC0120B4E71C20002028200020F6
:1054A00025643A005C040000202564000A00000026
:1054B00018200020F8B505460E4600243278214613
:1054C000641C6A5472782146641C6A5400BF022C22
:1054D00001D1012000E000200746002F05D100BFC8
:1054E00016A21B21FEF754FF00BF00BF2046F8BDE7
:1054F00070B504460D46284605F056FE20806560CE
:1055000070BD0246114609110907090F092903DD7B
:1055100008463730C0B2704708463030C0B2FAE7AC
:10552000024611460907090F092903DD08463730ED
:10553000C0B2704708463030C0B2FAE72E2E5C2E5B
:105540002E5C2E2E5C2E2E5C2E2E5C536F7572639D
:10555000655C626C655C626C655F736572766963DD
:1055600065735C626C655F7372765F636F6D6D6FA0
:105570006E2E630038B5044604200090FE49096889
:10558000C88823466A460021A4DF38BD38B50446E2
:1055900014200090F8490968C88923466A4600210A
:1055A000A5DF38BDF8B50546062100916846068896
:1055B000304605F095FD0446EF490968C88C23463E
:1055C0006A460021A5DF684602882146284605F084
:1055D0000DFEE94909680022086BE84901F0CAFE9E
:1055E000204605F0AEFDF8BD7CB5054600200090D4
:1055F00001906846FFF7D6FF002415E00521091B3E
:105600006A46505C0A2105F093FE30306100685410
:105610000521091B6A46505C0A2105F089FE3031DC
:105620006000401C2954641C062CE7DB7CBD38B5A7
:1056300004460D46A888A08001212F200155012095
:105640000090E08A23462F336A460021A4DF38BD4C
:1056500070B504460D460020C043A0802F20005D99
:10566000022801D1FFF7C3FD00212F20015570BD95
:10567000F0B587B004460F46BD1D2888E18A8842F0
:1056800043D12E461A363078012809D12F20005DEB
:10569000022801D1FFF7ABFD01212F20015533E096
:1056A0002F20005D012826D13078022805D03078DF
:1056B000032802D0307804281DD131782F200155DD
:1056C0003078022820D1AEA001460EC9C0680293EE
:1056D000019200910390002004900590069004A888
:1056E000FFF782FF082204A9684605F0E1FD68463D
:1056F000FFF7ABFC08E001200690E08A23462F3339
:1057000006AA0021A4DF00BF00BF2888E18B8842E1
:1057100005D12A8B29461A312046636B9847288881
:10572000E18C884205D12A8B29461A312046A36B89
:10573000984707B0F0BD70B505460C462088102884
:1057400004D0112807D050280FD109E0214628465F
:10575000FFF76DFF0AE021462846FFF779FF05E0D5
:1057600021462846FFF784FF00E000BF00BF70BD60
:1057700010B590B004460020089000BF08A800783B
:1057800001090901491C08A801700078F02188432B
:10579000103008A9087000BF00BF08A840780109B0
:1057A0000901491C08A841704078F0218843103055
:1057B00008A9487000BF08A8807806218843811C8A
:1057C00008A881701C2109A805F06FFD08A80079C0
:1057D00002218843811C08A8017100200A900C90C6
:1057E0000D9008A80E9000200F90217868468172D5
:1057F000FF21023101810020019000BF684600793D
:1058000001090901491C684601710079F0218843AA
:1058100010306946087100BF00BF68464079010931
:105820000901491C684641714079F02188431030D4
:105830006946487100BF6846807906218843811C0B
:1058400068468171807908218843014668468171E4
:10585000807910218843014668468171807941082A
:105860004900491C68468171142103A805F01DFDFB
:1058700002A8039001A804900421684681820021B7
:10588000C182042101836088A31D03AA09A9A2DFA4
:1058900010B010BD10B590B004460020089000BFB5
:1058A00008A8007801090901491C08A801700078BE
:1058B000F0218843103008A9087000BF00BF08A875
:1058C000407801090901491C08A841704078F0217D
:1058D0008843103008A9487000BF08A880780621C6
:1058E0008843811C08A881701C2109A805F0DDFCF3
:1058F00008A8007902218843811C08A80171007959
:1059000008218843411808A8017100200A900C90D2
:105910000D9008A80E9000200F90217868468172A3
:105920001B4901810020019000BF684600790109F0
:105930000901491C684601710079F0218843103043
:105940006946087100BF00BF684640790109090136
:10595000491C684641714079F021884310306946FE
:10596000487100BF6846807906218843811C6846DB
:105970008171807908210DE02C200020CD0C0000E1
:1059800078787878787878782E74787400000000C9
:105990000203000088430146684681718079102126
:1059A0008843014668468171807941084900491C55
:1059B00068468171142103A805F077FC02A80390C2
:1059C00001A804900121684681820021C18214212E
:1059D0000183608823460E3303AA09A9A2DF10B011
:1059E00010BD10B58EB004461C2107A805F05DFC63
:1059F0006846007F08218843411868460177007F88
:105A000002218843811C68460177002008900A9093
:105A10000B900C900D90217868468171BD49818072
:105A20000020009000BF6846007801090901491C68
:105A3000684601700078F02188431030694608708C
:105A400000BF00BF6846407801090901491C68464B
:105A500041704078F021884310306946487000BF9B
:105A60006846807806218843811C6846817080786A
:105A70000821884301466846817080781021884358
:105A8000014668468170807841084900491C684693
:105A90008170142102A805F008FC01A80290684654
:105AA00003900121018200214182012181826088CD
:105AB0002346163302AA07A9A2DF0EB010BD10B507
:105AC0008EB004461C2107A805F0EFFB6846007F56
:105AD00008218843411868460177002008900A9001
:105AE0000B900C900D902178684681718949491C72
:105AF00081800020009000BF6846007801090901FC
:105B0000491C684601700078F021884310306946CE
:105B1000087000BF00BF6846407801090901491CB0
:105B2000684641704078F0218843103069464870DB
:105B300000BF6846807806218843811C68468170D2
:105B4000807808218843014668468170807810215A
:105B50008843014668468170807841084900491CA5
:105B600068468170142102A805F09FFB01A80290ED
:105B70006846039001210182002141821421818223
:105B8000608823461E3302AA07A9A2DF0EB010BD0B
:105B900010B58EB004461C2107A805F086FB6846A8
:105BA000007F08218843411868460177007F022161
:105BB0008843811C68460177002008900A900B906A
:105BC0000C900D90217868468171534981800020A6
:105BD000009000BF6846007801090901491C684629
:105BE00001700078F021884310306946087000BFCA
:105BF00000BF6846407801090901491C68464170A8
:105C00004078F021884310306946487000BF6846EC
:105C1000807806218843811C68468170807808213D
:105C20008843014668468170807810218843014688
:105C300068468170807841084900491C6846817037
:105C4000142102A805F031FB01A8029068460390D8
:105C5000062101820021418206218182608823463B
:105C6000263302AA07A9A2DF0EB010BD30B585B059
:105C700005462A4B0FCB6C460FC42948056000200F
:105C8000C043A88001212E20415500212F204155DD
:105C90002946684652DF0446002C02D0204605B053
:105CA00030BD29786846817401210182AA1C04A9AB
:105CB0000120A0DF0446002C01D02046EFE7284653
:105CC000FFF756FD0446002C01D02046E7E72846A2
:105CD000FFF787FE0446002C01D02046DFE7284668
:105CE000FFF7EDFE0446002C01D02046D7E72846FA
:105CF000FFF74EFF0446002C01D02046CFE7284690
:105D0000FFF7C8FD0446002C01D02046C7E700205D
:105D1000C5E700000102000001030000F8BA01001D
:105D20002C2000208A88428270470022D24342827F
:105D30007047F8B504460E46207D002820D0B51DDA
:105D40002988608981421AD1288B022817D12068BE
:105D5000002814D000BF00BFA97EEA7E12021143C2
:105D60000846C107C90F002902D00020009001E0B9
:105D700001200090694620462268904700BF00BF7E
:105D8000F8BD70B505460C462088102804D01128AF
:105D900007D050280FD109E021462846FFF7C2FF5F
:105DA0000AE021462846FFF7C0FF05E021462846C5
:105DB000FFF7BFFF00E000BF00BF70BDF0B591B0BE
:105DC00004460D46207D002819D00020099000BF10
:105DD00008A8007901090901491C08A80171007986
:105DE000F0218843103008A9087100BF697B08A81A
:105DF0004171807906218843801C08A988711C2183
:105E00000AA805F052FA08A8007A02218843811CEA
:105E100008A80172007A10218843217D002901D051
:105E2000012100E00021090110221140084308A9C6
:105E3000087200200B900D900E90207D002801D05C
:105E400009A800E000200F900020109000BF012161
:105E5000684681737749818100BF00200290A97B49
:105E600068460172E97B4172807A06218843811C71
:105E700068468172807A08218843014668468172AB
:105E8000807A10218843014668468172807A4108F1
:105E9000490068468172297B0191142104A805F00C
:105EA00004FA03A8049002A8059001216846018322
:105EB000002141830121818301A80890A088A31DAE
:105EC00004AA0AA9A2DF0646002E02D0304611B06D
:105ED000F0BDA86800284DD000BF0121684681733D
:105EE0005549818100BF00200290287C69460872D4
:105EF00000BF6846407A0109090168464172407A4C
:105F0000F02188436946487200BF6846807A0621BE
:105F10008843811C68468172807A08218843014643
:105F200068468172807A10218843014668468172F2
:105F3000807A4108490068468172A968FFF7BAFA79
:105F40000746142104A805F0B0F903A8049002A89C
:105F500005906846078300214183018B8183089067
:105F6000E08822460E3204A9A3DF0646002E03D0A5
:105F70003046ACE70020E0810020A8E7F8B50446F1
:105F80000D46286820600020C04360822879207573
:105F9000FF20207400BF01216846817027490180DD
:105FA00000BF221D69460120A0DF0646002E01D059
:105FB0003046F8BD29462046FFF700FFF9E733B524
:105FC00085B004460025207C6946097E88422FD092
:105FD000012104916846007E2074E08806AB04AA83
:105FE0000021A4DF0546002D02D0284607B030BDB1
:105FF000608A1349884219D0207D002816D00020DD
:10600000009001900290039001210491E18868467C
:106010000180012181700021818004A8029006A8DE
:106020000390608A6946A6DF054600E0082500BFA8
:106030002846DBE7192A0000082900000F18000095
:10604000FFFF0000F8B504465D4806686D46771B03
:10605000FF200130874200D900E038460246294639
:1060600020468830FEF7BCF8F8BDF8B504460F4668
:10607000154662200090012052490880084644607D
:1060800045807F223946083005F012F900214D483D
:106090006830C1776838FFF7D5FF4B484069401C2E
:1060A000002808D001221207126991B2464A5069AD
:1060B00005F034F902E0012000074069801EC6B2F5
:1060C00040493046009A00F032F9F8BDF8B5044670
:1060D0006220009000253C484069401C002808D000
:1060E00001221207126991B2374A506905F016F978
:1060F00002E0012000074069801EC6B26A462146C0
:10610000304600F050F90546052D01D10020F8BDBC
:10611000002D01D02846FAE72088002800D1F6E7B4
:106120000E2001218140294A916000BF00BF2088D4
:10613000002803D0264800780028F8D00E2001213E
:106140008140224AD16000BF1F484069401C00289E
:1061500008D001221207126991B21B4A506905F05A
:10616000DDF802E0012000074069801EC6B230461B
:1061700000F0D0F805462846C9E701201449087008
:10618000704738B50021009168460078002815D086
:106190000C48FFF79BFF044600BF002C01D0052CE4
:1061A00001D1012000E000200546002D05D100BFEF
:1061B00008A27C21FEF7ECF800BF00BF38BD00004C
:1061C000004001007C2A0020001000100005005053
:1061D000302000202E2E5C2E2E5C2E2E5C2E2E5C6F
:1061E0002E2E5C536F757263655C626C655C626CCD
:1061F000655F6572726F725F6C6F672E630000007F
:1062000070B503460C46002A01D1894D00E015887F
:106210002846002111E0051206023543A8B25D5C54
:10622000684005062D0F684005034540A8B20506E5
:106230002D0D6D0068404D1CA9B2A142EBDB70BD75
:1062400002217C4A516000BF7B4909680029FBD0CC
:106250007849886000BF784909680029FBD000218F
:10626000744A516000BF744909680029FBD0704727
:106270000122704B5A6000BF6F4A1268002AFBD09F
:10628000016000BF6C4A1268002AFBD00022694BF3
:106290005A6000BF684A1268002AFBD0704770B588
:1062A00004460D4600E03DDF644800780028FAD13E
:1062B00001206049486000BF5F4800680028FBD0AB
:1062C000256000BF5C4800680028FBD000205949C9
:1062D000486000BF584800680028FBD070BD70B50A
:1062E00004460D4629462046FFF7D9FF002070BD21
:1062F000F8B505460E461746002407E0A0003158C1
:106300002846FFF7CCFF2D1D601C84B2BC42F5DB94
:106310000020F8BD70B5044601200007006980B276
:10632000604305462846FFF78BFF002070BDF7B598
:1063300084B0154601200007006980B204994843E3
:1063400007463C46A90000220598FFF759FF039035
:1063500020680190019880B20290039902988842C7
:1063600002D1002007B0F0BD3846FFF769FF241DB9
:10637000241D002607E0B200059881582046FFF74B
:1063800077FF241D761CAE42F5DB2946381DFFF74A
:1063900086FF2B4903980843019038460199FFF77F
:1063A0007EFF0020DEE7F7B586B0074614460120E1
:1063B0000007006980B278430490049D2868039028
:1063C0000398000C000401901D490198884204D0F4
:1063D00000202070052009B0F0BD2D1D2878207008
:1063E0002D1D2078800005902946059A0798FDF715
:1063F000F7FE2078810000220798FFF701FF06468C
:106400000F483043029003990298884201D005203A
:10641000E1E70020DFE7024601200007006980B2C3
:10642000504308600020704704490870704700001E
:10643000FFFF000000E5014000E4014031200020A2
:106440000000DE45FEB505460E4614462078801C49
:106450001F21081A80B200902178891C881969468A
:106460006DDF01900198002801D00198FEBD2879C8
:10647000002808D0287969460988884203DA2879F3
:106480000090082700E0092768460088401CC1B238
:106490002278501C2070B1542178481C2070775409
:1064A000217868460088081820700020DEE7F8B5DB
:1064B00005460C462078001D1F2801DD0C20F8BD84
:1064C000684669DF0646002E01D03046F7E7032113
:1064D0002278501C2070A95419212278501C207059
:1064E000A954207841196846008800F08BFA217879
:1064F000401820700020E2E7F8B505460F46164622
:106500001C466868002801D10720F8BD2078801C4F
:10651000298840181F2801DD0C20F6E72878401C48
:10652000C1B22278501C2070B1542178481C2070D0
:1065300077542A8823789819696804F057FE2078E0
:106540002978401820700020DFE730B50346107826
:10655000C01C1F2801DD0C2030BD02241578681CEA
:1065600010704C550A241578681C10704C5515781D
:10657000681C10704B550020EEE7FFB587B006464B
:106580001D46109C0020069020780590002747E0CB
:10659000B900706841180A886846028149884181BB
:1065A000002203A902A854DF04900498002802D016
:1065B00004980BB0F0BD6846017B099881422ED14A
:1065C0000698002801D0002000E0022001902078E9
:1065D0006946097B4118019808181F2801DD0C2025
:1065E000E7E70698002809D12078401C207022781F
:1065F000511C08982170A854012006902078421957
:1066000003A902A854DF04900498002801D004983C
:10661000CFE720786946097B4018207000BF7F1CB7
:106620003088B842B4DC0698002806D02178059856
:10663000401C081AC1B2059829540020B9E7FFB5DB
:1066400081B0074615460A9E009602223846049BF2
:106650000299FFF792FF0446002C02D0204605B0B5
:10666000F0BD0096102229463846049BFFF785FFAF
:106670000446002C01D02046F1E70020EFE7014658
:106680000888062808DB08881922D201904205DD17
:106690000888E14A904201D00720704748880628C0
:1066A00008DB48881922D201904205DD4888DA4A81
:1066B000904201D00720F0E70888D74A904208D0DE
:1066C0004888904205D008884A88904201DD07201A
:1066D000E3E70020E1E7F8B506460D4614462078CA
:1066E000801D1F2801D90C20F8BD3046FFF7C7FFD9
:1066F0000746002F01D03846F6E705212278501CC6
:106700002070A95412212278501C2070A95422789C
:106710005119308800F076F92178401820702278DD
:106720005119708800F06EF921784018207000200F
:10673000DAE7F8B505460E4614462879801CC7B23C
:106740002078801CC0191F2801DD0C20F8BD781CA2
:10675000C1B22278501C2070B154FF212278501C05
:106760002070B15422789119288800F04BF92178D3
:1067700040182070A88800280EDDA868002801D1E4
:106780000720E3E7AA8823789819A96804F02EFD6A
:1067900020782979401820700020D7E7FEB50746F9
:1067A0000E461446786B002801D10720FEBD00205C
:1067B000019032E0796B0C22019850430D18287932
:1067C000801CC0B200900098401CC1B22278501CBE
:1067D0002070B15416212278501C2070B1542278B8
:1067E0009119288800F00EF9217840182070A888A7
:1067F00000280EDDA868002801D10720D6E7AA8866
:1068000023789819A96804F0F1FC207829794018B8
:1068100020700198401CC0B201903820C15D0198E1
:106820008142C7DC0020C1E7F8B504460F46164692
:106830000025002030702068002809D032463946F3
:106840002046FFF7FFFD0546002D01D02846F8BD84
:106850006079002808D031463846FFF728FE054603
:10686000002D01D02846F2E7208900280BDD3346B1
:106870003A46012120460830FFF73EFE0546002D2E
:1068800001D02846E3E7206900280BD000202169C9
:10689000085632463946FFF758FE0546002D01D00E
:1068A0002846D4E7A08A00280CDD3B4606220221B8
:1068B000204614300096FFF7C2FE0546002D01D099
:1068C0002846C4E7A08B00280CDD3B4607220321A5
:1068D00020461C300096FFF7B2FE0546002D01D081
:1068E0002846B4E7A08C00280CDD3B461522142175
:1068F000204624300096FFF7A2FE0546002D01D069
:106900002846A4E7E06A002809D032463946E06A02
:10691000FFF7E1FE0546002D01D0284697E7206BE2
:10692000002809D032463946206BFFF702FF0546A2
:10693000002D01D028468AE73820005D002809DDB7
:10694000324639462046FFF729FF0546002D01D083
:1069500028467CE728467AE701460889002808D0BF
:10696000C868002805D0C8680078042210400028B4
:1069700001D1072070470020FCE701460889002864
:1069800001DD072070470020FCE7F3B593B00D460A
:106990000021129111911398002814D01398FFF739
:1069A000DBFF0446002C02D0204615B0F0BD12AA31
:1069B00009A91398FFF738FF0446002C01D02046A0
:1069C000F3E709AE00E00026002D13D02846FFF7BC
:1069D000D4FF0446002C01D02046E6E711AA01A905
:1069E0002846FFF721FF0446002C01D02046DCE7B3
:1069F00001AF00E0002710A803793A46017A30463B
:106A000062DFD2E702460A70FF2000021040001247
:106A10004870022070470000FFFF000010B50028FA
:106A200019DAFA4A03071B0F083B9B089B00D25850
:106A30008307DC0EFF23A3409A438B071B0E8407BA
:106A4000E40EA3401A43F14B0407240F083CA408AA
:106A5000A4001A5118E0EE4A03231B02D21883083F
:106A60009B00D2588307DC0EFF23A3409A438B0779
:106A70001B0E8407E40EA3401A43E54B03242402B3
:106A80001B198408A4001A5110BD10B50446E14832
:106A9000846003211120FFF7C1FF10BD10B5012054
:106AA0000004DD494860DC4940394860112000F0AD
:106AB000DDFC112000F0CCFC0120D84908602F201B
:106AC000FDF75EFB10BD10B5112001218140D04AB9
:106AD0008032116000BF01200004CF498860CE4998
:106AE000403988600120CD4948602F20FDF748FBE0
:106AF00010BDF0B5024628205043C94B1B68C11891
:106B0000C8480068401C002802D1C648026059E00D
:106B1000C4488B68006828246043C14C246800196D
:106B20008068834217D8BF48006828235843BC4B6D
:106B30001B68C01880688B68C31ABA48006828248C
:106B40006043B74C246800198360B6480068486207
:106B5000B448026036E08B68B24D2C6828680DE0BE
:106B600028254543AE4E3668AD19AD685B1B04461B
:106B700028254543AA4E3668AD19686A451C002D84
:106B800007D028254543A64E3668AD19AD689D420D
:106B9000E6D3451C002D0CD028254543A04E366871
:106BA000AD19AD68EE1A282545439D4F3F68ED1994
:106BB000AE608B60486228256543994E3668AD19F2
:106BC0006A6200BFF0BD70B50246964C2168084667
:106BD00009E0904200D109E0014628244443904D49
:106BE0002D686419606A441C002CF2D100BF441C5B
:106BF000002C00D170BD814209D18A4C246828251F
:106C00006C43874D2D686419646A864D2C60282476
:106C10004443834D2D686419A36828244443804D60
:106C20002D686419656A28244C437D4E3668A41982
:106C3000656228244C437A4D2D686419606A441CAF
:106C4000002C0CD028244443754D2D686419A46889
:106C5000E51828244443724E3668A419A56000BF85
:106C6000C8E710B5112000F0FAFB10BD10B51420D4
:106C700000F0F5FB10BD70B504466B4800680028B5
:106C800013D0694A216AE06912689047054600BF3F
:106C90002E46002E07D000BF64A2FF21553130469A
:106CA000FDF776FB00BF00BF02E0E169206A88477C
:106CB00070BDF8B55B480068401C00283AD000273A
:106CC00000F006FC044665480168204600F003FC1D
:106CD00006465448056811E0282068435049096871
:106CE0004418A068B04200D90BE0A068361AA0682A
:106CF000C719656A2046FFF7BEFF00BF681C002861
:106D0000EAD100BF5648007856490978884209D12F
:106D100054480078401CC0B252490870022801D182
:106D2000002008704F48007880004F490F50FFF74F
:106D30009DFF00BFF8BD014649480078494A1278D6
:106D400090421DD046480078401C454A10701046BD
:106D50000078022801D1002010704148007880009E
:106D6000414A105808603D4A0868126880183B4A3A
:106D70001060104600680002000A10600120704791
:106D80000020086000BFFAE7FEB5264800680190C1
:106D900036480078009074E00098C00034490968D3
:106DA0004418257869E01820684361680F18681C4A
:106DB000C5B2A078A84200D100253868022802D0C8
:106DC000032857D10EE02821786848431449096800
:106DD0004618307E002804D07868FFF7F4FE0020C3
:106DE000307648E00CE00F490968282251430C4AEC
:106DF00012688818002101760A4A416A116000BFB2
:106E000008480068401C0028EDD134E01CED00E08B
:106E100000E100E000150140401301400010014076
:106E20003820002044200020582000202E2E5C2EE8
:106E30002E5C2E2E5C2E2E5C2E2E5C536F75726394
:106E4000655C6170705F636F6D6D6F6E5C617070BB
:106E50005F74696D65722E63000000004820002099
:106E600054200020552000204C2000203C200020F1
:106E70004020002000BF00BF00BF6078A84292D130
:106E800000BF0098411EC9B20091002884D1FE487D
:106E900001680198814201D00120FEBD0020FCE77D
:106EA000F0B50346002426E0F74E366828277E43D7
:106EB000F64F3F68F01986689E4203D98668F61A35
:106EC00086601DE086689B1B8668341900268660F4
:106ED0000676ED4E3568EC4F466A3E604669002EF8
:106EE00008D00E193602360AC66046690661166871
:106EF0004662156000BFE4480068401C0028D3D1FA
:106F000000BFF0BDFEB50746DF4800680290E048CC
:106F1000007801906BE00198C000DE4909684518CF
:106F20005DE0781C002807D03E4628207043D749F2
:106F300009684418676A23E02978182359436A6866
:106F400050182978491C29702978AA78914201D1D2
:106F500000212970466828217143CC4A12688C1898
:106F60000168012902D1217E002900D037E0816823
:106F7000E160C1682161016961614169216200BF0D
:106F8000C549E0680968401A0002000AC3498842FE
:106F900008D2C149E068096800F09DFA21694018EB
:106FA000A06011E0BC48E168006800F094FA00902D
:106FB00021690098814204D921690098081AA060CB
:106FC00001E00020A06000BF0020E06020610120FF
:106FD0002076801E60623046FFF78BFD00BF781C74
:106FE00000289ED12878697888429AD100BF0198FC
:106FF000411EC9B2019100288DD1A34801680298B1
:10700000814201D00120FEBD0020FCE7FEB505460F
:107010009D480068401C002835D09B480068282106
:1070200048439A4909684018866800F051FA02906E
:10703000994804682146029800F04DFAC01C01905E
:10704000681C002801D1FFF729FD0198B04201D248
:10705000304600E0019804192402240A2046904991
:10706000086000BF00F034FA00900299009800F028
:1070700032FAC71C2046029900F02DFA874201D946
:10708000FFF7EFFD01E0FFF71EFDFEBDFEB500209E
:10709000C0430190804804687B4807686846FFF752
:1070A0004AFE0546FFF770FE0646002D05D001AAF0
:1070B00021460098FFF7F4FE01260198FFF722FF12
:1070C000002800D00126002E02D03846FFF79EFF90
:1070D000FEBD4170704770B502460B465078411CAA
:1070E0009078884200D100211078884201D1002098
:1070F00070BD196050781826704355682C182046CA
:10710000F6E7FFB581B005460E461746E900614A2D
:10711000126888186946FFF7DEFF0446002C02D18A
:10712000042005B0F0BD01202060666000F0D0F9B9
:10713000A060E760049820610A986061E900554A00
:10714000126888180099FFF7C4FFFFF78FFD002031
:10715000E7E7F8B504460E46E1004E4A1268881883
:107160006946FFF7B8FF0546002D01D10420F8BDA0
:10717000022028606E60E100464A12688818009973
:10718000FFF7A7FFFFF772FD0020F0E738B50446D0
:10719000E100404A126888186946FFF79CFF0546DF
:1071A000002D01D1042038BD03202860001F686035
:1071B000E100384A126888180099FFF78AFFFFF744
:1071C00055FD0020EFE710B500203649086000218A
:1071D000344841608160C160002032494039086014
:1071E0004860FFF766FD10BD10B5FFF74FFF10BDFB
:1071F000FFB581B00E4617461C4620468107890F11
:10720000002901D1012100E00021002902D107203D
:1072100005B0F0BD002C01D10720F9E7FFF753FCC2
:1072200021490A9808602148067018480460002522
:107230000CE0002128206843144A126811502820CD
:107240006843124A1268801801766D1CB542F0DB63
:1072500028207043041903200D4908700D4804606C
:10726000183400250CE0E9000A4A12688818002149
:107270000170417087704460182179430C196D1CAE
:10728000032DF0DB002013E04420002038200020F4
:107290003C2000204020002048200020FFFF7F00ED
:1072A00040150140401101405820002034200020AA
:1072B000C0438B49086000208A4908708A490870D9
:1072C000142000F0D3F803211420FFF7A7FB1420AB
:1072D00000F0BEF80198FFF7D8FB00F0F9F88349F9
:1072E0000860002094E770B503460C4680480068AB
:1072F000002801D1082070BD002A01D10720FAE73B
:10730000002B01D10720F6E700211CE0282048438C
:10731000774D2D682858002814D10125282048438E
:10732000734E3668355028204843714D2D684019FA
:107330004460282048436E4D2D684019C261196091
:107340000020D8E7491C6B4800788142DEDB04202E
:10735000D1E710B500F092F8012802D0032804D13B
:1073600001E0002403E0012401E0022400BF00BF8B
:10737000204610BDFEB504460D4616465C48006822
:10738000002801D10820FEBD5A480078844201D26D
:10739000052D01D20720F6E72820604354490968EB
:1073A0000858012801D00820EDE728206043504903
:1073B000096840184068012801D1284600E00020F3
:1073C0000746FFF7C6FF3B462A4621460096019036
:1073D000FFF797FED7E770B50446454800680028D8
:1073E00001D1082070BD43480078844201D30720B2
:1073F000F8E7282060433E4909680858012801D071
:107400000820EFE7FFF7A5FF05462146FFF7A1FE9D
:10741000E8E710B536480068002801D1082010BD03
:10742000FFF797FF0446FFF7B1FEF8E710B50446F3
:1074300000F04EF82060002010BD70B505460E46E5
:1074400014463146284600F046F82060002070BD02
:10745000C206D20E01219140274A11607047C20630
:10746000D20E01219140254A11607047C206D20E0A
:1074700001219140214A80321160704710B52048A7
:107480004068C105C90D002920D00A46103A1046AF
:1074900000280DDA1A4B1C330407240F083CA408FB
:1074A000A4001B598407E40EE3401B069B0F0BE06E
:1074B000114B032424021B198408A4001B598407C0
:1074C000E40EE3401B069B0FD8B210BD0420FCE77E
:1074D0000C48406870470246501A0002000A704784
:1074E0004420002054200020552000204820002067
:1074F000382000203420002000E100E000E200E01D
:1075000000ED00E00015014001464888B74A1288A6
:10751000904206DB4888B54A5288904201DC01203F
:1075200070470020FCE738B50546B1480088B149EE
:1075300088423BD0B0480078401CAF490870AF4843
:10754000007B097888420FDBA849A948008865DFDD
:107550000446002C07D0A9488069002803D0A7481A
:1075600081692046884721E00020A3490870A3488C
:10757000007C00280FD03B219D48008866DF044630
:10758000002C07D09D488069002803D09B48816962
:107590002046884700BF99484069002806D000204F
:1075A0000090964841696846884700BF38BD70B56D
:1075B00005461C2229469148FCF712FE00209049FE
:1075C0000870286800280BD008228848296803F032
:1075D0000DFE86486ADF0446002C08D0204670BDA8
:1075E00082486BDF0446002C01D02046F7E70020DC
:1075F000C0437F49088000207F490870814A0021EC
:107600008148FFF770FEEAE710B57F480068FFF792
:10761000E2FE10BD38B57D48FFF776FF002829D17E
:107620007748007800280AD074484069002820D0A4
:1076300000200090714841696846884719E06E480B
:107640000078002802D16D48456801E06B488568E4
:10765000002229466C480068FFF78CFE0446002C87
:1076600007D066488069002803D0644881692046B5
:1076700088470AE061484069002806D00120009050
:107680005E4841696846884700BF00205C49087031
:1076900038BD10B50446A088554908800822214607
:1076A0000E315A4803F0A2FD002053490870534898
:1076B000C089002801D1FFF7ADFF10BD70B50546A8
:1076C0000020C0434A49088000204B4908704E48BA
:1076D0000068FFF780FE0446002C07D04748806909
:1076E000002803D0454881692046884770BD70B5A1
:1076F0000546AC1D20884149C989884220D1208B8C
:1077000002281DD100BF00BFA17EE27E12021143FC
:107710000846C107C90F002902D0FFF77BFF0FE021
:1077200039480068FFF757FE0646002E07D0334859
:107730008069002803D0314881693046884700BFFE
:1077400070BD10B504460822A11D304803F04EFD5F
:10775000FFF760FF10BD10B504462088102806D042
:10776000112808D012280ED0502810D107E020464A
:10777000FFF78FFF0CE02046FFF7A0FF08E0204650
:10778000FFF7B5FF04E02046FFF7DBFF00E000BF96
:1077900000BF10BD38B5044608222146134803F047
:1077A00025FD12486ADF0546002D1CD11748FFF75A
:1077B000ABFE00280BD10120114908700B490C4881
:1077C000008865DF054601200B4908700BE00B4877
:1077D0004069002806D001200090084841696846A9
:1077E000884700BF0025284638BD00005C200020E7
:1077F00066200020FFFF000064200020042C0020F1
:1078000074200020277501007020002068200020CF
:1078100070B506460C46154629462046FCF7C5FDC0
:1078200070BDFFB581B00C4616461F462046810745
:10783000890F002901D1012100E00021002902D196
:10784000072005B0F0BD002C01D10720F9E725483D
:107850000460254806802548076025490A98086085
:107860002449019810DF0546002D01D02846E8E79D
:10787000162023DFE5E738B500BF1B4800880090DD
:1078800069461848006850DF0446052C00D10EE018
:10789000002C06D000BF18A25F212046FCF778FD1F
:1078A00000BF10480068114909688847E5E700BF34
:1078B00038BD70B50E480068002810D00C4800682C
:1078C0008047044600BF2546002D06D000BF0AA20F
:1078D00071212846FCF75CFD00BF00BF01E0FFF707
:1078E000CAFF70BD80200020842000207820002066
:1078F0007C200020117801002E2E5C2E2E5C2E2E76
:107900005C2E2E5C2E2E5C536F757263655C626C10
:10791000655C626C655F737461636B5F68616E6404
:107920006C65722E6300000005460C4616467F22E9
:1079300031460B4803F0BCFC002109486030C17798
:1079400008490C8008480560084600880648006819
:1079500072B6A2B231462846FEF787FB00BFFEE7AB
:10796000202C0020882000208C20002070B50546A7
:107970000C461646072C19D82846682108430121D1
:10798000A140090208433D49486001200860002EDB
:107990000CD03B4948600121072000F038F807204F
:1079A00001218140374A116000BF00BF70BD1A201D
:1079B000324948600120086070470121324A116055
:1079C00000BF324909680029FBD000212F4A11600D
:1079D0002A4988687047F8B5FFF7EFFF074603F0BC
:1079E00029FE06462A4904F02DF80546294904F0E7
:1079F00029F804468921C90503F040FDF8BD00B50A
:107A0000FFF7DBFFE12109014843800A00BD10B503
:107A1000002819DA204A03071B0F083B9B089B002C
:107A2000D2588307DC0EFF23A3409A438B071B0E1B
:107A30008407E40EA3401A43174B0407240F083CA5
:107A4000A408A4001A5118E00E4A03231B02D218FE
:107A500083089B00D2588307DC0EFF23A3409A4380
:107A60008B071B0E8407E40EA3401A43054B032427
:107A700024021B198408A4001A5110BD007500408F
:107A80000073004000E100E0007000400071004021
:107A9000000040409A99993F1CED00E070B500BF8E
:107AA00001204006CD49886000BF00BF40108860BB
:107AB00000BF0420FCF774FBC84800698001C00FB8
:107AC000002807D0C5480069C001C00F002801D0B8
:107AD000012428E0C1480069C001C00F002821D05E
:107AE0000024122519E000BF01200006BB49C86030
:107AF00000BF0420FCF754FB00BF01200006B7497B
:107B0000886000BF0420FCF74BFBB448006980018B
:107B1000C00F002801D0012403E028466D1E002874
:107B2000E1D100E00024204670BD10B500BFAC4894
:107B300005210907072212028918486600BF00BF05
:107B4000052109078918086600BF00BF012000064B
:107B5000A249886000BF00BF886100BF00BF40002D
:107B6000886000BF00BF886100BFFFF797FF10BDAE
:107B700010B500BF012000069849886000BF0420AE
:107B8000FCF70EFB00BF95480069C001C00F00283C
:107B9000F9D0012010BD10B500BF012040068F496B
:107BA000C86000BF0420FCF7FBFAFFF7E1FF0028E4
:107BB00000D110BD00BF012040068849886000BF89
:107BC0000420FCF7EDFA0120F3E770B50646012426
:107BD00000BF60068149886100BF80251FE000BFAB
:107BE000012000067D49C86000BF0420FCF7D8FAD8
:107BF00030462840002805D000BF012040067749C4
:107C0000886005E000BF012040067449C86000BFDD
:107C1000FFF7AEFF002801D1002402E06D08002D1F
:107C2000DDD100BF00BF012000066C49C86000BF65
:107C30000420FCF7B5FA00BF012040066749C8617F
:107C400000BF0420FCF7ACFAFFF792FF0440634842
:107C50000069400E01214840044000BF08065F490A
:107C6000C86000BF0420FCF79BFA00BF012040065B
:107C70005A49886100BF204670BDF8B505460E46DA
:107C800000270120009000BF40065449C86100BF92
:107C9000802418E0FFF76CFF002801D1009014E069
:107CA0004E4800698001C00F002802D038462043AA
:107CB000074600BF012000064849C86000BF0420F5
:107CC000FCF76EFA6408002CE4D100BF00BF01206D
:107CD00040064249886100BF2F70002E02D000BFCD
:107CE000C86005E000BF012040063C49886000BF35
:107CF0000420FCF755FAFFF73BFF002800D1009065
:107D000000BF012000063549C86000BF0420FCF711
:107D100047FA0098F8BD10B500BF012040062F4972
:107D2000886000BF0420FCF73BFAFFF721FF002822
:107D300000D110BD00BF012040062849C86000BF27
:107D40000420FCF72DFA00BF012000062349C8607B
:107D500000BF0420FCF724FA0120EAE7FFB581B058
:107D600007460D4616460124FFF7D5FF0440384666
:107D7000FFF72BFF0440F807C00F002816D00DE0D6
:107D8000002E05D100212846FFF777FF044004E0CC
:107D900001212846FFF771FF04406D1C3046711E1B
:107DA000CEB200280FD0002CEAD10CE004E02878F5
:107DB000FFF70BFF04406D1C3046711ECEB2002849
:107DC00001D0002CF3D10498002801D1002C02D15D
:107DD000FFF7E1FE0440204605B0F0BD000500506D
:107DE0000C06000001B505E00098401E0090034815
:107DF000FCF7E6F900980028F6D108BDE70300007B
:107E000010B50446012C04D10022032103F05CF8D4
:107E100004E000220321012003F056F810BD10B544
:107E2000FF2003F020F910BD10B53220FE49086094
:107E3000FFF7F5FF00BFFFF7F2FF0446FF2C03D06A
:107E4000F94800680028F6D1204610BD10B503F0AF
:107E500017F910BD7047704770B504460E460A20EA
:107E6000F249086000BFFFF7DAFF0546FF2D03D196
:107E7000EE4800680028F6D1FE2D01D0002070BD2C
:107E800000BFFF2003F0EFF82070641CFF2003F018
:107E9000EAF82070641CFF2003F0E5F82070641CF1
:107EA000FF2003F0E0F82070641C301F0600E8D1CA
:107EB000FFF7B5FFFFF7B3FF0120E0E7F8B5044691
:107EC0000D46FFF7B1FFFF2801D00020F8BD28467E
:107ED00003F0C9F8FD2D1CD0002700BF2078641CDA
:107EE00003F0C1F82078641C03F0BDF8781EC0B21E
:107EF0000700F3D1FF2003F0B6F8FF2003F0B3F83A
:107F0000FFF78DFF0646F006C00E052801D00020C1
:107F1000DCE70120DAE7F8B504460D468020204072
:107F200000280AD06406640E00217720FFF7F3FFD3
:107F30000646012E01DD3046F8BD03F0A1F803F03E
:107F4000A4F8FFF771FFFF2801D0FF20F4E72046D7
:107F500003F089F8280E03F086F82902080E03F0D2
:107F600082F82904080E03F07EF8E8B203F07BF8EB
:107F70000127402C00D19527482C00D1872738466F
:107F800003F071F84C2C01D1FFF749FF0A2700BF1D
:107F9000FFF745FF064680203040002803D0781EBA
:107FA000C0B20700F4D13046C6E7F8B50746002F47
:107FB00001D00120F8BD9E48007802210840002829
:107FC00002D09B480078F5E7FFF744FF0020FFF759
:107FD00017FF0A2403E0FFF722FF601EC4B2002C43
:107FE000F9D1002600214020FFF795FF012868D134
:107FF00064208E490860FF21AB314820FFF78BFFDA
:1080000001283CD100BF05E0FFF709FF694608558C
:10801000601CC4B2042CF7DB68468078012850D17C
:108020006846C078AA284CD100BF80480068002864
:1080300006D001218907E920FFF76DFF0028F4D160
:108040007A48006800283CD000217A20FFF763FFBF
:10805000002836D1002405E0FFF7E1FE6946085507
:10806000601CC4B2042CF7DB68460078402108404D
:10807000002801D00C2000E00420064621E0002169
:10808000E920FFF748FF012802DC0226E92501E08C
:108090000126412500BF65480068002805D0002161
:1080A0002846FFF738FF0028F5D16048006800280F
:1080B00006D0012149025020FFF72DFF002800D0F3
:1080C00000265C480670FFF7C1FE002E09D0584814
:1080D000007840084000564908700120FFF790FEE4
:1080E00001E0FFF7B8FE5248007863E70146002937
:1080F00001D0012070474E480078FBE7F8B50746ED
:108100000D4616461C46002F01D1002C01D104203B
:10811000F8BD47480078C007C00F002801D00320F1
:10812000F6E74448007808210840002800D176028C
:10813000012C0DD131465120FFF7EDFE002822D150
:1081400061022846FFF788FE00281CD000241AE0B0
:1081500031465220FFF7DFFE002814D100BF012175
:1081600049022846FFF778FE002800D106E0FF35D7
:10817000FF350235601EC0B20400F0D100BF0021FF
:108180004C20FFF7C8FEFFF761FE002C01D0012054
:10819000BEE70020BCE7F8B507460D4616461C466C
:1081A000002F01D1002C01D10420F8BD2048007817
:1081B000C007C00F002801D00320F6E71C48007854
:1081C00004210840002801D00220EEE71948007879
:1081D00008210840002800D17602012C0DD131463B
:1081E0005820FFF798FE002837D1FE212846FFF7D8
:1081F00065FE002831D000242FE00E4800780621CB
:108200000840002803D02146D720FFF784FE3146DE
:108210005920FFF780FE00281FD100BFFC2128460F
:10822000FFF74CFE002807E0982000209420002053
:10823000902000209C20002000D106E0FF35FF3573
:108240000235601EC0B20400E8D100BFFD2100204D
:10825000FFF734FE002800D10124FFF7F7FD002CC2
:1082600001D00120A1E700209FE7F7B586B01446B2
:1082700027460698002802D0042009B0F0BD01204E
:1082800005900798042816D13878002804D00128D2
:1082900005D002280BD107E0002005900AE0FFF787
:1082A000D9FD0020059005E00020059002E00420A3
:1082B000059000BF12E195480078C007C00F002864
:1082C00001D00320D9E70798030003F097FB0F09BB
:1082D000125258EFEFEFEFEFEFB7BDCCDBF0EF004E
:1082E00002F0D3FEFFF7A0FDFF2801D1002005908A
:1082F000F1E000214920FFF70EFE002838D11021BF
:1083000001A8FFF7A9FD002832D068460079801146
:10831000012809D16846417B007B00020818401CF7
:1083200086B2B002206021E06846407A0107090F5A
:108330006846807B80221040C01109186846407B47
:108340008007400F0818851C6846007B811168462D
:10835000C07A800009186846807A8007000D0818E6
:10836000461C28460938314681402160002005908E
:10837000B1E001204002208000200590ABE064487D
:1083800000780421084000281ED00021CD20FFF7EE
:10839000C2FD002851D1FFF742FD102101A8FFF7CF
:1083A0005BFD002849D0302503E0FFF738FD681E4B
:1083B000C5B2002DF9D16846807B0111102088409C
:1083C00020600020059038E000214920FFF7A3FD40
:1083D000002832D1102101A8FFF73EFD00282CD043
:1083E0004B48007802210840002811D06846807B65
:1083F0008006410E6846C07B80221040C0110818DC
:10840000401C6946497C8911491E8840206012E061
:108410006846C07B8007C10E6846C07BE0221040E2
:1084200040110818401C6946897B7C221140891044
:10843000491C48432060002005904CE034480078F7
:1084400038700020059046E000214920FFF763FDC9
:10845000002807D110213846FFF7FEFC002801D084
:108460000020059037E000214A20FFF754FD002846
:1084700007D110213846FFF7EFFC002801D000207B
:10848000059028E000217A20FFF745FD00280BD158
:10849000042505E0FFF7C3FC38707F1C681EC5B2D9
:1084A000002DF7D10020059015E000E010E000213C
:1084B000CD20FFF730FD002809D1FFF7B0FC4021A7
:1084C0003846FFF7C9FC002801D00020059002E0E3
:1084D0000420059000BF00BFFFF7B8FC0598CCE66C
:1084E0000C490968C8B2002804D0411EC9B2084628
:1084F000084A116008490968C8B2002804D0411E22
:10850000C9B20846044A116070470000902000205C
:108510009C200020942000209820002000207047FC
:1085200070B503460C4603E025781D70641C5B1C87
:108530001546521E002DF7D170BD30B5034601E03F
:1085400019705B1C1446521E002CF9D130BDF8B5D1
:1085500003461C460D460020009000BF1046521EE8
:10856000002807D02078641C2E786D1C801B00909A
:108570000028F3D00098F8BD024600E0521C1078A5
:10858000002802D010788842F8D110787047F8B5EA
:1085900004460D46266BAE4232D02079002821D009
:1085A00060780123324621463431FFF7F4FD00287C
:1085B00001D00120F8BD00202071E169606A4018F7
:1085C000B0420FD9E7780AE0E069861960780123A4
:1085D000324621463431FFF7DEFD781EC7B2012F47
:1085E000F2DC00BF002D0BD0607801232A46214623
:1085F0003431FFF783FD002801D00120DAE725633D
:108600000020D7E770B5044600212046FFF7BFFFE2
:108610000546002D7ED1207803287FD1607900287F
:108620007CD00020206301225202002120463430F9
:10863000FFF783FF552120463430FF30E13081774A
:10864000AA2120463430FF30FF30417052213420BF
:108650000155352001556121362001554121372032
:108660000155722120463430FF30E130017120463F
:108670003430FF30E5304170412120463430FF3046
:10868000E5308170612120463430FF30E530C17023
:10869000217C20463430FF30E1300172208A000412
:1086A000010E20463430FF30E9304170206900026D
:1086B000010E20463430FF30E93081702069010E10
:1086C00020463430FF30E930C170217B2046343001
:1086D000FF30E1300173A0890004010E20463430E0
:1086E000FF30ED304170E0680002010E204634306A
:1086F000FF30ED308170E068010E20463430FF30ED
:10870000ED30C17060780123214634316269FFF792
:1087100042FD01E00AE001E0002060716078002283
:108720001146FFF7A2FD002800D00125284670BDA4
:10873000F8B505460C46022C02D3286AA04201D89F
:108740000120F8BD6F6A2878012804D0022830D0B3
:1087500003286CD143E0264670088619700AC119B7
:108760002846FFF714FF002800D060E0F105C90D8E
:1087700028463430405C0090761C700AC1192846A7
:10878000FFF705FF002800D051E0F105C90D28468C
:108790003430405C0002009908430090E007C00FAD
:1087A000002802D000980009CBE700980005000DD2
:1087B000C7E7200AC1192846FFF7E9FE002800D0C4
:1087C00035E02006C10D28463430081840780002F4
:1087D0002106CA0D29463431895C0843B1E7E00916
:1087E000C1192846FFF7D3FE002800D01FE060061D
:1087F000C10D284634300818C07800066106CA0D3D
:108800002946343151188978090408436106CA0D94
:108810002946343151184978090208436106CA0DC6
:1088200029463431895C08430001000989E700BF0B
:108830000020C04385E7FEB505460C461646022CCF
:1088400002D3286AA04201D802279CE0686A0090FF
:108850002878012804D0022850D0032870D165E080
:108860000294029C6008001902900298420A009843
:1088700011182846FFF78BFE0746002F00D07FE037
:108880000298C105C90D2846343008180190E00748
:10889000C00F002806D0019800780007000F3101B2
:1088A000084300E03046C1B2019801700298401CB4
:1088B0000290012028710298420A00981118284657
:1088C000FFF765FE0746002F00D059E00298C1056A
:1088D000C90D2846343008180190E007C00F002861
:1088E00002D03005000E06E001980078F021084023
:1088F0003105090F08430199087041E0220A0098E8
:1089000011182846FFF743FE0746002F00D037E036
:108910002006C20D2846343086543004010E20064D
:10892000C20D284634301018417029E0E209009841
:1089300011182846FFF72BFE0746002F01D01FE035
:108940001CE06006C20D2846343086543004010E07
:108950006006C20D28463430101841703002010EF6
:108960006006C20D2846343010188170310E600642
:10897000C20D284634301018C17001E0022700BF34
:1089800000BF012028713846FEBDF8B504460E46EA
:10899000022E02D3206AB04201D8022729E0002724
:1089A00023E031462046FFF7C3FE0546002D00D1E7
:1089B0001EE0012D01D102271AE0681C002801D118
:1089C000012715E0002231462046FFF734FF074615
:1089D000002F00D00CE02069401C002804D0206942
:1089E000401C2061012060712E46206AB042D8D818
:1089F00000BF3846F8BDF3B581B00546286A00903F
:108A00000298002807D1EF68002F02D00098874213
:108A100010D301270EE028460299FFF789FE06468B
:108A2000022E01D20120FEBD0098864201D23046BE
:108A3000F9E7029F3C4600BF641C0098844204D3BF
:108A40000224BC4201D90020EDE721462846FFF769
:108A50006FFE0646002E00D10AE0701C002801D0EF
:108A6000012E01D13046DEE7BC42E5D10020DAE735
:108A700000BFF94A21462846FFF7DDFE002802D054
:108A80000020C043CFE70298002809D0224628469C
:108A90000299FFF7D0FE002802D00020C043C2E7B1
:108AA000EC602869401C002804D02869401E286119
:108AB000012068712046B6E70246891E106A801EB2
:108AC000884201D80020704790784843D36AC01884
:108AD000F9E7F8B504460E46E680A568012D03D0F7
:108AE0002068006AA84201D80220F8BD002D05D1F7
:108AF00020680078032801D12068856A002D0CD1F8
:108B0000E56020680089B04201DC0220EDE72068C2
:108B1000806A31094018206121E0206880780701CF
:108B200013E029462068FFF703FE0546681C00286D
:108B300001D10120D9E7022D03D32068006AA842A1
:108B400001D80220D1E7F01B86B2BE42E9DAE56027
:108B500029462068FFF7B0FF3109401820612068DE
:108B600034303107C90D401860610020BDE7F3B50E
:108B700081B00446E088401C86B2002E02D02069F5
:108B8000002801D10420FEBD3007000F002875D158
:108B90002069401C2061E068002805D12068008918
:108BA000B0426BDC0420EEE7300921688978491E69
:108BB0000840002862D1E1682068FFF7B9FD05464A
:108BC000012D01D80220DEE7681C002801D1012018
:108BD000D9E72068006AA8424AD80298002801D143
:108BE0000420D0E7E1682068FFF705FF0546002D67
:108BF00001D10720C7E7012D01D10220C3E7681C7E
:108C0000002801D10120BEE700212068FFF7BFFC4A
:108C1000002801D00120B6E721680846343001223F
:108C200052020021FFF789FC29462068FFF744FF24
:108C300021680863002711E00120216808710021E4
:108C40002068FFF7A4FC002801D001209BE72068E2
:108C5000006B401C21680863781CC7B220688078CC
:108C6000B842E9DC2068006BC01B2168086300BFC4
:108C7000E56029462068FFF71FFF2061E680206835
:108C800034303107C90D4018606100207BE7F8B52A
:108C9000044600212046FFF71CFF0546002D01D0A9
:108CA0002846F8BD00BF21692068FFF770FC054623
:108CB000002D00D019E066693778002F01D1042516
:108CC00013E0F07A08210840002807D10B22304633
:108CD000A169FFF73CFC002800D106E000212046F6
:108CE000FFF745FF0546002DDDD000BF2846D8E739
:108CF000F8B5044604251EE021692068FFF747FC0B
:108D00000546002D00D019E067693E78002E01D19C
:108D1000042513E0E52E06D000BFF87A08210840AC
:108D2000002800D10AE000212046FFF720FF054679
:108D3000002D00D002E020690028DDD100BF002D09
:108D400001D0002020612846F8BDF8B50446002176
:108D50002046FFF7BEFE0546002D17D100BF216952
:108D60002068FFF714FC0546002D00D00DE0606977
:108D70000678E52E01D0002E00D106E00121204624
:108D8000FFF7F5FE0546002DE9D000BF002D19D1F3
:108D900021692068FFF7FBFB0546002D12D16769AA
:108DA000202200213846FFF7C8FB0B223846A16974
:108DB000FFF7B6FBA069C07A18210840387301207C
:108DC000216808712846F8BD70B50446E188204640
:108DD000FFF77FFE0546002D0CD121692068FFF7C3
:108DE000D6FB0546002D05D1E520616908700120FC
:108DF00021680871284670BDF3B583B00398866971
:108E00000B2220213046FFF798FB0020054607463D
:108E10000190082002900498006800900098C05DBE
:108E20002E2827D100BF38467F1C00990C5C2E2CC1
:108E300001D1032F00DB04E00198411C019134545F
:108E4000F1E700BF2F2C09D05C2C07D0202C05DDCA
:108E5000062005B0F0BD0000FFFFFF0F0098C1190C
:108E600004980160202C01DC242000E02020F07216
:108E70000020EEE700BF38467F1C00990C5C202CD8
:108E800003DD2F2C01D05C2C00D136E02E2C03D03A
:108E90000299019888420DDB0298082801D12E2CF6
:108EA00001D00620D5E7082001900B200290A806EB
:108EB000050EE0E7802C03DB032005430620C8E70E
:108EC0002146FEA0FFF758FB002801D00620C0E78E
:108ED000412C04DB5A2C02DC0220054308E0612C03
:108EE00006DB7A2C04DC0120054320462038C4B27E
:108EF0000198411C01913454BDE700BF0098C1198D
:108F000004980160202C01DC042000E000200446CD
:108F10000198002801D106209BE73078E52801D18F
:108F2000052030700298082801D1A806050EA80770
:108F3000800F012801D1102004430C202840042870
:108F400001D108200443F472002082E7F8B50546F9
:108F50000B461A4609322E69002E3CD06869067B02
:108F6000009600210AE0445C202C00D108E0052C8A
:108F700000D1E52400BF1470521C491C0829F2DB03
:108F800000BF067A202E0FD02E261670521C082104
:108F900007E0445C202C00D105E000BF1470521C97
:108FA000491C0B29F5DB00BFC67A1E72C67F360648
:108FB000877F3F043E43477F3F023E43077F3E4358
:108FC0001E60467E3602077E3E439E80C67D360288
:108FD000877D3E43DE8000261670F8BDF3B581B074
:108FE000044602E00298401C029002980078202873
:108FF000F8D0029800782F2803D0029800785C28D7
:1090000005D10298401C02900020A06002E0206878
:109010008069A06002980078202807D200212046AD
:10902000FFF757FD06460020606130E000BF02A94F
:109030002046FFF7E1FE0646002E00D026E020463F
:10904000FFF725FE0646A069C77A04210F40002ECF
:1090500005D0042E02D1002F00D1052616E0002FE6
:1090600000D013E06569E87A10210840002801D19A
:1090700005260BE0687D0002297D08430004E97E97
:109080000902AA7E11430843A060D0E700BF304622
:10909000FEBD70B504460D46607801232A46214680
:1090A0003431FFF72BF8002801D0032070BD204693
:1090B0003430FF30FF304078010220463430FF303A
:1090C000E130807F01438048814201D00220EDE7FA
:1090D0006D20005D01066C20005D000408436B21DB
:1090E000095D090208436A21095D08430002000A7C
:1090F0007649884201D10020D8E78920005D010629
:109100008820005D000408438721095D09020843A7
:109110008621095D08430002000A6C49884201D19A
:109120000020C3E70120C1E7F7B588B008980068C0
:1091300002900298007830380790079809280AD8DA
:10914000029840783A2806D10298801C029008992B
:109150000298086002E05E480078079007980028AF
:1091600002D00B200BB0F0BD0798800059490C5875
:1091700009980460002C01D10C20F3E72078002826
:1091800014D06078FEF7B2FF06900698C007C00FB3
:1091900000280BD10A98002806D004210698084020
:1091A000002801D00A20DDE70020DBE70020207046
:1091B000079860706078FEF7F8FE06900698C00782
:1091C000C00F002801D00320CCE70A98002806D061
:1091D000042106980840002801D00A20C2E7002098
:1091E000014605902046FFF754FF0546012D15D195
:1091F0002746FF37F337387900280FD0F87A000672
:10920000B97A09040843797A09020843397A08438C
:10921000059020460599FFF73CFF0546032D01D137
:1092200001209FE7002D09D14020005D00023F2171
:10923000095D084301214902884201D00D2091E7D0
:109240004B20005D06024A21095D0E43002E0ED11F
:109250005B20005D01065A20005D0004084359218F
:10926000095D090208435821095D08430646E66185
:109270004420005DE070E07846434320005D00023A
:109280004221095D08430599401860624120005D54
:10929000A0704620005D00024521095D0843208141
:1092A0004820005D00024721095D084304900498AE
:1092B00000281DD15720005D01060DE020222A2B39
:1092C0002C5B3D5D7C7F000055AA000046415400A8
:1092D000A6200020A02000205620005D00040843A6
:1092E0005521095D090208435421095D0843049092
:1092F0004322125D120242231B5D1A43049B9A1AF9
:10930000921B23891B09D01AA17802F007F8801C50
:10931000039020620125F9490398884200D3022571
:10932000F7490398884200D30325032D0FD163200A
:10933000005D01066220005D000408436121095DB3
:10934000090208436021095D0843A06202E0606AE7
:109350008019A062606A8019218909094018E062B9
:109360000020C043206100202071032D7ED1607158
:109370006520005D01026420005D01430598081826
:109380006061607862690123214634310190FEF703
:10939000B5FE002874D120463430FF30FF304078CD
:1093A000010220463430FF30E130807F0143D54850
:1093B000814265D13720005D00063621095D090430
:1093C00008433521095D090208433421095D08433A
:1093D000CD49884254D120463430FF30E530C07842
:1093E000010620463430FF30E53080780004084321
:1093F00021463431FF31E5314978090208432146DD
:109400003431FF31E13109790843C049884237D10D
:1094100020463430FF30ED30C0780106204634302D
:10942000FF30ED3080780004084321463431FF31AD
:10943000ED3149780902084321463431FF31E131E9
:10944000097B0843E06020463430FF30E930C078C3
:10945000010620463430FF30E930807800040843AC
:1094600021463431FF31E931497800E008E0090252
:10947000084321463431FF31E131097A0843206144
:10948000257000202063A061A1480088401C80B2A4
:109490009F490880E080002064E670B504460D46D0
:1094A000002C05D02078002802D0E088A84201D006
:1094B000092070BD6078FEF719FEC007C00F0028B4
:1094C00001D00320F5E70020F3E710B50246012A9A
:1094D00001DB0B2010BD90008E4C2358002B01D0D7
:1094E00000201870002901D0002008709000894CDD
:1094F00021500020EEE7F7B58CB005461646002057
:109500002860F606F60E1E203040024605A90DA87A
:10951000FFF70AFE0746002F02D038460FB0F0BD15
:1095200002A80B9005A80D99FFF758FD07461C20CF
:109530003040002874D0002F0DD0042F03D105A88F
:10954000FFF703FC0746002F01D03846E6E7082066
:1095500006430A9C47E004203040002801D0082040
:10956000DCE70A9C002C04D0E07A11210840002896
:1095700001D00720D2E708203040002833D0607D9A
:109580000002217D08430004E17E0902A27E11430E
:10959000084300900020207500216175A076E176D7
:1095A00020776177A177E177012005990871059807
:1095B000006B0190009800280CD000990598FFF7E7
:1095C000E4F90746002F01D03846A7E70098401E6F
:1095D0000599C86001990598FEF7D9FF0746002F45
:1095E00001D038469AE708203040002816D00020E5
:1095F000E072FEF793FF01900198A07301980004B8
:10960000010EE17301980002010E21740198010E10
:1096100061740120059908712020064319E0FFE7D5
:10962000002F01D0384679E70A9C002C04D0E07A5C
:1096300010210840002801D004206FE702203040AC
:10964000002806D0E07AC007C00F002801D007200C
:1096500064E70598006BE8610A982862AE71607D46
:109660000002217D08430004E17E0902A27E11432D
:1096700008432861E07F0006A17F09040843617F59
:1096800009020843217F0843E8600020A860FF200A
:10969000E8710020A861059828600598C088A88016
:1096A00000203BE7FFB587B00446154608980290B6
:1096B00000210A980160A1882068FFF7EEFE06905D
:1096C0000698002802D006980BB0F0BDA079802142
:1096D0000840002801D00220F6E7A079C007C00F9B
:1096E000002801D10720EFE7A168E068401A049044
:1096F0000498854200D9049DD9E00000F70F0000CE
:10970000F7FF000055AA0000525261417272416198
:10971000A4200020A02000202089C005C00D002822
:1097200072D1E07921688978884220DBA06800281E
:1097300001D1206903E061692068FEF7F9FF059017
:109740000598012805D8A07980210843A07102203E
:10975000BAE70598401C002805D1A079802108436C
:10976000A0710120B0E7059860610020E071616997
:109770002068FFF7A1F90646002E05D1A0798021C7
:109780000843A07102209FE7E0798619680A0390D8
:109790000398002839D0E17903980818216889785E
:1097A000884204D920688078E179401A03900398B0
:1097B000C3B220684078324601900299FEF79EFCC1
:1097C000002805D0A07980210843A07101207BE703
:1097D000A0794021084000280FD0A069811B039880
:1097E00081420AD2A169891B4A02029950180122BA
:1097F000520221462431FEF793FEE17903980818BE
:10980000E0710398470246E031E0A079402108402A
:10981000002814D020684078A26901232146243111
:109820000190FEF7B8FC002805D0A07980210843FC
:10983000A071012048E7A07940218843A071A06968
:10984000B04210D0206840780123324621462431AE
:109850000190FEF753FC002805D0A0798021084331
:10986000A071012030E7A661E079401CE0712089F9
:10987000C005C00D012149020F1AAF4200D92F4681
:109880002089C205D20D2046243011183A4602988C
:10989000FEF746FE00BF0298C0190290A068C019EA
:1098A000A0600A980068C1190A980160ED1B002D9C
:1098B00000D031E7002007E7FFB585B00446154624
:1098C00006980190002108980160A1882068FFF7A0
:1098D000E4FD04900498002802D0049809B0F0BD7B
:1098E000A07980210840002801D00220F6E7A07965
:1098F00002210840002801D10720EFE7E068401965
:10990000E168884200D20025E0E02089C005C00D52
:1099100000287DD1E0792168897888422EDBA06813
:1099200000280BD120690390039800280BD1002157
:109930002068FFF760F80390206104E06169206807
:10994000FFF759F803900398002800D1C1E003986D
:10995000012805D1A07980210843A0710220BDE72C
:109960000398401C002805D1A07980210843A071EC
:109970000120B3E7039860610020E071A0794021E5
:109980000840002814D020684078A26901232146AD
:1099900024310090FEF7FFFB002805D0A07980213C
:1099A0000843A071012099E7A07940218843A07164
:1099B00061692068FFF780F80646002E05D1A0797E
:1099C00080210843A071022088E7E0798619680A9F
:1099D00002900298002839D0E1790298081821688D
:1099E0008978884204D920688078E179401A029009
:1099F0000298C3B220684078324600900199FEF781
:109A0000CAFB002807D0A07980210843A07100E09C
:109A100038E0012062E7A069811B029881420ED2E2
:109A2000A069801B420201981118012252022046AF
:109A30002430FEF775FDA07940218843A071E179BB
:109A400002980818E0710298470233E0A069B0421A
:109A500014D0E168A068884210D2206840780123C1
:109A60003246214624310090FEF748FB002805D0FD
:109A7000A07980210843A07101202FE7A661E07939
:109A8000401CE0712089C005C00D012149020F1A58
:109A9000AF4200D92F462189CA05D20D2146243173
:109AA00050183A460199FEF73BFDA0794021084342
:109AB000A07100BF0198C0190190A068C019A060F2
:109AC00008980068C11908980160ED1B002D00D0AE
:109AD0001BE700BFE168A068884201D9A068E06088
